{
  "_format": "hh-sol-artifact-1",
  "contractName": "AccessControlContract",
  "sourceName": "contracts/AccessControl.sol",
  "abi": [
    {
      "inputs": [
        {
          "internalType": "address",
          "name": "_requestContract",
          "type": "address"
        },
        {
          "internalType": "address",
          "name": "_fileRegistry",
          "type": "address"
        }
      ],
      "stateMutability": "nonpayable",
      "type": "constructor"
    },
    {
      "anonymous": false,
      "inputs": [
        {
          "indexed": true,
          "internalType": "address",
          "name": "patient",
          "type": "address"
        },
        {
          "indexed": false,
          "internalType": "address",
          "name": "hospitalAddress",
          "type": "address"
        },
        {
          "indexed": false,
          "internalType": "enum AccessControlContract.AccessType",
          "name": "accessType",
          "type": "uint8"
        },
        {
          "indexed": false,
          "internalType": "string[]",
          "name": "keys",
          "type": "string[]"
        },
        {
          "indexed": false,
          "internalType": "uint256",
          "name": "deadline",
          "type": "uint256"
        }
      ],
      "name": "AccessGranted",
      "type": "event"
    },
    {
      "anonymous": false,
      "inputs": [
        {
          "indexed": true,
          "internalType": "address",
          "name": "patient",
          "type": "address"
        },
        {
          "indexed": false,
          "internalType": "address",
          "name": "hospitalAddress",
          "type": "address"
        },
        {
          "indexed": false,
          "internalType": "string[]",
          "name": "keys",
          "type": "string[]"
        }
      ],
      "name": "AccessRemoved",
      "type": "event"
    },
    {
      "anonymous": false,
      "inputs": [
        {
          "indexed": true,
          "internalType": "address",
          "name": "patient",
          "type": "address"
        },
        {
          "indexed": false,
          "internalType": "address",
          "name": "hospitalAddress",
          "type": "address"
        }
      ],
      "name": "AllAccessRemoved",
      "type": "event"
    },
    {
      "anonymous": false,
      "inputs": [
        {
          "indexed": true,
          "internalType": "address",
          "name": "patient",
          "type": "address"
        },
        {
          "indexed": false,
          "internalType": "address",
          "name": "hospitalAddress",
          "type": "address"
        },
        {
          "indexed": false,
          "internalType": "uint256",
          "name": "numKeysRemoved",
          "type": "uint256"
        }
      ],
      "name": "ExpiredKeysCleaned",
      "type": "event"
    },
    {
      "inputs": [
        {
          "internalType": "address",
          "name": "hospitalAddress",
          "type": "address"
        }
      ],
      "name": "cleanupExpiredKeys",
      "outputs": [],
      "stateMutability": "nonpayable",
      "type": "function"
    },
    {
      "inputs": [],
      "name": "fileRegistry",
      "outputs": [
        {
          "internalType": "contract IFileRegistry",
          "name": "",
          "type": "address"
        }
      ],
      "stateMutability": "view",
      "type": "function"
    },
    {
      "inputs": [
        {
          "internalType": "address",
          "name": "hospitalAddress",
          "type": "address"
        }
      ],
      "name": "getAccessList",
      "outputs": [
        {
          "internalType": "string[]",
          "name": "keys",
          "type": "string[]"
        },
        {
          "internalType": "uint256[]",
          "name": "deadlines",
          "type": "uint256[]"
        }
      ],
      "stateMutability": "view",
      "type": "function"
    },
    {
      "inputs": [
        {
          "internalType": "address",
          "name": "hospitalAddress",
          "type": "address"
        }
      ],
      "name": "getAccessType",
      "outputs": [
        {
          "internalType": "uint256",
          "name": "",
          "type": "uint256"
        }
      ],
      "stateMutability": "view",
      "type": "function"
    },
    {
      "inputs": [
        {
          "internalType": "address",
          "name": "hospitalAddress",
          "type": "address"
        },
        {
          "internalType": "enum AccessControlContract.AccessType",
          "name": "accessType",
          "type": "uint8"
        },
        {
          "internalType": "string[]",
          "name": "fileList",
          "type": "string[]"
        },
        {
          "internalType": "string[]",
          "name": "keyList",
          "type": "string[]"
        },
        {
          "internalType": "uint256",
          "name": "deadline",
          "type": "uint256"
        }
      ],
      "name": "grantAccess",
      "outputs": [
        {
          "internalType": "bool",
          "name": "",
          "type": "bool"
        }
      ],
      "stateMutability": "nonpayable",
      "type": "function"
    },
    {
      "inputs": [
        {
          "internalType": "uint256",
          "name": "requestId",
          "type": "uint256"
        },
        {
          "internalType": "string[]",
          "name": "keyList",
          "type": "string[]"
        }
      ],
      "name": "processRequest",
      "outputs": [
        {
          "internalType": "bool",
          "name": "",
          "type": "bool"
        }
      ],
      "stateMutability": "nonpayable",
      "type": "function"
    },
    {
      "inputs": [
        {
          "internalType": "address",
          "name": "hospitalAddress",
          "type": "address"
        },
        {
          "internalType": "string[]",
          "name": "list",
          "type": "string[]"
        }
      ],
      "name": "removeAccess",
      "outputs": [],
      "stateMutability": "nonpayable",
      "type": "function"
    },
    {
      "inputs": [
        {
          "internalType": "address",
          "name": "hospitalAddress",
          "type": "address"
        }
      ],
      "name": "removeAllAcess",
      "outputs": [],
      "stateMutability": "nonpayable",
      "type": "function"
    },
    {
      "inputs": [],
      "name": "requestContract",
      "outputs": [
        {
          "internalType": "contract IRequestContract",
          "name": "",
          "type": "address"
        }
      ],
      "stateMutability": "view",
      "type": "function"
    },
    {
      "inputs": [
        {
          "internalType": "address",
          "name": "patient",
          "type": "address"
        },
        {
          "internalType": "address",
          "name": "hospital",
          "type": "address"
        },
        {
          "internalType": "string[]",
          "name": "fileHashes",
          "type": "string[]"
        }
      ],
      "name": "verifyFileAccess",
      "outputs": [
        {
          "internalType": "bool",
          "name": "",
          "type": "bool"
        }
      ],
      "stateMutability": "view",
      "type": "function"
    },
    {
      "inputs": [
        {
          "internalType": "address",
          "name": "patient",
          "type": "address"
        },
        {
          "internalType": "address",
          "name": "hospital",
          "type": "address"
        }
      ],
      "name": "verifyFileWriteAccess",
      "outputs": [
        {
          "internalType": "bool",
          "name": "",
          "type": "bool"
        }
      ],
      "stateMutability": "view",
      "type": "function"
    }
  ],
  "bytecode": "0x608060405234801561001057600080fd5b506040516131213803806131218339818101604052810190610032919061011d565b816000806101000a81548173ffffffffffffffffffffffffffffffffffffffff021916908373ffffffffffffffffffffffffffffffffffffffff16021790555080600160006101000a81548173ffffffffffffffffffffffffffffffffffffffff021916908373ffffffffffffffffffffffffffffffffffffffff160217905550505061015d565b600080fd5b600073ffffffffffffffffffffffffffffffffffffffff82169050919050565b60006100ea826100bf565b9050919050565b6100fa816100df565b811461010557600080fd5b50565b600081519050610117816100f1565b92915050565b60008060408385031215610134576101336100ba565b5b600061014285828601610108565b925050602061015385828601610108565b9150509250929050565b612fb58061016c6000396000f3fe608060405234801561001057600080fd5b50600436106100a95760003560e01c80635276b263116100715780635276b2631461018c57806365b658e6146101aa57806380efcb3c146101c657806380f840a3146101f7578063f2e81ba714610213578063fd1af57114610243576100a9565b8063086dfcc4146100ae5780630da583f6146100de578063288338a91461010e578063354f83161461012c5780633a511a7c1461015c575b600080fd5b6100c860048036038101906100c39190611acc565b61025f565b6040516100d59190611b12565b60405180910390f35b6100f860048036038101906100f39190611b2d565b61030c565b6040516101059190611b88565b60405180910390f35b610116610435565b6040516101239190611c02565b60405180910390f35b61014660048036038101906101419190611e49565b610459565b6040516101539190611b88565b60405180910390f35b61017660048036038101906101719190611ee4565b610665565b6040516101839190611b88565b60405180910390f35b61019461092e565b6040516101a19190611f61565b60405180910390f35b6101c460048036038101906101bf9190611f7c565b610954565b005b6101e060048036038101906101db9190611acc565b610be2565b6040516101ee9291906121d7565b60405180910390f35b610211600480360381019061020c9190611acc565b610e93565b005b61022d60048036038101906102289190612233565b611228565b60405161023a9190611b88565b60405180910390f35b61025d60048036038101906102589190611acc565b611682565b005b600080600360003373ffffffffffffffffffffffffffffffffffffffff1673ffffffffffffffffffffffffffffffffffffffff16815260200190815260200160002060008473ffffffffffffffffffffffffffffffffffffffff1673ffffffffffffffffffffffffffffffffffffffff16815260200190815260200160002090508060000160009054906101000a900460ff166003811115610304576103036122e6565b5b915050919050565b600080600360008573ffffffffffffffffffffffffffffffffffffffff1673ffffffffffffffffffffffffffffffffffffffff16815260200190815260200160002060008473ffffffffffffffffffffffffffffffffffffffff1673ffffffffffffffffffffffffffffffffffffffff16815260200190815260200160002090506000816001015414806103a4575042816001015411155b156103b357600091505061042f565b600260038111156103c7576103c66122e6565b5b8160000160009054906101000a900460ff1660038111156103eb576103ea6122e6565b5b148061042b5750600380811115610405576104046122e6565b5b8160000160009054906101000a900460ff166003811115610429576104286122e6565b5b145b9150505b92915050565b60008054906101000a900473ffffffffffffffffffffffffffffffffffffffff1681565b600080600360008673ffffffffffffffffffffffffffffffffffffffff1673ffffffffffffffffffffffffffffffffffffffff16815260200190815260200160002060008573ffffffffffffffffffffffffffffffffffffffff1673ffffffffffffffffffffffffffffffffffffffff168152602001908152602001600020905060008160010154036104f057600091505061065e565b60005b83518110156105e1576000600260008873ffffffffffffffffffffffffffffffffffffffff1673ffffffffffffffffffffffffffffffffffffffff16815260200190815260200160002060008773ffffffffffffffffffffffffffffffffffffffff1673ffffffffffffffffffffffffffffffffffffffff16815260200190815260200160002085838151811061058d5761058c612315565b5b60200260200101516040516105a29190612380565b908152602001604051809103902054905060008114806105c25750428111155b156105d3576000935050505061065e565b5080806001019150506104f3565b50600160038111156105f6576105f56122e6565b5b8160000160009054906101000a900460ff16600381111561061a576106196122e6565b5b148061065a5750600380811115610634576106336122e6565b5b8160000160009054906101000a900460ff166003811115610658576106576122e6565b5b145b9150505b9392505050565b60008060008054906101000a900473ffffffffffffffffffffffffffffffffffffffff1673ffffffffffffffffffffffffffffffffffffffff1663c58343ef856040518263ffffffff1660e01b81526004016106c19190611b12565b600060405180830381865afa1580156106de573d6000803e3d6000fd5b505050506040513d6000823e3d601f19601f820116820180604052508101906107079190612611565b90503373ffffffffffffffffffffffffffffffffffffffff16816040015173ffffffffffffffffffffffffffffffffffffffff161461077b576040517f08c379a0000000000000000000000000000000000000000000000000000000008152600401610772906126dd565b60405180910390fd5b8060c00151156107c0576040517f08c379a00000000000000000000000000000000000000000000000000000000081526004016107b790612749565b60405180910390fd5b6000808260a0015160028111156107da576107d96122e6565b5b036107e85760019050610873565b60018260a001516002811115610801576108006122e6565b5b0361080f5760029050610872565b60028260a001516002811115610828576108276122e6565b5b036108365760039050610871565b6040517f08c379a0000000000000000000000000000000000000000000000000000000008152600401610868906127b5565b60405180910390fd5b5b5b600061088e8360200151838560600151888760800151611228565b905080156109225760008054906101000a900473ffffffffffffffffffffffffffffffffffffffff1673ffffffffffffffffffffffffffffffffffffffff166327b9c257876040518263ffffffff1660e01b81526004016108ef9190611b12565b600060405180830381600087803b15801561090957600080fd5b505af115801561091d573d6000803e3d6000fd5b505050505b80935050505092915050565b600160009054906101000a900473ffffffffffffffffffffffffffffffffffffffff1681565b6000600360003373ffffffffffffffffffffffffffffffffffffffff1673ffffffffffffffffffffffffffffffffffffffff16815260200190815260200160002060008473ffffffffffffffffffffffffffffffffffffffff1673ffffffffffffffffffffffffffffffffffffffff168152602001908152602001600020905060005b8251811015610b5f576000600260003373ffffffffffffffffffffffffffffffffffffffff1673ffffffffffffffffffffffffffffffffffffffff16815260200190815260200160002060008673ffffffffffffffffffffffffffffffffffffffff1673ffffffffffffffffffffffffffffffffffffffff168152602001908152602001600020848381518110610a7157610a70612315565b5b6020026020010151604051610a869190612380565b90815260200160405180910390205414610b525742600260003373ffffffffffffffffffffffffffffffffffffffff1673ffffffffffffffffffffffffffffffffffffffff16815260200190815260200160002060008673ffffffffffffffffffffffffffffffffffffffff1673ffffffffffffffffffffffffffffffffffffffff168152602001908152602001600020848381518110610b2a57610b29612315565b5b6020026020010151604051610b3f9190612380565b9081526020016040518091039020819055505b80806001019150506109d7565b50620d2f0042610b6f9190612804565b81600301541015610b8d57610b8383610e93565b4281600301819055505b3373ffffffffffffffffffffffffffffffffffffffff167f26855bbb21b61e0cc5bb55908932c9f7e74b02d25e3867f28152a06362915dd68484604051610bd5929190612847565b60405180910390a2505050565b6060806000600360003373ffffffffffffffffffffffffffffffffffffffff1673ffffffffffffffffffffffffffffffffffffffff16815260200190815260200160002060008573ffffffffffffffffffffffffffffffffffffffff1673ffffffffffffffffffffffffffffffffffffffff16815260200190815260200160002090506000816002018054905067ffffffffffffffff811115610c8857610c87611c33565b5b604051908082528060200260200182016040528015610cb65781602001602082028036833780820191505090505b50905060005b8260020180549050811015610daf57600260003373ffffffffffffffffffffffffffffffffffffffff1673ffffffffffffffffffffffffffffffffffffffff16815260200190815260200160002060008773ffffffffffffffffffffffffffffffffffffffff1673ffffffffffffffffffffffffffffffffffffffff168152602001908152602001600020836002018281548110610d5d57610d5c612315565b5b90600052602060002001604051610d74919061296f565b908152602001604051809103902054828281518110610d9657610d95612315565b5b6020026020010181815250508080600101915050610cbc565b50816002018181805480602002602001604051908101604052809291908181526020016000905b82821015610e82578382906000526020600020018054610df5906128a6565b80601f0160208091040260200160405190810160405280929190818152602001828054610e21906128a6565b8015610e6e5780601f10610e4357610100808354040283529160200191610e6e565b820191906000526020600020905b815481529060010190602001808311610e5157829003601f168201915b505050505081526020019060010190610dd6565b505050509150935093505050915091565b6000600360003373ffffffffffffffffffffffffffffffffffffffff1673ffffffffffffffffffffffffffffffffffffffff16815260200190815260200160002060008373ffffffffffffffffffffffffffffffffffffffff1673ffffffffffffffffffffffffffffffffffffffff16815260200190815260200160002090506000805b82600201805490508210156111c8576000836002018381548110610f3e57610f3d612315565b5b906000526020600020018054610f53906128a6565b80601f0160208091040260200160405190810160405280929190818152602001828054610f7f906128a6565b8015610fcc5780601f10610fa157610100808354040283529160200191610fcc565b820191906000526020600020905b815481529060010190602001808311610faf57829003601f168201915b5050505050905042600260003373ffffffffffffffffffffffffffffffffffffffff1673ffffffffffffffffffffffffffffffffffffffff16815260200190815260200160002060008773ffffffffffffffffffffffffffffffffffffffff1673ffffffffffffffffffffffffffffffffffffffff1681526020019081526020016000208260405161105e9190612380565b908152602001604051809103902054116111b357836002016001856002018054905061108a9190612804565b8154811061109b5761109a612315565b5b906000526020600020018460020184815481106110bb576110ba612315565b5b9060005260206000200190816110d19190612b3e565b50836002018054806110e6576110e5612c26565b5b60019003818190600052602060002001600061110291906119b8565b9055600260003373ffffffffffffffffffffffffffffffffffffffff1673ffffffffffffffffffffffffffffffffffffffff16815260200190815260200160002060008673ffffffffffffffffffffffffffffffffffffffff1673ffffffffffffffffffffffffffffffffffffffff1681526020019081526020016000208160405161118e9190612380565b90815260200160405180910390206000905581806111ab90612c55565b9250506111c2565b82806111be90612c55565b9350505b50610f17565b6000811115611222573373ffffffffffffffffffffffffffffffffffffffff167f9554576015fa303480c124f02ddaf6711994fdf4eeff20e8825dc5a20004afe38583604051611219929190612c9d565b60405180910390a25b50505050565b600080600360003373ffffffffffffffffffffffffffffffffffffffff1673ffffffffffffffffffffffffffffffffffffffff16815260200190815260200160002060008873ffffffffffffffffffffffffffffffffffffffff1673ffffffffffffffffffffffffffffffffffffffff1681526020019081526020016000209050858160000160006101000a81548160ff021916908360038111156112d0576112cf6122e6565b5b0217905550428160010181905550600260038111156112f2576112f16122e6565b5b866003811115611305576113046122e6565b5b1480611334575060038081111561131f5761131e6122e6565b5b866003811115611332576113316122e6565b5b145b1561134e5782426113459190612cc6565b81600101819055505b6000816003015403611364574281600301819055505b60005b855181101561154b576000600260003373ffffffffffffffffffffffffffffffffffffffff1673ffffffffffffffffffffffffffffffffffffffff16815260200190815260200160002060008a73ffffffffffffffffffffffffffffffffffffffff1673ffffffffffffffffffffffffffffffffffffffff16815260200190815260200160002087838151811061140157611400612315565b5b60200260200101516040516114169190612380565b9081526020016040518091039020540361147c578160020186828151811061144157611440612315565b5b602002602001015190806001815401808255809150506001900390600052602060002001600090919091909150908161147a9190612cfa565b505b83426114889190612cc6565b600260003373ffffffffffffffffffffffffffffffffffffffff1673ffffffffffffffffffffffffffffffffffffffff16815260200190815260200160002060008a73ffffffffffffffffffffffffffffffffffffffff1673ffffffffffffffffffffffffffffffffffffffff16815260200190815260200160002087838151811061151757611516612315565b5b602002602001015160405161152c9190612380565b9081526020016040518091039020819055508080600101915050611367565b50600160009054906101000a900473ffffffffffffffffffffffffffffffffffffffff1673ffffffffffffffffffffffffffffffffffffffff16636f0152c18887876040518463ffffffff1660e01b81526004016115ab93929190612dcc565b6020604051808303816000875af11580156115ca573d6000803e3d6000fd5b505050506040513d601f19601f820116820180604052508101906115ee9190612e11565b503373ffffffffffffffffffffffffffffffffffffffff167fbdc91128a7d308427397ab43560aaf95922df7134706c153721ef0d299074cfe888888856001015460405161163f9493929190612e86565b60405180910390a2620d2f00426116569190612804565b816003015410156116745761166a87610e93565b4281600301819055505b600191505095945050505050565b6000600360003373ffffffffffffffffffffffffffffffffffffffff1673ffffffffffffffffffffffffffffffffffffffff16815260200190815260200160002060008373ffffffffffffffffffffffffffffffffffffffff1673ffffffffffffffffffffffffffffffffffffffff16815260200190815260200160002090506000816001015411611749576040517f08c379a000000000000000000000000000000000000000000000000000000000815260040161174090612f44565b60405180910390fd5b60005b81600201805490508110156118b257600082600201828154811061177357611772612315565b5b906000526020600020018054611788906128a6565b80601f01602080910402602001604051908101604052809291908181526020018280546117b4906128a6565b80156118015780601f106117d657610100808354040283529160200191611801565b820191906000526020600020905b8154815290600101906020018083116117e457829003601f168201915b50505050509050600260003373ffffffffffffffffffffffffffffffffffffffff1673ffffffffffffffffffffffffffffffffffffffff16815260200190815260200160002060008573ffffffffffffffffffffffffffffffffffffffff1673ffffffffffffffffffffffffffffffffffffffff168152602001908152602001600020816040516118929190612380565b90815260200160405180910390206000905550808060010191505061174c565b503373ffffffffffffffffffffffffffffffffffffffff167f9b2ad4b3c5604592e6cb5d77878ce03e7efc870112c5606a54f4517e24fc2a0e836040516118f99190612f64565b60405180910390a2600360003373ffffffffffffffffffffffffffffffffffffffff1673ffffffffffffffffffffffffffffffffffffffff16815260200190815260200160002060008373ffffffffffffffffffffffffffffffffffffffff1673ffffffffffffffffffffffffffffffffffffffff168152602001908152602001600020600080820160006101000a81549060ff021916905560018201600090556002820160006119aa91906119f8565b600382016000905550505050565b5080546119c4906128a6565b6000825580601f106119d657506119f5565b601f0160209004906000526020600020908101906119f49190611a19565b5b50565b5080546000825590600052602060002090810190611a169190611a36565b50565b5b80821115611a32576000816000905550600101611a1a565b5090565b5b80821115611a565760008181611a4d91906119b8565b50600101611a37565b5090565b6000604051905090565b600080fd5b600080fd5b600073ffffffffffffffffffffffffffffffffffffffff82169050919050565b6000611a9982611a6e565b9050919050565b611aa981611a8e565b8114611ab457600080fd5b50565b600081359050611ac681611aa0565b92915050565b600060208284031215611ae257611ae1611a64565b5b6000611af084828501611ab7565b91505092915050565b6000819050919050565b611b0c81611af9565b82525050565b6000602082019050611b276000830184611b03565b92915050565b60008060408385031215611b4457611b43611a64565b5b6000611b5285828601611ab7565b9250506020611b6385828601611ab7565b9150509250929050565b60008115159050919050565b611b8281611b6d565b82525050565b6000602082019050611b9d6000830184611b79565b92915050565b6000819050919050565b6000611bc8611bc3611bbe84611a6e565b611ba3565b611a6e565b9050919050565b6000611bda82611bad565b9050919050565b6000611bec82611bcf565b9050919050565b611bfc81611be1565b82525050565b6000602082019050611c176000830184611bf3565b92915050565b600080fd5b6000601f19601f8301169050919050565b7f4e487b7100000000000000000000000000000000000000000000000000000000600052604160045260246000fd5b611c6b82611c22565b810181811067ffffffffffffffff82111715611c8a57611c89611c33565b5b80604052505050565b6000611c9d611a5a565b9050611ca98282611c62565b919050565b600067ffffffffffffffff821115611cc957611cc8611c33565b5b602082029050602081019050919050565b600080fd5b600080fd5b600067ffffffffffffffff821115611cff57611cfe611c33565b5b611d0882611c22565b9050602081019050919050565b82818337600083830152505050565b6000611d37611d3284611ce4565b611c93565b905082815260208101848484011115611d5357611d52611cdf565b5b611d5e848285611d15565b509392505050565b600082601f830112611d7b57611d7a611c1d565b5b8135611d8b848260208601611d24565b91505092915050565b6000611da7611da284611cae565b611c93565b90508083825260208201905060208402830185811115611dca57611dc9611cda565b5b835b81811015611e1157803567ffffffffffffffff811115611def57611dee611c1d565b5b808601611dfc8982611d66565b85526020850194505050602081019050611dcc565b5050509392505050565b600082601f830112611e3057611e2f611c1d565b5b8135611e40848260208601611d94565b91505092915050565b600080600060608486031215611e6257611e61611a64565b5b6000611e7086828701611ab7565b9350506020611e8186828701611ab7565b925050604084013567ffffffffffffffff811115611ea257611ea1611a69565b5b611eae86828701611e1b565b9150509250925092565b611ec181611af9565b8114611ecc57600080fd5b50565b600081359050611ede81611eb8565b92915050565b60008060408385031215611efb57611efa611a64565b5b6000611f0985828601611ecf565b925050602083013567ffffffffffffffff811115611f2a57611f29611a69565b5b611f3685828601611e1b565b9150509250929050565b6000611f4b82611bcf565b9050919050565b611f5b81611f40565b82525050565b6000602082019050611f766000830184611f52565b92915050565b60008060408385031215611f9357611f92611a64565b5b6000611fa185828601611ab7565b925050602083013567ffffffffffffffff811115611fc257611fc1611a69565b5b611fce85828601611e1b565b9150509250929050565b600081519050919050565b600082825260208201905092915050565b6000819050602082019050919050565b600081519050919050565b600082825260208201905092915050565b60005b8381101561203e578082015181840152602081019050612023565b60008484015250505050565b600061205582612004565b61205f818561200f565b935061206f818560208601612020565b61207881611c22565b840191505092915050565b600061208f838361204a565b905092915050565b6000602082019050919050565b60006120af82611fd8565b6120b98185611fe3565b9350836020820285016120cb85611ff4565b8060005b8581101561210757848403895281516120e88582612083565b94506120f383612097565b925060208a019950506001810190506120cf565b50829750879550505050505092915050565b600081519050919050565b600082825260208201905092915050565b6000819050602082019050919050565b61214e81611af9565b82525050565b60006121608383612145565b60208301905092915050565b6000602082019050919050565b600061218482612119565b61218e8185612124565b935061219983612135565b8060005b838110156121ca5781516121b18882612154565b97506121bc8361216c565b92505060018101905061219d565b5085935050505092915050565b600060408201905081810360008301526121f181856120a4565b905081810360208301526122058184612179565b90509392505050565b6004811061221b57600080fd5b50565b60008135905061222d8161220e565b92915050565b600080600080600060a0868803121561224f5761224e611a64565b5b600061225d88828901611ab7565b955050602061226e8882890161221e565b945050604086013567ffffffffffffffff81111561228f5761228e611a69565b5b61229b88828901611e1b565b935050606086013567ffffffffffffffff8111156122bc576122bb611a69565b5b6122c888828901611e1b565b92505060806122d988828901611ecf565b9150509295509295909350565b7f4e487b7100000000000000000000000000000000000000000000000000000000600052602160045260246000fd5b7f4e487b7100000000000000000000000000000000000000000000000000000000600052603260045260246000fd5b600081905092915050565b600061235a82612004565b6123648185612344565b9350612374818560208601612020565b80840191505092915050565b600061238c828461234f565b915081905092915050565b600080fd5b600080fd5b6000815190506123b081611eb8565b92915050565b6000815190506123c581611aa0565b92915050565b60006123de6123d984611ce4565b611c93565b9050828152602081018484840111156123fa576123f9611cdf565b5b612405848285612020565b509392505050565b600082601f83011261242257612421611c1d565b5b81516124328482602086016123cb565b91505092915050565b600061244e61244984611cae565b611c93565b9050808382526020820190506020840283018581111561247157612470611cda565b5b835b818110156124b857805167ffffffffffffffff81111561249657612495611c1d565b5b8086016124a3898261240d565b85526020850194505050602081019050612473565b5050509392505050565b600082601f8301126124d7576124d6611c1d565b5b81516124e784826020860161243b565b91505092915050565b600381106124fd57600080fd5b50565b60008151905061250f816124f0565b92915050565b61251e81611b6d565b811461252957600080fd5b50565b60008151905061253b81612515565b92915050565b600060e0828403121561255757612556612397565b5b61256160e0611c93565b90506000612571848285016123a1565b6000830152506020612585848285016123b6565b6020830152506040612599848285016123b6565b604083015250606082015167ffffffffffffffff8111156125bd576125bc61239c565b5b6125c9848285016124c2565b60608301525060806125dd848285016123a1565b60808301525060a06125f184828501612500565b60a08301525060c06126058482850161252c565b60c08301525092915050565b60006020828403121561262757612626611a64565b5b600082015167ffffffffffffffff81111561264557612644611a69565b5b61265184828501612541565b91505092915050565b600082825260208201905092915050565b7f4f6e6c79207468652074617267657465642070617469656e742063616e20707260008201527f6f63657373207468697320726571756573740000000000000000000000000000602082015250565b60006126c760328361265a565b91506126d28261266b565b604082019050919050565b600060208201905081810360008301526126f6816126ba565b9050919050565b7f5265717565737420616c72656164792070726f63657373656400000000000000600082015250565b600061273360198361265a565b915061273e826126fd565b602082019050919050565b6000602082019050818103600083015261276281612726565b9050919050565b7f496e76616c696420616363657373207479706500000000000000000000000000600082015250565b600061279f60138361265a565b91506127aa82612769565b602082019050919050565b600060208201905081810360008301526127ce81612792565b9050919050565b7f4e487b7100000000000000000000000000000000000000000000000000000000600052601160045260246000fd5b600061280f82611af9565b915061281a83611af9565b9250828203905081811115612832576128316127d5565b5b92915050565b61284181611a8e565b82525050565b600060408201905061285c6000830185612838565b818103602083015261286e81846120a4565b90509392505050565b7f4e487b7100000000000000000000000000000000000000000000000000000000600052602260045260246000fd5b600060028204905060018216806128be57607f821691505b6020821081036128d1576128d0612877565b5b50919050565b60008190508160005260206000209050919050565b600081546128f9816128a6565b6129038186612344565b9450600182166000811461291e576001811461293357612966565b60ff1983168652811515820286019350612966565b61293c856128d7565b60005b8381101561295e5781548189015260018201915060208101905061293f565b838801955050505b50505092915050565b600061297b82846128ec565b915081905092915050565b600081549050612995816128a6565b9050919050565b60008190508160005260206000209050919050565b60006020601f8301049050919050565b600082821b905092915050565b6000600883026129fe7fffffffffffffffffffffffffffffffffffffffffffffffffffffffffffffffff826129c1565b612a0886836129c1565b95508019841693508086168417925050509392505050565b6000612a3b612a36612a3184611af9565b611ba3565b611af9565b9050919050565b6000819050919050565b612a5583612a20565b612a69612a6182612a42565b8484546129ce565b825550505050565b600090565b612a7e612a71565b612a89818484612a4c565b505050565b5b81811015612aad57612aa2600082612a76565b600181019050612a8f565b5050565b601f821115612af257612ac3816128d7565b612acc846129b1565b81016020851015612adb578190505b612aef612ae7856129b1565b830182612a8e565b50505b505050565b600082821c905092915050565b6000612b1560001984600802612af7565b1980831691505092915050565b6000612b2e8383612b04565b9150826002028217905092915050565b818103612b4c575050612c24565b612b5582612986565b67ffffffffffffffff811115612b6e57612b6d611c33565b5b612b7882546128a6565b612b83828285612ab1565b6000601f831160018114612bb25760008415612ba0578287015490505b612baa8582612b22565b865550612c1d565b601f198416612bc08761299c565b9650612bcb866128d7565b60005b82811015612bf357848901548255600182019150600185019450602081019050612bce565b86831015612c105784890154612c0c601f891682612b04565b8355505b6001600288020188555050505b5050505050505b565b7f4e487b7100000000000000000000000000000000000000000000000000000000600052603160045260246000fd5b6000612c6082611af9565b91507fffffffffffffffffffffffffffffffffffffffffffffffffffffffffffffffff8203612c9257612c916127d5565b5b600182019050919050565b6000604082019050612cb26000830185612838565b612cbf6020830184611b03565b9392505050565b6000612cd182611af9565b9150612cdc83611af9565b9250828201905080821115612cf457612cf36127d5565b5b92915050565b612d0382612004565b67ffffffffffffffff811115612d1c57612d1b611c33565b5b612d2682546128a6565b612d31828285612ab1565b600060209050601f831160018114612d645760008415612d52578287015190505b612d5c8582612b22565b865550612dc4565b601f198416612d72866128d7565b60005b82811015612d9a57848901518255600182019150602085019450602081019050612d75565b86831015612db75784890151612db3601f891682612b04565b8355505b6001600288020188555050505b505050505050565b6000606082019050612de16000830186612838565b8181036020830152612df381856120a4565b90508181036040830152612e0781846120a4565b9050949350505050565b600060208284031215612e2757612e26611a64565b5b6000612e358482850161252c565b91505092915050565b60048110612e4f57612e4e6122e6565b5b50565b6000819050612e6082612e3e565b919050565b6000612e7082612e52565b9050919050565b612e8081612e65565b82525050565b6000608082019050612e9b6000830187612838565b612ea86020830186612e77565b8181036040830152612eba81856120a4565b9050612ec96060830184611b03565b95945050505050565b7f4e6f20616363657373207065726d697373696f6e7320657869737420666f722060008201527f7468697320686f73706974616c00000000000000000000000000000000000000602082015250565b6000612f2e602d8361265a565b9150612f3982612ed2565b604082019050919050565b60006020820190508181036000830152612f5d81612f21565b9050919050565b6000602082019050612f796000830184612838565b9291505056fea2646970667358221220ac8e7bb6c241b97666f2eaf23753ab8c9df94b4171d671e8172a25c4a4324f0964736f6c634300081c0033",
  "linkReferences": {},
  "deployedLinkReferences": {}
}