{
  "_format": "hh-sol-artifact-1",
  "contractName": "AccessControlContract",
  "sourceName": "contracts/AccessControl.sol",
  "abi": [
    {
      "inputs": [
        {
          "internalType": "address",
          "name": "_requestContract",
          "type": "address"
        }
      ],
      "stateMutability": "nonpayable",
      "type": "constructor"
    },
    {
      "anonymous": false,
      "inputs": [
        {
          "indexed": true,
          "internalType": "address",
          "name": "patient",
          "type": "address"
        },
        {
          "indexed": false,
          "internalType": "address",
          "name": "hospitalAddress",
          "type": "address"
        },
        {
          "indexed": false,
          "internalType": "enum AccessControlContract.AccessType",
          "name": "accessType",
          "type": "uint8"
        },
        {
          "indexed": false,
          "internalType": "bool",
          "name": "isAll",
          "type": "bool"
        },
        {
          "indexed": false,
          "internalType": "string[]",
          "name": "keys",
          "type": "string[]"
        },
        {
          "indexed": false,
          "internalType": "uint256",
          "name": "deadline",
          "type": "uint256"
        }
      ],
      "name": "AccessGranted",
      "type": "event"
    },
    {
      "anonymous": false,
      "inputs": [
        {
          "indexed": true,
          "internalType": "address",
          "name": "patient",
          "type": "address"
        },
        {
          "indexed": false,
          "internalType": "address",
          "name": "hospitalAddress",
          "type": "address"
        },
        {
          "indexed": false,
          "internalType": "string[]",
          "name": "keys",
          "type": "string[]"
        }
      ],
      "name": "AccessRemoved",
      "type": "event"
    },
    {
      "anonymous": false,
      "inputs": [
        {
          "indexed": true,
          "internalType": "address",
          "name": "patient",
          "type": "address"
        },
        {
          "indexed": false,
          "internalType": "address",
          "name": "hospitalAddress",
          "type": "address"
        }
      ],
      "name": "AllAccessRemoved",
      "type": "event"
    },
    {
      "anonymous": false,
      "inputs": [
        {
          "indexed": true,
          "internalType": "address",
          "name": "patient",
          "type": "address"
        },
        {
          "indexed": false,
          "internalType": "address",
          "name": "hospitalAddress",
          "type": "address"
        },
        {
          "indexed": false,
          "internalType": "uint256",
          "name": "numKeysRemoved",
          "type": "uint256"
        }
      ],
      "name": "ExpiredKeysCleaned",
      "type": "event"
    },
    {
      "inputs": [
        {
          "internalType": "address",
          "name": "hospitalAddress",
          "type": "address"
        }
      ],
      "name": "cleanupExpiredKeys",
      "outputs": [],
      "stateMutability": "nonpayable",
      "type": "function"
    },
    {
      "inputs": [
        {
          "internalType": "address",
          "name": "hospitalAddress",
          "type": "address"
        }
      ],
      "name": "getAccessList",
      "outputs": [
        {
          "internalType": "string[]",
          "name": "keys",
          "type": "string[]"
        },
        {
          "internalType": "uint256[]",
          "name": "deadlines",
          "type": "uint256[]"
        }
      ],
      "stateMutability": "view",
      "type": "function"
    },
    {
      "inputs": [
        {
          "internalType": "address",
          "name": "hospitalAddress",
          "type": "address"
        }
      ],
      "name": "getAccessType",
      "outputs": [
        {
          "internalType": "uint256",
          "name": "",
          "type": "uint256"
        }
      ],
      "stateMutability": "view",
      "type": "function"
    },
    {
      "inputs": [
        {
          "internalType": "address",
          "name": "hospitalAddress",
          "type": "address"
        },
        {
          "internalType": "enum AccessControlContract.AccessType",
          "name": "accessType",
          "type": "uint8"
        },
        {
          "internalType": "bool",
          "name": "isAll",
          "type": "bool"
        },
        {
          "internalType": "string[]",
          "name": "fileList",
          "type": "string[]"
        },
        {
          "internalType": "uint256",
          "name": "deadline",
          "type": "uint256"
        }
      ],
      "name": "grantAccess",
      "outputs": [
        {
          "internalType": "bool",
          "name": "",
          "type": "bool"
        }
      ],
      "stateMutability": "nonpayable",
      "type": "function"
    },
    {
      "inputs": [
        {
          "internalType": "uint256",
          "name": "requestId",
          "type": "uint256"
        }
      ],
      "name": "processRequest",
      "outputs": [
        {
          "internalType": "bool",
          "name": "",
          "type": "bool"
        }
      ],
      "stateMutability": "nonpayable",
      "type": "function"
    },
    {
      "inputs": [
        {
          "internalType": "address",
          "name": "hospitalAddress",
          "type": "address"
        },
        {
          "internalType": "string[]",
          "name": "list",
          "type": "string[]"
        }
      ],
      "name": "removeAccess",
      "outputs": [],
      "stateMutability": "nonpayable",
      "type": "function"
    },
    {
      "inputs": [
        {
          "internalType": "address",
          "name": "hospitalAddress",
          "type": "address"
        }
      ],
      "name": "removeAllAcess",
      "outputs": [],
      "stateMutability": "nonpayable",
      "type": "function"
    },
    {
      "inputs": [],
      "name": "requestContract",
      "outputs": [
        {
          "internalType": "contract IRequestContract",
          "name": "",
          "type": "address"
        }
      ],
      "stateMutability": "view",
      "type": "function"
    },
    {
      "inputs": [
        {
          "internalType": "address",
          "name": "patient",
          "type": "address"
        },
        {
          "internalType": "address",
          "name": "hospital",
          "type": "address"
        },
        {
          "internalType": "string[]",
          "name": "fileHashes",
          "type": "string[]"
        }
      ],
      "name": "verifyFileAccess",
      "outputs": [
        {
          "internalType": "bool",
          "name": "",
          "type": "bool"
        }
      ],
      "stateMutability": "view",
      "type": "function"
    },
    {
      "inputs": [
        {
          "internalType": "address",
          "name": "patient",
          "type": "address"
        },
        {
          "internalType": "address",
          "name": "hospital",
          "type": "address"
        }
      ],
      "name": "verifyFileWriteAccess",
      "outputs": [
        {
          "internalType": "bool",
          "name": "",
          "type": "bool"
        }
      ],
      "stateMutability": "view",
      "type": "function"
    }
  ],
  "bytecode": "0x608060405234801561001057600080fd5b5060405161300e38038061300e833981810160405281019061003291906100db565b806000806101000a81548173ffffffffffffffffffffffffffffffffffffffff021916908373ffffffffffffffffffffffffffffffffffffffff16021790555050610108565b600080fd5b600073ffffffffffffffffffffffffffffffffffffffff82169050919050565b60006100a88261007d565b9050919050565b6100b88161009d565b81146100c357600080fd5b50565b6000815190506100d5816100af565b92915050565b6000602082840312156100f1576100f0610078565b5b60006100ff848285016100c6565b91505092915050565b612ef7806101176000396000f3fe608060405234801561001057600080fd5b506004361061009e5760003560e01c806380efcb3c1161006657806380efcb3c1461016d57806380f840a31461019e578063b664a9f1146101ba578063c4b02a52146101ea578063fd1af5711461021a5761009e565b8063086dfcc4146100a35780630da583f6146100d3578063288338a914610103578063354f83161461012157806365b658e614610151575b600080fd5b6100bd60048036038101906100b89190611ace565b610236565b6040516100ca9190611b14565b60405180910390f35b6100ed60048036038101906100e89190611b2f565b6102e3565b6040516100fa9190611b8a565b60405180910390f35b61010b61040c565b6040516101189190611c04565b60405180910390f35b61013b60048036038101906101369190611e4b565b610430565b6040516101489190611b8a565b60405180910390f35b61016b60048036038101906101669190611eba565b6106e2565b005b61018760048036038101906101829190611ace565b610970565b604051610195929190612115565b60405180910390f35b6101b860048036038101906101b39190611ace565b610c21565b005b6101d460048036038101906101cf9190612178565b610fb6565b6040516101e19190611b8a565b60405180910390f35b61020460048036038101906101ff91906121f6565b611282565b6040516102119190611b8a565b60405180910390f35b610234600480360381019061022f9190611ace565b611668565b005b600080600260003373ffffffffffffffffffffffffffffffffffffffff1673ffffffffffffffffffffffffffffffffffffffff16815260200190815260200160002060008473ffffffffffffffffffffffffffffffffffffffff1673ffffffffffffffffffffffffffffffffffffffff16815260200190815260200160002090508060000160009054906101000a900460ff1660038111156102db576102da61228d565b5b915050919050565b600080600260008573ffffffffffffffffffffffffffffffffffffffff1673ffffffffffffffffffffffffffffffffffffffff16815260200190815260200160002060008473ffffffffffffffffffffffffffffffffffffffff1673ffffffffffffffffffffffffffffffffffffffff168152602001908152602001600020905060008160020154148061037b575042816002015411155b1561038a576000915050610406565b6002600381111561039e5761039d61228d565b5b8160000160009054906101000a900460ff1660038111156103c2576103c161228d565b5b148061040257506003808111156103dc576103db61228d565b5b8160000160009054906101000a900460ff166003811115610400576103ff61228d565b5b145b9150505b92915050565b60008054906101000a900473ffffffffffffffffffffffffffffffffffffffff1681565b600080600260008673ffffffffffffffffffffffffffffffffffffffff1673ffffffffffffffffffffffffffffffffffffffff16815260200190815260200160002060008573ffffffffffffffffffffffffffffffffffffffff1673ffffffffffffffffffffffffffffffffffffffff168152602001908152602001600020905060008160010154036104c75760009150506106db565b8060000160019054906101000a900460ff1680156104e85750428160010154115b1561056d57600160038111156105015761050061228d565b5b8160000160009054906101000a900460ff1660038111156105255761052461228d565b5b1480610565575060038081111561053f5761053e61228d565b5b8160000160009054906101000a900460ff1660038111156105635761056261228d565b5b145b9150506106db565b60005b835181101561065e576000600160008873ffffffffffffffffffffffffffffffffffffffff1673ffffffffffffffffffffffffffffffffffffffff16815260200190815260200160002060008773ffffffffffffffffffffffffffffffffffffffff1673ffffffffffffffffffffffffffffffffffffffff16815260200190815260200160002085838151811061060a576106096122bc565b5b602002602001015160405161061f9190612327565b9081526020016040518091039020549050600081148061063f5750428111155b1561065057600093505050506106db565b508080600101915050610570565b50600160038111156106735761067261228d565b5b8160000160009054906101000a900460ff1660038111156106975761069661228d565b5b14806106d757506003808111156106b1576106b061228d565b5b8160000160009054906101000a900460ff1660038111156106d5576106d461228d565b5b145b9150505b9392505050565b6000600260003373ffffffffffffffffffffffffffffffffffffffff1673ffffffffffffffffffffffffffffffffffffffff16815260200190815260200160002060008473ffffffffffffffffffffffffffffffffffffffff1673ffffffffffffffffffffffffffffffffffffffff168152602001908152602001600020905060005b82518110156108ed576000600160003373ffffffffffffffffffffffffffffffffffffffff1673ffffffffffffffffffffffffffffffffffffffff16815260200190815260200160002060008673ffffffffffffffffffffffffffffffffffffffff1673ffffffffffffffffffffffffffffffffffffffff1681526020019081526020016000208483815181106107ff576107fe6122bc565b5b60200260200101516040516108149190612327565b908152602001604051809103902054146108e05742600160003373ffffffffffffffffffffffffffffffffffffffff1673ffffffffffffffffffffffffffffffffffffffff16815260200190815260200160002060008673ffffffffffffffffffffffffffffffffffffffff1673ffffffffffffffffffffffffffffffffffffffff1681526020019081526020016000208483815181106108b8576108b76122bc565b5b60200260200101516040516108cd9190612327565b9081526020016040518091039020819055505b8080600101915050610765565b506283d600426108fd919061236d565b8160040154101561091b5761091183610c21565b4281600401819055505b3373ffffffffffffffffffffffffffffffffffffffff167f26855bbb21b61e0cc5bb55908932c9f7e74b02d25e3867f28152a06362915dd684846040516109639291906123b0565b60405180910390a2505050565b6060806000600260003373ffffffffffffffffffffffffffffffffffffffff1673ffffffffffffffffffffffffffffffffffffffff16815260200190815260200160002060008573ffffffffffffffffffffffffffffffffffffffff1673ffffffffffffffffffffffffffffffffffffffff16815260200190815260200160002090506000816003018054905067ffffffffffffffff811115610a1657610a15611c35565b5b604051908082528060200260200182016040528015610a445781602001602082028036833780820191505090505b50905060005b8260030180549050811015610b3d57600160003373ffffffffffffffffffffffffffffffffffffffff1673ffffffffffffffffffffffffffffffffffffffff16815260200190815260200160002060008773ffffffffffffffffffffffffffffffffffffffff1673ffffffffffffffffffffffffffffffffffffffff168152602001908152602001600020836003018281548110610aeb57610aea6122bc565b5b90600052602060002001604051610b0291906124d8565b908152602001604051809103902054828281518110610b2457610b236122bc565b5b6020026020010181815250508080600101915050610a4a565b50816003018181805480602002602001604051908101604052809291908181526020016000905b82821015610c10578382906000526020600020018054610b839061240f565b80601f0160208091040260200160405190810160405280929190818152602001828054610baf9061240f565b8015610bfc5780601f10610bd157610100808354040283529160200191610bfc565b820191906000526020600020905b815481529060010190602001808311610bdf57829003601f168201915b505050505081526020019060010190610b64565b505050509150935093505050915091565b6000600260003373ffffffffffffffffffffffffffffffffffffffff1673ffffffffffffffffffffffffffffffffffffffff16815260200190815260200160002060008373ffffffffffffffffffffffffffffffffffffffff1673ffffffffffffffffffffffffffffffffffffffff16815260200190815260200160002090506000805b8260030180549050821015610f56576000836003018381548110610ccc57610ccb6122bc565b5b906000526020600020018054610ce19061240f565b80601f0160208091040260200160405190810160405280929190818152602001828054610d0d9061240f565b8015610d5a5780601f10610d2f57610100808354040283529160200191610d5a565b820191906000526020600020905b815481529060010190602001808311610d3d57829003601f168201915b5050505050905042600160003373ffffffffffffffffffffffffffffffffffffffff1673ffffffffffffffffffffffffffffffffffffffff16815260200190815260200160002060008773ffffffffffffffffffffffffffffffffffffffff1673ffffffffffffffffffffffffffffffffffffffff16815260200190815260200160002082604051610dec9190612327565b90815260200160405180910390205411610f41578360030160018560030180549050610e18919061236d565b81548110610e2957610e286122bc565b5b90600052602060002001846003018481548110610e4957610e486122bc565b5b906000526020600020019081610e5f91906126a7565b5083600301805480610e7457610e7361278f565b5b600190038181906000526020600020016000610e9091906119ba565b9055600160003373ffffffffffffffffffffffffffffffffffffffff1673ffffffffffffffffffffffffffffffffffffffff16815260200190815260200160002060008673ffffffffffffffffffffffffffffffffffffffff1673ffffffffffffffffffffffffffffffffffffffff16815260200190815260200160002081604051610f1c9190612327565b9081526020016040518091039020600090558180610f39906127be565b925050610f50565b8280610f4c906127be565b9350505b50610ca5565b6000811115610fb0573373ffffffffffffffffffffffffffffffffffffffff167f9554576015fa303480c124f02ddaf6711994fdf4eeff20e8825dc5a20004afe38583604051610fa7929190612806565b60405180910390a25b50505050565b60008060008054906101000a900473ffffffffffffffffffffffffffffffffffffffff1673ffffffffffffffffffffffffffffffffffffffff1663c58343ef846040518263ffffffff1660e01b81526004016110129190611b14565b600060405180830381865afa15801561102f573d6000803e3d6000fd5b505050506040513d6000823e3d601f19601f820116820180604052508101906110589190612aa8565b90503373ffffffffffffffffffffffffffffffffffffffff16816040015173ffffffffffffffffffffffffffffffffffffffff16146110cc576040517f08c379a00000000000000000000000000000000000000000000000000000000081526004016110c390612b74565b60405180910390fd5b8060e0015115611111576040517f08c379a000000000000000000000000000000000000000000000000000000000815260040161110890612be0565b60405180910390fd5b6000808260a00151600281111561112b5761112a61228d565b5b0361113957600190506111c4565b60018260a0015160028111156111525761115161228d565b5b0361116057600290506111c3565b60028260a0015160028111156111795761117861228d565b5b0361118757600390506111c2565b6040517f08c379a00000000000000000000000000000000000000000000000000000000081526004016111b990612c4c565b60405180910390fd5b5b5b60006111e38360200151838560c0015186606001518760800151611282565b905080156112775760008054906101000a900473ffffffffffffffffffffffffffffffffffffffff1673ffffffffffffffffffffffffffffffffffffffff166327b9c257866040518263ffffffff1660e01b81526004016112449190611b14565b600060405180830381600087803b15801561125e57600080fd5b505af1158015611272573d6000803e3d6000fd5b505050505b809350505050919050565b600080600260003373ffffffffffffffffffffffffffffffffffffffff1673ffffffffffffffffffffffffffffffffffffffff16815260200190815260200160002060008873ffffffffffffffffffffffffffffffffffffffff1673ffffffffffffffffffffffffffffffffffffffff1681526020019081526020016000209050858160000160006101000a81548160ff0219169083600381111561132a5761132961228d565b5b0217905550848160000160016101000a81548160ff02191690831515021790555082426113579190612c6c565b8160010181905550600260038111156113735761137261228d565b5b8660038111156113865761138561228d565b5b14806113b557506003808111156113a05761139f61228d565b5b8660038111156113b3576113b261228d565b5b145b156113cf5782426113c69190612c6c565b81600201819055505b60008160040154036113e5574281600401819055505b846115d35760005b84518110156115d1576000600160003373ffffffffffffffffffffffffffffffffffffffff1673ffffffffffffffffffffffffffffffffffffffff16815260200190815260200160002060008a73ffffffffffffffffffffffffffffffffffffffff1673ffffffffffffffffffffffffffffffffffffffff168152602001908152602001600020868381518110611487576114866122bc565b5b602002602001015160405161149c9190612327565b9081526020016040518091039020540361150257816003018582815181106114c7576114c66122bc565b5b60200260200101519080600181540180825580915050600190039060005260206000200160009091909190915090816115009190612ca0565b505b834261150e9190612c6c565b600160003373ffffffffffffffffffffffffffffffffffffffff1673ffffffffffffffffffffffffffffffffffffffff16815260200190815260200160002060008a73ffffffffffffffffffffffffffffffffffffffff1673ffffffffffffffffffffffffffffffffffffffff16815260200190815260200160002086838151811061159d5761159c6122bc565b5b60200260200101516040516115b29190612327565b90815260200160405180910390208190555080806001019150506113ed565b505b3373ffffffffffffffffffffffffffffffffffffffff167fbe163556131e765214f28aab89135caebd09aa36e64e0c5eb479b615fdfb6fb0888888888660010154604051611625959493929190612dba565b60405180910390a26283d6004261163c919061236d565b8160040154101561165a5761165087610c21565b4281600401819055505b600191505095945050505050565b6000600260003373ffffffffffffffffffffffffffffffffffffffff1673ffffffffffffffffffffffffffffffffffffffff16815260200190815260200160002060008373ffffffffffffffffffffffffffffffffffffffff1673ffffffffffffffffffffffffffffffffffffffff1681526020019081526020016000209050600081600101541161172f576040517f08c379a000000000000000000000000000000000000000000000000000000000815260040161172690612e86565b60405180910390fd5b60005b8160030180549050811015611898576000826003018281548110611759576117586122bc565b5b90600052602060002001805461176e9061240f565b80601f016020809104026020016040519081016040528092919081815260200182805461179a9061240f565b80156117e75780601f106117bc576101008083540402835291602001916117e7565b820191906000526020600020905b8154815290600101906020018083116117ca57829003601f168201915b50505050509050600160003373ffffffffffffffffffffffffffffffffffffffff1673ffffffffffffffffffffffffffffffffffffffff16815260200190815260200160002060008573ffffffffffffffffffffffffffffffffffffffff1673ffffffffffffffffffffffffffffffffffffffff168152602001908152602001600020816040516118789190612327565b908152602001604051809103902060009055508080600101915050611732565b503373ffffffffffffffffffffffffffffffffffffffff167f9b2ad4b3c5604592e6cb5d77878ce03e7efc870112c5606a54f4517e24fc2a0e836040516118df9190612ea6565b60405180910390a2600260003373ffffffffffffffffffffffffffffffffffffffff1673ffffffffffffffffffffffffffffffffffffffff16815260200190815260200160002060008373ffffffffffffffffffffffffffffffffffffffff1673ffffffffffffffffffffffffffffffffffffffff168152602001908152602001600020600080820160006101000a81549060ff02191690556000820160016101000a81549060ff0219169055600182016000905560028201600090556003820160006119ac91906119fa565b600482016000905550505050565b5080546119c69061240f565b6000825580601f106119d857506119f7565b601f0160209004906000526020600020908101906119f69190611a1b565b5b50565b5080546000825590600052602060002090810190611a189190611a38565b50565b5b80821115611a34576000816000905550600101611a1c565b5090565b5b80821115611a585760008181611a4f91906119ba565b50600101611a39565b5090565b6000604051905090565b600080fd5b600080fd5b600073ffffffffffffffffffffffffffffffffffffffff82169050919050565b6000611a9b82611a70565b9050919050565b611aab81611a90565b8114611ab657600080fd5b50565b600081359050611ac881611aa2565b92915050565b600060208284031215611ae457611ae3611a66565b5b6000611af284828501611ab9565b91505092915050565b6000819050919050565b611b0e81611afb565b82525050565b6000602082019050611b296000830184611b05565b92915050565b60008060408385031215611b4657611b45611a66565b5b6000611b5485828601611ab9565b9250506020611b6585828601611ab9565b9150509250929050565b60008115159050919050565b611b8481611b6f565b82525050565b6000602082019050611b9f6000830184611b7b565b92915050565b6000819050919050565b6000611bca611bc5611bc084611a70565b611ba5565b611a70565b9050919050565b6000611bdc82611baf565b9050919050565b6000611bee82611bd1565b9050919050565b611bfe81611be3565b82525050565b6000602082019050611c196000830184611bf5565b92915050565b600080fd5b6000601f19601f8301169050919050565b7f4e487b7100000000000000000000000000000000000000000000000000000000600052604160045260246000fd5b611c6d82611c24565b810181811067ffffffffffffffff82111715611c8c57611c8b611c35565b5b80604052505050565b6000611c9f611a5c565b9050611cab8282611c64565b919050565b600067ffffffffffffffff821115611ccb57611cca611c35565b5b602082029050602081019050919050565b600080fd5b600080fd5b600067ffffffffffffffff821115611d0157611d00611c35565b5b611d0a82611c24565b9050602081019050919050565b82818337600083830152505050565b6000611d39611d3484611ce6565b611c95565b905082815260208101848484011115611d5557611d54611ce1565b5b611d60848285611d17565b509392505050565b600082601f830112611d7d57611d7c611c1f565b5b8135611d8d848260208601611d26565b91505092915050565b6000611da9611da484611cb0565b611c95565b90508083825260208201905060208402830185811115611dcc57611dcb611cdc565b5b835b81811015611e1357803567ffffffffffffffff811115611df157611df0611c1f565b5b808601611dfe8982611d68565b85526020850194505050602081019050611dce565b5050509392505050565b600082601f830112611e3257611e31611c1f565b5b8135611e42848260208601611d96565b91505092915050565b600080600060608486031215611e6457611e63611a66565b5b6000611e7286828701611ab9565b9350506020611e8386828701611ab9565b925050604084013567ffffffffffffffff811115611ea457611ea3611a6b565b5b611eb086828701611e1d565b9150509250925092565b60008060408385031215611ed157611ed0611a66565b5b6000611edf85828601611ab9565b925050602083013567ffffffffffffffff811115611f0057611eff611a6b565b5b611f0c85828601611e1d565b9150509250929050565b600081519050919050565b600082825260208201905092915050565b6000819050602082019050919050565b600081519050919050565b600082825260208201905092915050565b60005b83811015611f7c578082015181840152602081019050611f61565b60008484015250505050565b6000611f9382611f42565b611f9d8185611f4d565b9350611fad818560208601611f5e565b611fb681611c24565b840191505092915050565b6000611fcd8383611f88565b905092915050565b6000602082019050919050565b6000611fed82611f16565b611ff78185611f21565b93508360208202850161200985611f32565b8060005b8581101561204557848403895281516120268582611fc1565b945061203183611fd5565b925060208a0199505060018101905061200d565b50829750879550505050505092915050565b600081519050919050565b600082825260208201905092915050565b6000819050602082019050919050565b61208c81611afb565b82525050565b600061209e8383612083565b60208301905092915050565b6000602082019050919050565b60006120c282612057565b6120cc8185612062565b93506120d783612073565b8060005b838110156121085781516120ef8882612092565b97506120fa836120aa565b9250506001810190506120db565b5085935050505092915050565b6000604082019050818103600083015261212f8185611fe2565b9050818103602083015261214381846120b7565b90509392505050565b61215581611afb565b811461216057600080fd5b50565b6000813590506121728161214c565b92915050565b60006020828403121561218e5761218d611a66565b5b600061219c84828501612163565b91505092915050565b600481106121b257600080fd5b50565b6000813590506121c4816121a5565b92915050565b6121d381611b6f565b81146121de57600080fd5b50565b6000813590506121f0816121ca565b92915050565b600080600080600060a0868803121561221257612211611a66565b5b600061222088828901611ab9565b9550506020612231888289016121b5565b9450506040612242888289016121e1565b935050606086013567ffffffffffffffff81111561226357612262611a6b565b5b61226f88828901611e1d565b925050608061228088828901612163565b9150509295509295909350565b7f4e487b7100000000000000000000000000000000000000000000000000000000600052602160045260246000fd5b7f4e487b7100000000000000000000000000000000000000000000000000000000600052603260045260246000fd5b600081905092915050565b600061230182611f42565b61230b81856122eb565b935061231b818560208601611f5e565b80840191505092915050565b600061233382846122f6565b915081905092915050565b7f4e487b7100000000000000000000000000000000000000000000000000000000600052601160045260246000fd5b600061237882611afb565b915061238383611afb565b925082820390508181111561239b5761239a61233e565b5b92915050565b6123aa81611a90565b82525050565b60006040820190506123c560008301856123a1565b81810360208301526123d78184611fe2565b90509392505050565b7f4e487b7100000000000000000000000000000000000000000000000000000000600052602260045260246000fd5b6000600282049050600182168061242757607f821691505b60208210810361243a576124396123e0565b5b50919050565b60008190508160005260206000209050919050565b600081546124628161240f565b61246c81866122eb565b94506001821660008114612487576001811461249c576124cf565b60ff19831686528115158202860193506124cf565b6124a585612440565b60005b838110156124c7578154818901526001820191506020810190506124a8565b838801955050505b50505092915050565b60006124e48284612455565b915081905092915050565b6000815490506124fe8161240f565b9050919050565b60008190508160005260206000209050919050565b60006020601f8301049050919050565b600082821b905092915050565b6000600883026125677fffffffffffffffffffffffffffffffffffffffffffffffffffffffffffffffff8261252a565b612571868361252a565b95508019841693508086168417925050509392505050565b60006125a461259f61259a84611afb565b611ba5565b611afb565b9050919050565b6000819050919050565b6125be83612589565b6125d26125ca826125ab565b848454612537565b825550505050565b600090565b6125e76125da565b6125f28184846125b5565b505050565b5b818110156126165761260b6000826125df565b6001810190506125f8565b5050565b601f82111561265b5761262c81612440565b6126358461251a565b81016020851015612644578190505b6126586126508561251a565b8301826125f7565b50505b505050565b600082821c905092915050565b600061267e60001984600802612660565b1980831691505092915050565b6000612697838361266d565b9150826002028217905092915050565b8181036126b557505061278d565b6126be826124ef565b67ffffffffffffffff8111156126d7576126d6611c35565b5b6126e1825461240f565b6126ec82828561261a565b6000601f83116001811461271b5760008415612709578287015490505b612713858261268b565b865550612786565b601f19841661272987612505565b965061273486612440565b60005b8281101561275c57848901548255600182019150600185019450602081019050612737565b868310156127795784890154612775601f89168261266d565b8355505b6001600288020188555050505b5050505050505b565b7f4e487b7100000000000000000000000000000000000000000000000000000000600052603160045260246000fd5b60006127c982611afb565b91507fffffffffffffffffffffffffffffffffffffffffffffffffffffffffffffffff82036127fb576127fa61233e565b5b600182019050919050565b600060408201905061281b60008301856123a1565b6128286020830184611b05565b9392505050565b600080fd5b600080fd5b6000815190506128488161214c565b92915050565b60008151905061285d81611aa2565b92915050565b600061287661287184611ce6565b611c95565b90508281526020810184848401111561289257612891611ce1565b5b61289d848285611f5e565b509392505050565b600082601f8301126128ba576128b9611c1f565b5b81516128ca848260208601612863565b91505092915050565b60006128e66128e184611cb0565b611c95565b9050808382526020820190506020840283018581111561290957612908611cdc565b5b835b8181101561295057805167ffffffffffffffff81111561292e5761292d611c1f565b5b80860161293b89826128a5565b8552602085019450505060208101905061290b565b5050509392505050565b600082601f83011261296f5761296e611c1f565b5b815161297f8482602086016128d3565b91505092915050565b6003811061299557600080fd5b50565b6000815190506129a781612988565b92915050565b6000815190506129bc816121ca565b92915050565b600061010082840312156129d9576129d861282f565b5b6129e4610100611c95565b905060006129f484828501612839565b6000830152506020612a088482850161284e565b6020830152506040612a1c8482850161284e565b604083015250606082015167ffffffffffffffff811115612a4057612a3f612834565b5b612a4c8482850161295a565b6060830152506080612a6084828501612839565b60808301525060a0612a7484828501612998565b60a08301525060c0612a88848285016129ad565b60c08301525060e0612a9c848285016129ad565b60e08301525092915050565b600060208284031215612abe57612abd611a66565b5b600082015167ffffffffffffffff811115612adc57612adb611a6b565b5b612ae8848285016129c2565b91505092915050565b600082825260208201905092915050565b7f4f6e6c79207468652074617267657465642070617469656e742063616e20707260008201527f6f63657373207468697320726571756573740000000000000000000000000000602082015250565b6000612b5e603283612af1565b9150612b6982612b02565b604082019050919050565b60006020820190508181036000830152612b8d81612b51565b9050919050565b7f5265717565737420616c72656164792070726f63657373656400000000000000600082015250565b6000612bca601983612af1565b9150612bd582612b94565b602082019050919050565b60006020820190508181036000830152612bf981612bbd565b9050919050565b7f496e76616c696420616363657373207479706500000000000000000000000000600082015250565b6000612c36601383612af1565b9150612c4182612c00565b602082019050919050565b60006020820190508181036000830152612c6581612c29565b9050919050565b6000612c7782611afb565b9150612c8283611afb565b9250828201905080821115612c9a57612c9961233e565b5b92915050565b612ca982611f42565b67ffffffffffffffff811115612cc257612cc1611c35565b5b612ccc825461240f565b612cd782828561261a565b600060209050601f831160018114612d0a5760008415612cf8578287015190505b612d02858261268b565b865550612d6a565b601f198416612d1886612440565b60005b82811015612d4057848901518255600182019150602085019450602081019050612d1b565b86831015612d5d5784890151612d59601f89168261266d565b8355505b6001600288020188555050505b505050505050565b60048110612d8357612d8261228d565b5b50565b6000819050612d9482612d72565b919050565b6000612da482612d86565b9050919050565b612db481612d99565b82525050565b600060a082019050612dcf60008301886123a1565b612ddc6020830187612dab565b612de96040830186611b7b565b8181036060830152612dfb8185611fe2565b9050612e0a6080830184611b05565b9695505050505050565b7f4e6f20616363657373207065726d697373696f6e7320657869737420666f722060008201527f7468697320686f73706974616c00000000000000000000000000000000000000602082015250565b6000612e70602d83612af1565b9150612e7b82612e14565b604082019050919050565b60006020820190508181036000830152612e9f81612e63565b9050919050565b6000602082019050612ebb60008301846123a1565b9291505056fea2646970667358221220a9435a99ff7e326dd12dae7bc7fcc3196f13dd03f9962b8ed91ea965fa49b6b664736f6c634300081c0033",
  "linkReferences": {},
  "deployedLinkReferences": {}
}