{
  "_format": "hh-sol-artifact-1",
  "contractName": "FileRegistry",
  "sourceName": "contracts/FileRegistry.sol",
  "abi": [
    {
      "inputs": [
        {
          "internalType": "address",
          "name": "entity",
          "type": "address"
        },
        {
          "internalType": "string[]",
          "name": "fileHashes",
          "type": "string[]"
        }
      ],
      "name": "getKeys",
      "outputs": [
        {
          "internalType": "string[]",
          "name": "",
          "type": "string[]"
        }
      ],
      "stateMutability": "view",
      "type": "function"
    }
  ],
  "bytecode": "0x6080604052348015600f57600080fd5b506108568061001f6000396000f3fe608060405234801561001057600080fd5b506004361061002b5760003560e01c8063d962ccf914610030575b600080fd5b61004a600480360381019061004591906104dc565b610060565b6040516100579190610679565b60405180910390f35b60606000825167ffffffffffffffff81111561007f5761007e6102c6565b5b6040519080825280602002602001820160405280156100b257816020015b606081526020019060019003908161009d5790505b50905060005b83518110156102335760008060008773ffffffffffffffffffffffffffffffffffffffff1673ffffffffffffffffffffffffffffffffffffffff1681526020019081526020016000208583815181106101145761011361069b565b5b60200260200101516040516101299190610706565b908152602001604051809103902080546101429061074c565b80601f016020809104026020016040519081016040528092919081815260200182805461016e9061074c565b80156101bb5780601f10610190576101008083540402835291602001916101bb565b820191906000526020600020905b81548152906001019060200180831161019e57829003601f168201915b505050505090506000815111610206576040517f08c379a00000000000000000000000000000000000000000000000000000000081526004016101fd90610800565b60405180910390fd5b8083838151811061021a5761021961069b565b5b60200260200101819052505080806001019150506100b8565b508091505092915050565b6000604051905090565b600080fd5b600080fd5b600073ffffffffffffffffffffffffffffffffffffffff82169050919050565b600061027d82610252565b9050919050565b61028d81610272565b811461029857600080fd5b50565b6000813590506102aa81610284565b92915050565b600080fd5b6000601f19601f8301169050919050565b7f4e487b7100000000000000000000000000000000000000000000000000000000600052604160045260246000fd5b6102fe826102b5565b810181811067ffffffffffffffff8211171561031d5761031c6102c6565b5b80604052505050565b600061033061023e565b905061033c82826102f5565b919050565b600067ffffffffffffffff82111561035c5761035b6102c6565b5b602082029050602081019050919050565b600080fd5b600080fd5b600067ffffffffffffffff821115610392576103916102c6565b5b61039b826102b5565b9050602081019050919050565b82818337600083830152505050565b60006103ca6103c584610377565b610326565b9050828152602081018484840111156103e6576103e5610372565b5b6103f18482856103a8565b509392505050565b600082601f83011261040e5761040d6102b0565b5b813561041e8482602086016103b7565b91505092915050565b600061043a61043584610341565b610326565b9050808382526020820190506020840283018581111561045d5761045c61036d565b5b835b818110156104a457803567ffffffffffffffff811115610482576104816102b0565b5b80860161048f89826103f9565b8552602085019450505060208101905061045f565b5050509392505050565b600082601f8301126104c3576104c26102b0565b5b81356104d3848260208601610427565b91505092915050565b600080604083850312156104f3576104f2610248565b5b60006105018582860161029b565b925050602083013567ffffffffffffffff8111156105225761052161024d565b5b61052e858286016104ae565b9150509250929050565b600081519050919050565b600082825260208201905092915050565b6000819050602082019050919050565b600081519050919050565b600082825260208201905092915050565b60005b8381101561059e578082015181840152602081019050610583565b60008484015250505050565b60006105b582610564565b6105bf818561056f565b93506105cf818560208601610580565b6105d8816102b5565b840191505092915050565b60006105ef83836105aa565b905092915050565b6000602082019050919050565b600061060f82610538565b6106198185610543565b93508360208202850161062b85610554565b8060005b85811015610667578484038952815161064885826105e3565b9450610653836105f7565b925060208a0199505060018101905061062f565b50829750879550505050505092915050565b600060208201905081810360008301526106938184610604565b905092915050565b7f4e487b7100000000000000000000000000000000000000000000000000000000600052603260045260246000fd5b600081905092915050565b60006106e082610564565b6106ea81856106ca565b93506106fa818560208601610580565b80840191505092915050565b600061071282846106d5565b915081905092915050565b7f4e487b7100000000000000000000000000000000000000000000000000000000600052602260045260246000fd5b6000600282049050600182168061076457607f821691505b6020821081036107775761077661071d565b5b50919050565b600082825260208201905092915050565b7f4b6579206e6f7420617661696c61626c6520666f72206f6e65206f72206d6f7260008201527f652066696c657300000000000000000000000000000000000000000000000000602082015250565b60006107ea60278361077d565b91506107f58261078e565b604082019050919050565b60006020820190508181036000830152610819816107dd565b905091905056fea264697066735822122009dfd964443aa9617f9597e1f0d0724ab26d325961172d509bf6ea63028894b064736f6c634300081c0033",
  "linkReferences": {},
  "deployedLinkReferences": {}
}