{
  "_format": "hh-sol-artifact-1",
  "contractName": "FileRegistry",
  "sourceName": "contracts/FileRegistry.sol",
  "abi": [
    {
      "inputs": [],
      "stateMutability": "nonpayable",
      "type": "constructor"
    },
    {
      "inputs": [
        {
          "internalType": "address",
          "name": "entity",
          "type": "address"
        },
        {
          "internalType": "string[]",
          "name": "fileHashes",
          "type": "string[]"
        },
        {
          "internalType": "string[]",
          "name": "keyList",
          "type": "string[]"
        }
      ],
      "name": "addKey",
      "outputs": [
        {
          "internalType": "bool",
          "name": "",
          "type": "bool"
        }
      ],
      "stateMutability": "nonpayable",
      "type": "function"
    },
    {
      "inputs": [
        {
          "internalType": "address",
          "name": "entity",
          "type": "address"
        },
        {
          "internalType": "string[]",
          "name": "fileHashes",
          "type": "string[]"
        }
      ],
      "name": "doesFilesExist",
      "outputs": [
        {
          "internalType": "bool",
          "name": "",
          "type": "bool"
        }
      ],
      "stateMutability": "view",
      "type": "function"
    },
    {
      "inputs": [
        {
          "internalType": "address",
          "name": "entity",
          "type": "address"
        },
        {
          "internalType": "string[]",
          "name": "fileHashes",
          "type": "string[]"
        }
      ],
      "name": "getKeys",
      "outputs": [
        {
          "internalType": "string[]",
          "name": "",
          "type": "string[]"
        }
      ],
      "stateMutability": "view",
      "type": "function"
    },
    {
      "inputs": [
        {
          "internalType": "address[]",
          "name": "_allowedContract",
          "type": "address[]"
        }
      ],
      "name": "setAllowedContract",
      "outputs": [],
      "stateMutability": "nonpayable",
      "type": "function"
    }
  ],
  "bytecode": "0x6080604052348015600f57600080fd5b50336000806101000a81548173ffffffffffffffffffffffffffffffffffffffff021916908373ffffffffffffffffffffffffffffffffffffffff1602179055506113638061005f6000396000f3fe608060405234801561001057600080fd5b506004361061004c5760003560e01c806359a1ffcb146100515780636f0152c114610081578063b7ab7ade146100b1578063d962ccf9146100cd575b600080fd5b61006b60048036038101906100669190610abc565b6100fd565b6040516100789190610b33565b60405180910390f35b61009b60048036038101906100969190610b4e565b61023e565b6040516100a89190610b33565b60405180910390f35b6100cb60048036038101906100c69190610c9c565b6104b0565b005b6100e760048036038101906100e29190610abc565b610558565b6040516100f49190610e26565b60405180910390f35b600080600090505b8251811015610232576000600160008673ffffffffffffffffffffffffffffffffffffffff1673ffffffffffffffffffffffffffffffffffffffff16815260200190815260200160002084838151811061016257610161610e48565b5b60200260200101516040516101779190610eb3565b9081526020016040518091039020805461019090610ef9565b80601f01602080910402602001604051908101604052809291908181526020018280546101bc90610ef9565b80156102095780601f106101de57610100808354040283529160200191610209565b820191906000526020600020905b8154815290600101906020018083116101ec57829003601f168201915b50505050509050600081511161022457600092505050610238565b508080600101915050610105565b50600190505b92915050565b6000806000905060005b6002805490508110156102dc576002818154811061026957610268610e48565b5b9060005260206000200160009054906101000a900473ffffffffffffffffffffffffffffffffffffffff1673ffffffffffffffffffffffffffffffffffffffff163373ffffffffffffffffffffffffffffffffffffffff16036102cf57600191506102dc565b8080600101915050610248565b508061031d576040517f08c379a000000000000000000000000000000000000000000000000000000000815260040161031490610f87565b60405180910390fd5b6000845111801561032f575060008351145b156103d45760005b84518110156103ce57600160008773ffffffffffffffffffffffffffffffffffffffff1673ffffffffffffffffffffffffffffffffffffffff16815260200190815260200160002085828151811061039257610391610e48565b5b60200260200101516040516103a79190610eb3565b908152602001604051809103902060006103c19190610737565b8080600101915050610337565b506104a3565b82518451036104995760005b8451811015610493578381815181106103fc576103fb610e48565b5b6020026020010151600160008873ffffffffffffffffffffffffffffffffffffffff1673ffffffffffffffffffffffffffffffffffffffff16815260200190815260200160002086838151811061045657610455610e48565b5b602002602001015160405161046b9190610eb3565b90815260200160405180910390209081610485919061115d565b5080806001019150506103e0565b506104a2565b600091506104a8565b5b600191505b509392505050565b60008054906101000a900473ffffffffffffffffffffffffffffffffffffffff1673ffffffffffffffffffffffffffffffffffffffff163373ffffffffffffffffffffffffffffffffffffffff161461053e576040517f08c379a00000000000000000000000000000000000000000000000000000000081526004016105359061127b565b60405180910390fd5b8060029080519060200190610554929190610777565b5050565b60606000825167ffffffffffffffff811115610577576105766108a6565b5b6040519080825280602002602001820160405280156105aa57816020015b60608152602001906001900390816105955790505b50905060005b835181101561072c576000600160008773ffffffffffffffffffffffffffffffffffffffff1673ffffffffffffffffffffffffffffffffffffffff16815260200190815260200160002085838151811061060d5761060c610e48565b5b60200260200101516040516106229190610eb3565b9081526020016040518091039020805461063b90610ef9565b80601f016020809104026020016040519081016040528092919081815260200182805461066790610ef9565b80156106b45780601f10610689576101008083540402835291602001916106b4565b820191906000526020600020905b81548152906001019060200180831161069757829003601f168201915b5050505050905060008151116106ff576040517f08c379a00000000000000000000000000000000000000000000000000000000081526004016106f69061130d565b60405180910390fd5b8083838151811061071357610712610e48565b5b60200260200101819052505080806001019150506105b0565b508091505092915050565b50805461074390610ef9565b6000825580601f106107555750610774565b601f0160209004906000526020600020908101906107739190610801565b5b50565b8280548282559060005260206000209081019282156107f0579160200282015b828111156107ef5782518260006101000a81548173ffffffffffffffffffffffffffffffffffffffff021916908373ffffffffffffffffffffffffffffffffffffffff16021790555091602001919060010190610797565b5b5090506107fd9190610801565b5090565b5b8082111561081a576000816000905550600101610802565b5090565b6000604051905090565b600080fd5b600080fd5b600073ffffffffffffffffffffffffffffffffffffffff82169050919050565b600061085d82610832565b9050919050565b61086d81610852565b811461087857600080fd5b50565b60008135905061088a81610864565b92915050565b600080fd5b6000601f19601f8301169050919050565b7f4e487b7100000000000000000000000000000000000000000000000000000000600052604160045260246000fd5b6108de82610895565b810181811067ffffffffffffffff821117156108fd576108fc6108a6565b5b80604052505050565b600061091061081e565b905061091c82826108d5565b919050565b600067ffffffffffffffff82111561093c5761093b6108a6565b5b602082029050602081019050919050565b600080fd5b600080fd5b600067ffffffffffffffff821115610972576109716108a6565b5b61097b82610895565b9050602081019050919050565b82818337600083830152505050565b60006109aa6109a584610957565b610906565b9050828152602081018484840111156109c6576109c5610952565b5b6109d1848285610988565b509392505050565b600082601f8301126109ee576109ed610890565b5b81356109fe848260208601610997565b91505092915050565b6000610a1a610a1584610921565b610906565b90508083825260208201905060208402830185811115610a3d57610a3c61094d565b5b835b81811015610a8457803567ffffffffffffffff811115610a6257610a61610890565b5b808601610a6f89826109d9565b85526020850194505050602081019050610a3f565b5050509392505050565b600082601f830112610aa357610aa2610890565b5b8135610ab3848260208601610a07565b91505092915050565b60008060408385031215610ad357610ad2610828565b5b6000610ae18582860161087b565b925050602083013567ffffffffffffffff811115610b0257610b0161082d565b5b610b0e85828601610a8e565b9150509250929050565b60008115159050919050565b610b2d81610b18565b82525050565b6000602082019050610b486000830184610b24565b92915050565b600080600060608486031215610b6757610b66610828565b5b6000610b758682870161087b565b935050602084013567ffffffffffffffff811115610b9657610b9561082d565b5b610ba286828701610a8e565b925050604084013567ffffffffffffffff811115610bc357610bc261082d565b5b610bcf86828701610a8e565b9150509250925092565b600067ffffffffffffffff821115610bf457610bf36108a6565b5b602082029050602081019050919050565b6000610c18610c1384610bd9565b610906565b90508083825260208201905060208402830185811115610c3b57610c3a61094d565b5b835b81811015610c645780610c50888261087b565b845260208401935050602081019050610c3d565b5050509392505050565b600082601f830112610c8357610c82610890565b5b8135610c93848260208601610c05565b91505092915050565b600060208284031215610cb257610cb1610828565b5b600082013567ffffffffffffffff811115610cd057610ccf61082d565b5b610cdc84828501610c6e565b91505092915050565b600081519050919050565b600082825260208201905092915050565b6000819050602082019050919050565b600081519050919050565b600082825260208201905092915050565b60005b83811015610d4b578082015181840152602081019050610d30565b60008484015250505050565b6000610d6282610d11565b610d6c8185610d1c565b9350610d7c818560208601610d2d565b610d8581610895565b840191505092915050565b6000610d9c8383610d57565b905092915050565b6000602082019050919050565b6000610dbc82610ce5565b610dc68185610cf0565b935083602082028501610dd885610d01565b8060005b85811015610e145784840389528151610df58582610d90565b9450610e0083610da4565b925060208a01995050600181019050610ddc565b50829750879550505050505092915050565b60006020820190508181036000830152610e408184610db1565b905092915050565b7f4e487b7100000000000000000000000000000000000000000000000000000000600052603260045260246000fd5b600081905092915050565b6000610e8d82610d11565b610e978185610e77565b9350610ea7818560208601610d2d565b80840191505092915050565b6000610ebf8284610e82565b915081905092915050565b7f4e487b7100000000000000000000000000000000000000000000000000000000600052602260045260246000fd5b60006002820490506001821680610f1157607f821691505b602082108103610f2457610f23610eca565b5b50919050565b600082825260208201905092915050565b7f4e6f7420616e20616c6c6f77656420636f6e7472616374000000000000000000600082015250565b6000610f71601783610f2a565b9150610f7c82610f3b565b602082019050919050565b60006020820190508181036000830152610fa081610f64565b9050919050565b60008190508160005260206000209050919050565b60006020601f8301049050919050565b600082821b905092915050565b6000600883026110097fffffffffffffffffffffffffffffffffffffffffffffffffffffffffffffffff82610fcc565b6110138683610fcc565b95508019841693508086168417925050509392505050565b6000819050919050565b6000819050919050565b600061105a6110556110508461102b565b611035565b61102b565b9050919050565b6000819050919050565b6110748361103f565b61108861108082611061565b848454610fd9565b825550505050565b600090565b61109d611090565b6110a881848461106b565b505050565b5b818110156110cc576110c1600082611095565b6001810190506110ae565b5050565b601f821115611111576110e281610fa7565b6110eb84610fbc565b810160208510156110fa578190505b61110e61110685610fbc565b8301826110ad565b50505b505050565b600082821c905092915050565b600061113460001984600802611116565b1980831691505092915050565b600061114d8383611123565b9150826002028217905092915050565b61116682610d11565b67ffffffffffffffff81111561117f5761117e6108a6565b5b6111898254610ef9565b6111948282856110d0565b600060209050601f8311600181146111c757600084156111b5578287015190505b6111bf8582611141565b865550611227565b601f1984166111d586610fa7565b60005b828110156111fd578489015182556001820191506020850194506020810190506111d8565b8683101561121a5784890151611216601f891682611123565b8355505b6001600288020188555050505b505050505050565b7f4e6f7420616e206f776e65720000000000000000000000000000000000000000600082015250565b6000611265600c83610f2a565b91506112708261122f565b602082019050919050565b6000602082019050818103600083015261129481611258565b9050919050565b7f4b6579206e6f7420617661696c61626c6520666f72206f6e65206f72206d6f7260008201527f652066696c657300000000000000000000000000000000000000000000000000602082015250565b60006112f7602783610f2a565b91506113028261129b565b604082019050919050565b60006020820190508181036000830152611326816112ea565b905091905056fea26469706673582212208a8dc42072f67681db3f048cfa2250aa0c05ad20f77fd573fdfa4a61e099921664736f6c634300081c0033",
  "linkReferences": {},
  "deployedLinkReferences": {}
}