{
  "_format": "hh-sol-artifact-1",
  "contractName": "Registration",
  "sourceName": "contracts/Registration.sol",
  "abi": [
    {
      "anonymous": false,
      "inputs": [
        {
          "indexed": true,
          "internalType": "address",
          "name": "participantAddress",
          "type": "address"
        },
        {
          "indexed": false,
          "internalType": "string",
          "name": "uniqueId",
          "type": "string"
        },
        {
          "indexed": false,
          "internalType": "string",
          "name": "name",
          "type": "string"
        },
        {
          "indexed": false,
          "internalType": "string",
          "name": "role",
          "type": "string"
        },
        {
          "indexed": false,
          "internalType": "string",
          "name": "publicKey",
          "type": "string"
        }
      ],
      "name": "ParticipantRegistered",
      "type": "event"
    },
    {
      "inputs": [
        {
          "internalType": "address",
          "name": "participantAddress",
          "type": "address"
        }
      ],
      "name": "getParticipantDetails",
      "outputs": [
        {
          "internalType": "string",
          "name": "uniqueId",
          "type": "string"
        },
        {
          "internalType": "string",
          "name": "name",
          "type": "string"
        },
        {
          "internalType": "string",
          "name": "role",
          "type": "string"
        },
        {
          "internalType": "string",
          "name": "publicKey",
          "type": "string"
        }
      ],
      "stateMutability": "view",
      "type": "function"
    },
    {
      "inputs": [
        {
          "internalType": "address",
          "name": "participantAddress",
          "type": "address"
        }
      ],
      "name": "getPublicKey",
      "outputs": [
        {
          "internalType": "string",
          "name": "",
          "type": "string"
        }
      ],
      "stateMutability": "view",
      "type": "function"
    },
    {
      "inputs": [
        {
          "internalType": "address",
          "name": "participantAddress",
          "type": "address"
        }
      ],
      "name": "isParticipantRegistered",
      "outputs": [
        {
          "internalType": "bool",
          "name": "",
          "type": "bool"
        }
      ],
      "stateMutability": "view",
      "type": "function"
    },
    {
      "inputs": [
        {
          "internalType": "address",
          "name": "requester",
          "type": "address"
        },
        {
          "internalType": "string",
          "name": "uid",
          "type": "string"
        }
      ],
      "name": "isValidUid",
      "outputs": [
        {
          "internalType": "bool",
          "name": "",
          "type": "bool"
        }
      ],
      "stateMutability": "view",
      "type": "function"
    },
    {
      "inputs": [
        {
          "internalType": "string",
          "name": "uniqueId",
          "type": "string"
        },
        {
          "internalType": "string",
          "name": "name",
          "type": "string"
        },
        {
          "internalType": "string",
          "name": "role",
          "type": "string"
        },
        {
          "internalType": "string",
          "name": "publicKey",
          "type": "string"
        }
      ],
      "name": "registerParticipant",
      "outputs": [],
      "stateMutability": "nonpayable",
      "type": "function"
    }
  ],
  "bytecode": "0x6080604052348015600f57600080fd5b506118568061001f6000396000f3fe608060405234801561001057600080fd5b50600436106100575760003560e01c806326c351af1461005c57806344e0b8c11461008c5780634a34495f146100bf578063857cdbb8146100ef5780639a7d69701461011f575b600080fd5b61007660048036038101906100719190610e62565b61013b565b6040516100839190610ed9565b60405180910390f35b6100a660048036038101906100a19190610ef4565b6101fd565b6040516100b69493929190610fa0565b60405180910390f35b6100d960048036038101906100d49190610ef4565b610593565b6040516100e69190610ed9565b60405180910390f35b61010960048036038101906101049190610ef4565b6105e9565b6040516101169190611001565b60405180910390f35b61013960048036038101906101349190611023565b610748565b005b6000600160008473ffffffffffffffffffffffffffffffffffffffff1673ffffffffffffffffffffffffffffffffffffffff16815260200190815260200160002060009054906101000a900460ff166101c9576040517f08c379a00000000000000000000000000000000000000000000000000000000081526004016101c090611146565b60405180910390fd5b6002826040516101d991906111a2565b908152602001604051809103902060009054906101000a900460ff16905092915050565b606080606080600160008673ffffffffffffffffffffffffffffffffffffffff1673ffffffffffffffffffffffffffffffffffffffff16815260200190815260200160002060009054906101000a900460ff1661028f576040517f08c379a000000000000000000000000000000000000000000000000000000000815260040161028690611205565b60405180910390fd5b60008060008773ffffffffffffffffffffffffffffffffffffffff1673ffffffffffffffffffffffffffffffffffffffff1681526020019081526020016000206040518060800160405290816000820180546102ea90611254565b80601f016020809104026020016040519081016040528092919081815260200182805461031690611254565b80156103635780601f1061033857610100808354040283529160200191610363565b820191906000526020600020905b81548152906001019060200180831161034657829003601f168201915b5050505050815260200160018201805461037c90611254565b80601f01602080910402602001604051908101604052809291908181526020018280546103a890611254565b80156103f55780601f106103ca576101008083540402835291602001916103f5565b820191906000526020600020905b8154815290600101906020018083116103d857829003601f168201915b505050505081526020016002820160009054906101000a900460ff16600181111561042357610422611285565b5b600181111561043557610434611285565b5b815260200160038201805461044990611254565b80601f016020809104026020016040519081016040528092919081815260200182805461047590611254565b80156104c25780601f10610497576101008083540402835291602001916104c2565b820191906000526020600020905b8154815290600101906020018083116104a557829003601f168201915b505050505081525050905060008060018111156104e2576104e1611285565b5b826040015160018111156104f9576104f8611285565b5b14610539576040518060400160405280600881526020017f686f73706974616c000000000000000000000000000000000000000000000000815250610570565b6040518060400160405280600781526020017f70617469656e74000000000000000000000000000000000000000000000000008152505b905081600001518260200151828460600151955095509550955050509193509193565b6000600160008373ffffffffffffffffffffffffffffffffffffffff1673ffffffffffffffffffffffffffffffffffffffff16815260200190815260200160002060009054906101000a900460ff169050919050565b6060600160008373ffffffffffffffffffffffffffffffffffffffff1673ffffffffffffffffffffffffffffffffffffffff16815260200190815260200160002060009054906101000a900460ff16610677576040517f08c379a000000000000000000000000000000000000000000000000000000000815260040161066e90611205565b60405180910390fd5b6000808373ffffffffffffffffffffffffffffffffffffffff1673ffffffffffffffffffffffffffffffffffffffff16815260200190815260200160002060030180546106c390611254565b80601f01602080910402602001604051908101604052809291908181526020018280546106ef90611254565b801561073c5780601f106107115761010080835404028352916020019161073c565b820191906000526020600020905b81548152906001019060200180831161071f57829003601f168201915b50505050509050919050565b600160003373ffffffffffffffffffffffffffffffffffffffff1673ffffffffffffffffffffffffffffffffffffffff16815260200190815260200160002060009054906101000a900460ff16156107d5576040517f08c379a00000000000000000000000000000000000000000000000000000000081526004016107cc90611300565b60405180910390fd5b60006040516020016107e69061136c565b604051602081830303815290604052805190602001208360405160200161080d91906111a2565b604051602081830303815290604052805190602001200361093b5760009050600073ffffffffffffffffffffffffffffffffffffffff1660038660405161085491906111a2565b908152602001604051809103902060009054906101000a900473ffffffffffffffffffffffffffffffffffffffff1673ffffffffffffffffffffffffffffffffffffffff16146108d9576040517f08c379a00000000000000000000000000000000000000000000000000000000081526004016108d0906113f3565b60405180910390fd5b336003866040516108ea91906111a2565b908152602001604051809103902060006101000a81548173ffffffffffffffffffffffffffffffffffffffff021916908373ffffffffffffffffffffffffffffffffffffffff160217905550610adb565b60405160200161094a9061145f565b604051602081830303815290604052805190602001208360405160200161097191906111a2565b6040516020818303038152906040528051906020012003610a9f5760019050600073ffffffffffffffffffffffffffffffffffffffff166004866040516109b891906111a2565b908152602001604051809103902060009054906101000a900473ffffffffffffffffffffffffffffffffffffffff1673ffffffffffffffffffffffffffffffffffffffff1614610a3d576040517f08c379a0000000000000000000000000000000000000000000000000000000008152600401610a34906114e6565b60405180910390fd5b33600486604051610a4e91906111a2565b908152602001604051809103902060006101000a81548173ffffffffffffffffffffffffffffffffffffffff021916908373ffffffffffffffffffffffffffffffffffffffff160217905550610ada565b6040517f08c379a0000000000000000000000000000000000000000000000000000000008152600401610ad190611578565b60405180910390fd5b5b6040518060800160405280868152602001858152602001826001811115610b0557610b04611285565b5b8152602001838152506000803373ffffffffffffffffffffffffffffffffffffffff1673ffffffffffffffffffffffffffffffffffffffff1681526020019081526020016000206000820151816000019081610b61919061174e565b506020820151816001019081610b77919061174e565b5060408201518160020160006101000a81548160ff02191690836001811115610ba357610ba2611285565b5b02179055506060820151816003019081610bbd919061174e565b5090505060018060003373ffffffffffffffffffffffffffffffffffffffff1673ffffffffffffffffffffffffffffffffffffffff16815260200190815260200160002060006101000a81548160ff0219169083151502179055506001600286604051610c2a91906111a2565b908152602001604051809103902060006101000a81548160ff0219169083151502179055503373ffffffffffffffffffffffffffffffffffffffff167f323a139ae1b28ef0c7b37caaae0c8d17db4d3747f03f3cbdcadd2e569e75bd5f86868686604051610c9b9493929190610fa0565b60405180910390a25050505050565b6000604051905090565b600080fd5b600080fd5b600073ffffffffffffffffffffffffffffffffffffffff82169050919050565b6000610ce982610cbe565b9050919050565b610cf981610cde565b8114610d0457600080fd5b50565b600081359050610d1681610cf0565b92915050565b600080fd5b600080fd5b6000601f19601f8301169050919050565b7f4e487b7100000000000000000000000000000000000000000000000000000000600052604160045260246000fd5b610d6f82610d26565b810181811067ffffffffffffffff82111715610d8e57610d8d610d37565b5b80604052505050565b6000610da1610caa565b9050610dad8282610d66565b919050565b600067ffffffffffffffff821115610dcd57610dcc610d37565b5b610dd682610d26565b9050602081019050919050565b82818337600083830152505050565b6000610e05610e0084610db2565b610d97565b905082815260208101848484011115610e2157610e20610d21565b5b610e2c848285610de3565b509392505050565b600082601f830112610e4957610e48610d1c565b5b8135610e59848260208601610df2565b91505092915050565b60008060408385031215610e7957610e78610cb4565b5b6000610e8785828601610d07565b925050602083013567ffffffffffffffff811115610ea857610ea7610cb9565b5b610eb485828601610e34565b9150509250929050565b60008115159050919050565b610ed381610ebe565b82525050565b6000602082019050610eee6000830184610eca565b92915050565b600060208284031215610f0a57610f09610cb4565b5b6000610f1884828501610d07565b91505092915050565b600081519050919050565b600082825260208201905092915050565b60005b83811015610f5b578082015181840152602081019050610f40565b60008484015250505050565b6000610f7282610f21565b610f7c8185610f2c565b9350610f8c818560208601610f3d565b610f9581610d26565b840191505092915050565b60006080820190508181036000830152610fba8187610f67565b90508181036020830152610fce8186610f67565b90508181036040830152610fe28185610f67565b90508181036060830152610ff68184610f67565b905095945050505050565b6000602082019050818103600083015261101b8184610f67565b905092915050565b6000806000806080858703121561103d5761103c610cb4565b5b600085013567ffffffffffffffff81111561105b5761105a610cb9565b5b61106787828801610e34565b945050602085013567ffffffffffffffff81111561108857611087610cb9565b5b61109487828801610e34565b935050604085013567ffffffffffffffff8111156110b5576110b4610cb9565b5b6110c187828801610e34565b925050606085013567ffffffffffffffff8111156110e2576110e1610cb9565b5b6110ee87828801610e34565b91505092959194509250565b7f4e6f742061207265676973746572656420757365720000000000000000000000600082015250565b6000611130601583610f2c565b915061113b826110fa565b602082019050919050565b6000602082019050818103600083015261115f81611123565b9050919050565b600081905092915050565b600061117c82610f21565b6111868185611166565b9350611196818560208601610f3d565b80840191505092915050565b60006111ae8284611171565b915081905092915050565b7f5061727469636970616e74206973206e6f742072656769737465726564000000600082015250565b60006111ef601d83610f2c565b91506111fa826111b9565b602082019050919050565b6000602082019050818103600083015261121e816111e2565b9050919050565b7f4e487b7100000000000000000000000000000000000000000000000000000000600052602260045260246000fd5b6000600282049050600182168061126c57607f821691505b60208210810361127f5761127e611225565b5b50919050565b7f4e487b7100000000000000000000000000000000000000000000000000000000600052602160045260246000fd5b7f5061727469636970616e7420616c726561647920726567697374657265640000600082015250565b60006112ea601e83610f2c565b91506112f5826112b4565b602082019050919050565b60006020820190508181036000830152611319816112dd565b9050919050565b7f70617469656e7400000000000000000000000000000000000000000000000000600082015250565b6000611356600783611166565b915061136182611320565b600782019050919050565b600061137782611349565b9150819050919050565b7f556e6971756520494420616c7265616479207573656420666f7220612070617460008201527f69656e7400000000000000000000000000000000000000000000000000000000602082015250565b60006113dd602483610f2c565b91506113e882611381565b604082019050919050565b6000602082019050818103600083015261140c816113d0565b9050919050565b7f686f73706974616c000000000000000000000000000000000000000000000000600082015250565b6000611449600883611166565b915061145482611413565b600882019050919050565b600061146a8261143c565b9150819050919050565b7f556e6971756520494420616c7265616479207573656420666f72206120686f7360008201527f706974616c000000000000000000000000000000000000000000000000000000602082015250565b60006114d0602583610f2c565b91506114db82611474565b604082019050919050565b600060208201905081810360008301526114ff816114c3565b9050919050565b7f496e76616c696420726f6c652e204d757374206265202770617469656e74272060008201527f6f722027686f73706974616c272e000000000000000000000000000000000000602082015250565b6000611562602e83610f2c565b915061156d82611506565b604082019050919050565b6000602082019050818103600083015261159181611555565b9050919050565b60008190508160005260206000209050919050565b60006020601f8301049050919050565b600082821b905092915050565b6000600883026115fa7fffffffffffffffffffffffffffffffffffffffffffffffffffffffffffffffff826115bd565b61160486836115bd565b95508019841693508086168417925050509392505050565b6000819050919050565b6000819050919050565b600061164b6116466116418461161c565b611626565b61161c565b9050919050565b6000819050919050565b61166583611630565b61167961167182611652565b8484546115ca565b825550505050565b600090565b61168e611681565b61169981848461165c565b505050565b5b818110156116bd576116b2600082611686565b60018101905061169f565b5050565b601f821115611702576116d381611598565b6116dc846115ad565b810160208510156116eb578190505b6116ff6116f7856115ad565b83018261169e565b50505b505050565b600082821c905092915050565b600061172560001984600802611707565b1980831691505092915050565b600061173e8383611714565b9150826002028217905092915050565b61175782610f21565b67ffffffffffffffff8111156117705761176f610d37565b5b61177a8254611254565b6117858282856116c1565b600060209050601f8311600181146117b857600084156117a6578287015190505b6117b08582611732565b865550611818565b601f1984166117c686611598565b60005b828110156117ee578489015182556001820191506020850194506020810190506117c9565b8683101561180b5784890151611807601f891682611714565b8355505b6001600288020188555050505b50505050505056fea26469706673582212206cae3ae94b6fcff4970ac25091a18ed1675ee63c3fc4826bcf7e69c5d45f23dd64736f6c634300081c0033",
  "linkReferences": {},
  "deployedLinkReferences": {}
}