{
  "_format": "hh-sol-artifact-1",
  "contractName": "Registration",
  "sourceName": "contracts/Registration.sol",
  "abi": [
    {
      "anonymous": false,
      "inputs": [
        {
          "indexed": true,
          "internalType": "address",
          "name": "participantAddress",
          "type": "address"
        },
        {
          "indexed": false,
          "internalType": "string",
          "name": "uniqueId",
          "type": "string"
        },
        {
          "indexed": false,
          "internalType": "string",
          "name": "name",
          "type": "string"
        },
        {
          "indexed": false,
          "internalType": "string",
          "name": "role",
          "type": "string"
        }
      ],
      "name": "ParticipantRegistered",
      "type": "event"
    },
    {
      "inputs": [
        {
          "internalType": "address",
          "name": "participantAddress",
          "type": "address"
        }
      ],
      "name": "getParticipantDetails",
      "outputs": [
        {
          "internalType": "string",
          "name": "uniqueId",
          "type": "string"
        },
        {
          "internalType": "string",
          "name": "name",
          "type": "string"
        },
        {
          "internalType": "string",
          "name": "role",
          "type": "string"
        }
      ],
      "stateMutability": "view",
      "type": "function"
    },
    {
      "inputs": [
        {
          "internalType": "address",
          "name": "participantAddress",
          "type": "address"
        }
      ],
      "name": "isParticipantRegistered",
      "outputs": [
        {
          "internalType": "bool",
          "name": "",
          "type": "bool"
        }
      ],
      "stateMutability": "view",
      "type": "function"
    },
    {
      "inputs": [
        {
          "internalType": "address",
          "name": "",
          "type": "address"
        }
      ],
      "name": "participants",
      "outputs": [
        {
          "internalType": "string",
          "name": "uniqueId",
          "type": "string"
        },
        {
          "internalType": "string",
          "name": "name",
          "type": "string"
        },
        {
          "internalType": "string",
          "name": "role",
          "type": "string"
        },
        {
          "internalType": "bool",
          "name": "isRegistered",
          "type": "bool"
        }
      ],
      "stateMutability": "view",
      "type": "function"
    },
    {
      "inputs": [
        {
          "internalType": "string",
          "name": "uniqueId",
          "type": "string"
        },
        {
          "internalType": "string",
          "name": "name",
          "type": "string"
        },
        {
          "internalType": "string",
          "name": "role",
          "type": "string"
        }
      ],
      "name": "registerParticipant",
      "outputs": [],
      "stateMutability": "nonpayable",
      "type": "function"
    }
  ],
  "bytecode": "0x6080604052348015600f57600080fd5b506112108061001f6000396000f3fe608060405234801561001057600080fd5b506004361061004c5760003560e01c806309e69ede146100515780632bb7b3401461008457806344e0b8c1146100a05780634a34495f146100d2575b600080fd5b61006b600480360381019061006691906108fe565b610102565b60405161007b94939291906109d6565b60405180910390f35b61009e60048036038101906100999190610b65565b6102d7565b005b6100ba60048036038101906100b591906108fe565b610566565b6040516100c993929190610c0c565b60405180910390f35b6100ec60048036038101906100e791906108fe565b610834565b6040516100f99190610c58565b60405180910390f35b600060205280600052604060002060009150905080600001805461012590610ca2565b80601f016020809104026020016040519081016040528092919081815260200182805461015190610ca2565b801561019e5780601f106101735761010080835404028352916020019161019e565b820191906000526020600020905b81548152906001019060200180831161018157829003601f168201915b5050505050908060010180546101b390610ca2565b80601f01602080910402602001604051908101604052809291908181526020018280546101df90610ca2565b801561022c5780601f106102015761010080835404028352916020019161022c565b820191906000526020600020905b81548152906001019060200180831161020f57829003601f168201915b50505050509080600201805461024190610ca2565b80601f016020809104026020016040519081016040528092919081815260200182805461026d90610ca2565b80156102ba5780601f1061028f576101008083540402835291602001916102ba565b820191906000526020600020905b81548152906001019060200180831161029d57829003601f168201915b5050505050908060030160009054906101000a900460ff16905084565b336000808273ffffffffffffffffffffffffffffffffffffffff1673ffffffffffffffffffffffffffffffffffffffff16815260200190815260200160002060030160009054906101000a900460ff1615610367576040517f08c379a000000000000000000000000000000000000000000000000000000000815260040161035e90610d1f565b60405180910390fd5b60405160200161037690610d96565b604051602081830303815290604052805190602001208260405160200161039d9190610ddc565b60405160208183030381529060405280519060200120148061040857506040516020016103c990610e3f565b60405160208183030381529060405280519060200120826040516020016103f09190610ddc565b60405160208183030381529060405280519060200120145b610447576040517f08c379a000000000000000000000000000000000000000000000000000000000815260040161043e90610ec6565b60405180910390fd5b6040518060800160405280858152602001848152602001838152602001600115158152506000803373ffffffffffffffffffffffffffffffffffffffff1673ffffffffffffffffffffffffffffffffffffffff16815260200190815260200160002060008201518160000190816104be919061109c565b5060208201518160010190816104d4919061109c565b5060408201518160020190816104ea919061109c565b5060608201518160030160006101000a81548160ff0219169083151502179055509050503373ffffffffffffffffffffffffffffffffffffffff167f390b80cb10c650694bbe7bbd111250503ef8bed233a52c658541832250af77d785858560405161055893929190610c0c565b60405180910390a250505050565b60608060606000808573ffffffffffffffffffffffffffffffffffffffff1673ffffffffffffffffffffffffffffffffffffffff16815260200190815260200160002060030160009054906101000a900460ff166105f9576040517f08c379a00000000000000000000000000000000000000000000000000000000081526004016105f0906111ba565b60405180910390fd5b60008060008673ffffffffffffffffffffffffffffffffffffffff1673ffffffffffffffffffffffffffffffffffffffff16815260200190815260200160002060405180608001604052908160008201805461065490610ca2565b80601f016020809104026020016040519081016040528092919081815260200182805461068090610ca2565b80156106cd5780601f106106a2576101008083540402835291602001916106cd565b820191906000526020600020905b8154815290600101906020018083116106b057829003601f168201915b505050505081526020016001820180546106e690610ca2565b80601f016020809104026020016040519081016040528092919081815260200182805461071290610ca2565b801561075f5780601f106107345761010080835404028352916020019161075f565b820191906000526020600020905b81548152906001019060200180831161074257829003601f168201915b5050505050815260200160028201805461077890610ca2565b80601f01602080910402602001604051908101604052809291908181526020018280546107a490610ca2565b80156107f15780601f106107c6576101008083540402835291602001916107f1565b820191906000526020600020905b8154815290600101906020018083116107d457829003601f168201915b505050505081526020016003820160009054906101000a900460ff1615151515815250509050806000015181602001518260400151935093509350509193909250565b60008060008373ffffffffffffffffffffffffffffffffffffffff1673ffffffffffffffffffffffffffffffffffffffff16815260200190815260200160002060030160009054906101000a900460ff169050919050565b6000604051905090565b600080fd5b600080fd5b600073ffffffffffffffffffffffffffffffffffffffff82169050919050565b60006108cb826108a0565b9050919050565b6108db816108c0565b81146108e657600080fd5b50565b6000813590506108f8816108d2565b92915050565b60006020828403121561091457610913610896565b5b6000610922848285016108e9565b91505092915050565b600081519050919050565b600082825260208201905092915050565b60005b8381101561096557808201518184015260208101905061094a565b60008484015250505050565b6000601f19601f8301169050919050565b600061098d8261092b565b6109978185610936565b93506109a7818560208601610947565b6109b081610971565b840191505092915050565b60008115159050919050565b6109d0816109bb565b82525050565b600060808201905081810360008301526109f08187610982565b90508181036020830152610a048186610982565b90508181036040830152610a188185610982565b9050610a2760608301846109c7565b95945050505050565b600080fd5b600080fd5b7f4e487b7100000000000000000000000000000000000000000000000000000000600052604160045260246000fd5b610a7282610971565b810181811067ffffffffffffffff82111715610a9157610a90610a3a565b5b80604052505050565b6000610aa461088c565b9050610ab08282610a69565b919050565b600067ffffffffffffffff821115610ad057610acf610a3a565b5b610ad982610971565b9050602081019050919050565b82818337600083830152505050565b6000610b08610b0384610ab5565b610a9a565b905082815260208101848484011115610b2457610b23610a35565b5b610b2f848285610ae6565b509392505050565b600082601f830112610b4c57610b4b610a30565b5b8135610b5c848260208601610af5565b91505092915050565b600080600060608486031215610b7e57610b7d610896565b5b600084013567ffffffffffffffff811115610b9c57610b9b61089b565b5b610ba886828701610b37565b935050602084013567ffffffffffffffff811115610bc957610bc861089b565b5b610bd586828701610b37565b925050604084013567ffffffffffffffff811115610bf657610bf561089b565b5b610c0286828701610b37565b9150509250925092565b60006060820190508181036000830152610c268186610982565b90508181036020830152610c3a8185610982565b90508181036040830152610c4e8184610982565b9050949350505050565b6000602082019050610c6d60008301846109c7565b92915050565b7f4e487b7100000000000000000000000000000000000000000000000000000000600052602260045260246000fd5b60006002820490506001821680610cba57607f821691505b602082108103610ccd57610ccc610c73565b5b50919050565b7f5061727469636970616e7420616c726561647920726567697374657265640000600082015250565b6000610d09601e83610936565b9150610d1482610cd3565b602082019050919050565b60006020820190508181036000830152610d3881610cfc565b9050919050565b600081905092915050565b7f70617469656e7400000000000000000000000000000000000000000000000000600082015250565b6000610d80600783610d3f565b9150610d8b82610d4a565b600782019050919050565b6000610da182610d73565b9150819050919050565b6000610db68261092b565b610dc08185610d3f565b9350610dd0818560208601610947565b80840191505092915050565b6000610de88284610dab565b915081905092915050565b7f686f73706974616c000000000000000000000000000000000000000000000000600082015250565b6000610e29600883610d3f565b9150610e3482610df3565b600882019050919050565b6000610e4a82610e1c565b9150819050919050565b7f496e76616c696420726f6c652e204d757374206265202770617469656e74272060008201527f6f722027686f73706974616c272e000000000000000000000000000000000000602082015250565b6000610eb0602e83610936565b9150610ebb82610e54565b604082019050919050565b60006020820190508181036000830152610edf81610ea3565b9050919050565b60008190508160005260206000209050919050565b60006020601f8301049050919050565b600082821b905092915050565b600060088302610f487fffffffffffffffffffffffffffffffffffffffffffffffffffffffffffffffff82610f0b565b610f528683610f0b565b95508019841693508086168417925050509392505050565b6000819050919050565b6000819050919050565b6000610f99610f94610f8f84610f6a565b610f74565b610f6a565b9050919050565b6000819050919050565b610fb383610f7e565b610fc7610fbf82610fa0565b848454610f18565b825550505050565b600090565b610fdc610fcf565b610fe7818484610faa565b505050565b5b8181101561100b57611000600082610fd4565b600181019050610fed565b5050565b601f8211156110505761102181610ee6565b61102a84610efb565b81016020851015611039578190505b61104d61104585610efb565b830182610fec565b50505b505050565b600082821c905092915050565b600061107360001984600802611055565b1980831691505092915050565b600061108c8383611062565b9150826002028217905092915050565b6110a58261092b565b67ffffffffffffffff8111156110be576110bd610a3a565b5b6110c88254610ca2565b6110d382828561100f565b600060209050601f83116001811461110657600084156110f4578287015190505b6110fe8582611080565b865550611166565b601f19841661111486610ee6565b60005b8281101561113c57848901518255600182019150602085019450602081019050611117565b868310156111595784890151611155601f891682611062565b8355505b6001600288020188555050505b505050505050565b7f5061727469636970616e74206973206e6f742072656769737465726564000000600082015250565b60006111a4601d83610936565b91506111af8261116e565b602082019050919050565b600060208201905081810360008301526111d381611197565b905091905056fea2646970667358221220265a5698504f1a7c4f64e82a5432a56f11d09f91c64201c10ed788a67ef18a0364736f6c634300081c0033",
  "linkReferences": {},
  "deployedLinkReferences": {}
}