{
  "_format": "hh-sol-artifact-1",
  "contractName": "RequestContract",
  "sourceName": "contracts/Request.sol",
  "abi": [
    {
      "inputs": [
        {
          "internalType": "address",
          "name": "_registration",
          "type": "address"
        }
      ],
      "stateMutability": "nonpayable",
      "type": "constructor"
    },
    {
      "anonymous": false,
      "inputs": [
        {
          "indexed": true,
          "internalType": "uint256",
          "name": "requestId",
          "type": "uint256"
        },
        {
          "indexed": true,
          "internalType": "address",
          "name": "patient",
          "type": "address"
        },
        {
          "indexed": true,
          "internalType": "address",
          "name": "hospital",
          "type": "address"
        },
        {
          "indexed": false,
          "internalType": "string[]",
          "name": "fileList",
          "type": "string[]"
        },
        {
          "indexed": false,
          "internalType": "uint256",
          "name": "deadline",
          "type": "uint256"
        },
        {
          "indexed": false,
          "internalType": "enum RequestContract.AccessType",
          "name": "accessType",
          "type": "uint8"
        },
        {
          "indexed": false,
          "internalType": "bool",
          "name": "isAll",
          "type": "bool"
        },
        {
          "indexed": false,
          "internalType": "bool",
          "name": "isProcessed",
          "type": "bool"
        }
      ],
      "name": "RequestMade",
      "type": "event"
    },
    {
      "inputs": [],
      "name": "getHospitalRequests",
      "outputs": [
        {
          "components": [
            {
              "internalType": "uint256",
              "name": "requestId",
              "type": "uint256"
            },
            {
              "internalType": "address",
              "name": "hospital",
              "type": "address"
            },
            {
              "internalType": "address",
              "name": "patient",
              "type": "address"
            },
            {
              "internalType": "string[]",
              "name": "fileList",
              "type": "string[]"
            },
            {
              "internalType": "uint256",
              "name": "deadline",
              "type": "uint256"
            },
            {
              "internalType": "enum RequestContract.AccessType",
              "name": "accessType",
              "type": "uint8"
            },
            {
              "internalType": "bool",
              "name": "isAll",
              "type": "bool"
            },
            {
              "internalType": "bool",
              "name": "isProcessed",
              "type": "bool"
            }
          ],
          "internalType": "struct RequestContract.Request[]",
          "name": "",
          "type": "tuple[]"
        }
      ],
      "stateMutability": "view",
      "type": "function"
    },
    {
      "inputs": [],
      "name": "getPatientRequests",
      "outputs": [
        {
          "components": [
            {
              "internalType": "uint256",
              "name": "requestId",
              "type": "uint256"
            },
            {
              "internalType": "address",
              "name": "hospital",
              "type": "address"
            },
            {
              "internalType": "address",
              "name": "patient",
              "type": "address"
            },
            {
              "internalType": "string[]",
              "name": "fileList",
              "type": "string[]"
            },
            {
              "internalType": "uint256",
              "name": "deadline",
              "type": "uint256"
            },
            {
              "internalType": "enum RequestContract.AccessType",
              "name": "accessType",
              "type": "uint8"
            },
            {
              "internalType": "bool",
              "name": "isAll",
              "type": "bool"
            },
            {
              "internalType": "bool",
              "name": "isProcessed",
              "type": "bool"
            }
          ],
          "internalType": "struct RequestContract.Request[]",
          "name": "",
          "type": "tuple[]"
        }
      ],
      "stateMutability": "view",
      "type": "function"
    },
    {
      "inputs": [
        {
          "internalType": "uint256",
          "name": "requestId",
          "type": "uint256"
        }
      ],
      "name": "getRequest",
      "outputs": [
        {
          "components": [
            {
              "internalType": "uint256",
              "name": "requestId",
              "type": "uint256"
            },
            {
              "internalType": "address",
              "name": "hospital",
              "type": "address"
            },
            {
              "internalType": "address",
              "name": "patient",
              "type": "address"
            },
            {
              "internalType": "string[]",
              "name": "fileList",
              "type": "string[]"
            },
            {
              "internalType": "uint256",
              "name": "deadline",
              "type": "uint256"
            },
            {
              "internalType": "enum RequestContract.AccessType",
              "name": "accessType",
              "type": "uint8"
            },
            {
              "internalType": "bool",
              "name": "isAll",
              "type": "bool"
            },
            {
              "internalType": "bool",
              "name": "isProcessed",
              "type": "bool"
            }
          ],
          "internalType": "struct RequestContract.Request",
          "name": "",
          "type": "tuple"
        }
      ],
      "stateMutability": "view",
      "type": "function"
    },
    {
      "inputs": [
        {
          "internalType": "address",
          "name": "patient",
          "type": "address"
        },
        {
          "internalType": "string[]",
          "name": "fileList",
          "type": "string[]"
        },
        {
          "internalType": "uint256",
          "name": "deadline",
          "type": "uint256"
        },
        {
          "internalType": "enum RequestContract.AccessType",
          "name": "accessType",
          "type": "uint8"
        },
        {
          "internalType": "bool",
          "name": "isAll",
          "type": "bool"
        }
      ],
      "name": "makeRequest",
      "outputs": [
        {
          "internalType": "uint256",
          "name": "",
          "type": "uint256"
        }
      ],
      "stateMutability": "nonpayable",
      "type": "function"
    },
    {
      "inputs": [],
      "name": "registration",
      "outputs": [
        {
          "internalType": "contract IRegistration",
          "name": "",
          "type": "address"
        }
      ],
      "stateMutability": "view",
      "type": "function"
    },
    {
      "inputs": [],
      "name": "requestCounter",
      "outputs": [
        {
          "internalType": "uint256",
          "name": "",
          "type": "uint256"
        }
      ],
      "stateMutability": "view",
      "type": "function"
    },
    {
      "inputs": [
        {
          "internalType": "uint256",
          "name": "",
          "type": "uint256"
        }
      ],
      "name": "requests",
      "outputs": [
        {
          "internalType": "uint256",
          "name": "requestId",
          "type": "uint256"
        },
        {
          "internalType": "address",
          "name": "hospital",
          "type": "address"
        },
        {
          "internalType": "address",
          "name": "patient",
          "type": "address"
        },
        {
          "internalType": "uint256",
          "name": "deadline",
          "type": "uint256"
        },
        {
          "internalType": "enum RequestContract.AccessType",
          "name": "accessType",
          "type": "uint8"
        },
        {
          "internalType": "bool",
          "name": "isAll",
          "type": "bool"
        },
        {
          "internalType": "bool",
          "name": "isProcessed",
          "type": "bool"
        }
      ],
      "stateMutability": "view",
      "type": "function"
    },
    {
      "inputs": [
        {
          "internalType": "uint256",
          "name": "requestId",
          "type": "uint256"
        }
      ],
      "name": "setRequestProcessed",
      "outputs": [],
      "stateMutability": "nonpayable",
      "type": "function"
    }
  ],
  "bytecode": "0x608060405234801561001057600080fd5b50604051612f7f380380612f7f833981810160405281019061003291906100e4565b80600460006101000a81548173ffffffffffffffffffffffffffffffffffffffff021916908373ffffffffffffffffffffffffffffffffffffffff160217905550600060018190555050610111565b600080fd5b600073ffffffffffffffffffffffffffffffffffffffff82169050919050565b60006100b182610086565b9050919050565b6100c1816100a6565b81146100cc57600080fd5b50565b6000815190506100de816100b8565b92915050565b6000602082840312156100fa576100f9610081565b5b6000610108848285016100cf565b91505092915050565b612e5f806101206000396000f3fe608060405234801561001057600080fd5b50600436106100885760003560e01c806381d12c581161005b57806381d12c5814610115578063973a814e1461014b578063c58343ef14610169578063e42315e81461019957610088565b80630423b2471461008d57806327b9c257146100ab578063443bd1d0146100c757806352ba1958146100e5575b600080fd5b6100956101b7565b6040516100a29190611d93565b60405180910390f35b6100c560048036038101906100c09190611df5565b610735565b005b6100cf61080f565b6040516100dc9190611e81565b60405180910390f35b6100ff60048036038101906100fa9190612134565b610835565b60405161010c91906121da565b60405180910390f35b61012f600480360381019061012a9190611df5565b610fcd565b6040516101429796959493929190612222565b60405180910390f35b610153611076565b60405161016091906121da565b60405180910390f35b610183600480360381019061017e9190611df5565b61107c565b6040516101909190612341565b60405180910390f35b6101a1611304565b6040516101ae9190611d93565b60405180910390f35b6060600460009054906101000a900473ffffffffffffffffffffffffffffffffffffffff1673ffffffffffffffffffffffffffffffffffffffff16634a34495f336040518263ffffffff1660e01b81526004016102149190612363565b602060405180830381865afa158015610231573d6000803e3d6000fd5b505050506040513d601f19601f820116820180604052508101906102559190612393565b610294576040517f08c379a000000000000000000000000000000000000000000000000000000000815260040161028b90612443565b60405180910390fd5b6000600460009054906101000a900473ffffffffffffffffffffffffffffffffffffffff1673ffffffffffffffffffffffffffffffffffffffff166344e0b8c1336040518263ffffffff1660e01b81526004016102f19190612363565b600060405180830381865afa15801561030e573d6000803e3d6000fd5b505050506040513d6000823e3d601f19601f8201168201806040525081019061033791906124d3565b9250505060405160200161034a906125d1565b60405160208183030381529060405280519060200120816040516020016103719190612617565b60405160208183030381529060405280519060200120146103c7576040517f08c379a00000000000000000000000000000000000000000000000000000000081526004016103be9061267a565b60405180910390fd5b6000600360003373ffffffffffffffffffffffffffffffffffffffff1673ffffffffffffffffffffffffffffffffffffffff16815260200190815260200160002080548060200260200160405190810160405280929190818152602001828054801561045257602002820191906000526020600020905b81548152602001906001019080831161043e575b505050505090506000815167ffffffffffffffff81111561047657610475611ecd565b5b6040519080825280602002602001820160405280156104af57816020015b61049c611882565b8152602001906001900390816104945790505b50905060005b825181101561072b576000808483815181106104d4576104d361269a565b5b6020026020010151815260200190815260200160002060405180610100016040529081600082015481526020016001820160009054906101000a900473ffffffffffffffffffffffffffffffffffffffff1673ffffffffffffffffffffffffffffffffffffffff1673ffffffffffffffffffffffffffffffffffffffff1681526020016002820160009054906101000a900473ffffffffffffffffffffffffffffffffffffffff1673ffffffffffffffffffffffffffffffffffffffff1673ffffffffffffffffffffffffffffffffffffffff16815260200160038201805480602002602001604051908101604052809291908181526020016000905b8282101561067d5783829060005260206000200180546105f0906126f8565b80601f016020809104026020016040519081016040528092919081815260200182805461061c906126f8565b80156106695780601f1061063e57610100808354040283529160200191610669565b820191906000526020600020905b81548152906001019060200180831161064c57829003601f168201915b5050505050815260200190600101906105d1565b505050508152602001600482015481526020016005820160009054906101000a900460ff1660028111156106b4576106b3611bbb565b5b60028111156106c6576106c5611bbb565b5b81526020016005820160019054906101000a900460ff161515151581526020016005820160029054906101000a900460ff1615151515815250508282815181106107135761071261269a565b5b602002602001018190525080806001019150506104b5565b5080935050505090565b60008111801561074757506001548111155b610786576040517f08c379a000000000000000000000000000000000000000000000000000000000815260040161077d90612775565b60405180910390fd5b600080600083815260200190815260200160002090508060050160029054906101000a900460ff16156107ee576040517f08c379a00000000000000000000000000000000000000000000000000000000081526004016107e5906127e1565b60405180910390fd5b60018160050160026101000a81548160ff0219169083151502179055505050565b600460009054906101000a900473ffffffffffffffffffffffffffffffffffffffff1681565b6000600460009054906101000a900473ffffffffffffffffffffffffffffffffffffffff1673ffffffffffffffffffffffffffffffffffffffff16634a34495f336040518263ffffffff1660e01b81526004016108929190612363565b602060405180830381865afa1580156108af573d6000803e3d6000fd5b505050506040513d601f19601f820116820180604052508101906108d39190612393565b610912576040517f08c379a000000000000000000000000000000000000000000000000000000000815260040161090990612443565b60405180910390fd5b6000600460009054906101000a900473ffffffffffffffffffffffffffffffffffffffff1673ffffffffffffffffffffffffffffffffffffffff166344e0b8c1336040518263ffffffff1660e01b815260040161096f9190612363565b600060405180830381865afa15801561098c573d6000803e3d6000fd5b505050506040513d6000823e3d601f19601f820116820180604052508101906109b591906124d3565b925050506040516020016109c8906125d1565b60405160208183030381529060405280519060200120816040516020016109ef9190612617565b6040516020818303038152906040528051906020012014610a45576040517f08c379a0000000000000000000000000000000000000000000000000000000008152600401610a3c9061267a565b60405180910390fd5b600460009054906101000a900473ffffffffffffffffffffffffffffffffffffffff1673ffffffffffffffffffffffffffffffffffffffff16634a34495f886040518263ffffffff1660e01b8152600401610aa09190612363565b602060405180830381865afa158015610abd573d6000803e3d6000fd5b505050506040513d601f19601f82011682018060405250810190610ae19190612393565b610b20576040517f08c379a0000000000000000000000000000000000000000000000000000000008152600401610b1790612873565b60405180910390fd5b6000600460009054906101000a900473ffffffffffffffffffffffffffffffffffffffff1673ffffffffffffffffffffffffffffffffffffffff166344e0b8c1896040518263ffffffff1660e01b8152600401610b7d9190612363565b600060405180830381865afa158015610b9a573d6000803e3d6000fd5b505050506040513d6000823e3d601f19601f82011682018060405250810190610bc391906124d3565b92505050604051602001610bd6906128df565b6040516020818303038152906040528051906020012081604051602001610bfd9190612617565b6040516020818303038152906040528051906020012014610c53576040517f08c379a0000000000000000000000000000000000000000000000000000000008152600401610c4a90612940565b60405180910390fd5b83610c9d576000875111610c9c576040517f08c379a0000000000000000000000000000000000000000000000000000000008152600401610c93906129d2565b60405180910390fd5b5b60016000815480929190610cb090612a21565b91905055506000600154905060006040518061010001604052808381526020013373ffffffffffffffffffffffffffffffffffffffff1681526020018b73ffffffffffffffffffffffffffffffffffffffff1681526020018a8152602001898152602001886002811115610d2757610d26611bbb565b5b81526020018715158152602001600015158152509050806000808481526020019081526020016000206000820151816000015560208201518160010160006101000a81548173ffffffffffffffffffffffffffffffffffffffff021916908373ffffffffffffffffffffffffffffffffffffffff16021790555060408201518160020160006101000a81548173ffffffffffffffffffffffffffffffffffffffff021916908373ffffffffffffffffffffffffffffffffffffffff1602179055506060820151816003019080519060200190610e04929190611909565b506080820151816004015560a08201518160050160006101000a81548160ff02191690836002811115610e3a57610e39611bbb565b5b021790555060c08201518160050160016101000a81548160ff02191690831515021790555060e08201518160050160026101000a81548160ff021916908315150217905550905050600260008b73ffffffffffffffffffffffffffffffffffffffff1673ffffffffffffffffffffffffffffffffffffffff168152602001908152602001600020829080600181540180825580915050600190039060005260206000200160009091909190915055600360003373ffffffffffffffffffffffffffffffffffffffff1673ffffffffffffffffffffffffffffffffffffffff1681526020019081526020016000208290806001815401808255809150506001900390600052602060002001600090919091909150553373ffffffffffffffffffffffffffffffffffffffff168a73ffffffffffffffffffffffffffffffffffffffff16837fa9fa716071b69a5168558727194be1f952e2728736bea4d111671c14eabeb89b8c8c8c8c6000604051610fb5959493929190612aef565b60405180910390a48194505050505095945050505050565b60006020528060005260406000206000915090508060000154908060010160009054906101000a900473ffffffffffffffffffffffffffffffffffffffff16908060020160009054906101000a900473ffffffffffffffffffffffffffffffffffffffff16908060040154908060050160009054906101000a900460ff16908060050160019054906101000a900460ff16908060050160029054906101000a900460ff16905087565b60015481565b611084611882565b60008211801561109657506001548211155b6110d5576040517f08c379a00000000000000000000000000000000000000000000000000000000081526004016110cc90612775565b60405180910390fd5b60008083815260200190815260200160002060405180610100016040529081600082015481526020016001820160009054906101000a900473ffffffffffffffffffffffffffffffffffffffff1673ffffffffffffffffffffffffffffffffffffffff1673ffffffffffffffffffffffffffffffffffffffff1681526020016002820160009054906101000a900473ffffffffffffffffffffffffffffffffffffffff1673ffffffffffffffffffffffffffffffffffffffff1673ffffffffffffffffffffffffffffffffffffffff16815260200160038201805480602002602001604051908101604052809291908181526020016000905b8282101561127a5783829060005260206000200180546111ed906126f8565b80601f0160208091040260200160405190810160405280929190818152602001828054611219906126f8565b80156112665780601f1061123b57610100808354040283529160200191611266565b820191906000526020600020905b81548152906001019060200180831161124957829003601f168201915b5050505050815260200190600101906111ce565b505050508152602001600482015481526020016005820160009054906101000a900460ff1660028111156112b1576112b0611bbb565b5b60028111156112c3576112c2611bbb565b5b81526020016005820160019054906101000a900460ff161515151581526020016005820160029054906101000a900460ff1615151515815250509050919050565b6060600460009054906101000a900473ffffffffffffffffffffffffffffffffffffffff1673ffffffffffffffffffffffffffffffffffffffff16634a34495f336040518263ffffffff1660e01b81526004016113619190612363565b602060405180830381865afa15801561137e573d6000803e3d6000fd5b505050506040513d601f19601f820116820180604052508101906113a29190612393565b6113e1576040517f08c379a00000000000000000000000000000000000000000000000000000000081526004016113d890612443565b60405180910390fd5b6000600460009054906101000a900473ffffffffffffffffffffffffffffffffffffffff1673ffffffffffffffffffffffffffffffffffffffff166344e0b8c1336040518263ffffffff1660e01b815260040161143e9190612363565b600060405180830381865afa15801561145b573d6000803e3d6000fd5b505050506040513d6000823e3d601f19601f8201168201806040525081019061148491906124d3565b92505050604051602001611497906128df565b60405160208183030381529060405280519060200120816040516020016114be9190612617565b6040516020818303038152906040528051906020012014611514576040517f08c379a000000000000000000000000000000000000000000000000000000000815260040161150b90612b95565b60405180910390fd5b6000600260003373ffffffffffffffffffffffffffffffffffffffff1673ffffffffffffffffffffffffffffffffffffffff16815260200190815260200160002080548060200260200160405190810160405280929190818152602001828054801561159f57602002820191906000526020600020905b81548152602001906001019080831161158b575b505050505090506000815167ffffffffffffffff8111156115c3576115c2611ecd565b5b6040519080825280602002602001820160405280156115fc57816020015b6115e9611882565b8152602001906001900390816115e15790505b50905060005b8251811015611878576000808483815181106116215761162061269a565b5b6020026020010151815260200190815260200160002060405180610100016040529081600082015481526020016001820160009054906101000a900473ffffffffffffffffffffffffffffffffffffffff1673ffffffffffffffffffffffffffffffffffffffff1673ffffffffffffffffffffffffffffffffffffffff1681526020016002820160009054906101000a900473ffffffffffffffffffffffffffffffffffffffff1673ffffffffffffffffffffffffffffffffffffffff1673ffffffffffffffffffffffffffffffffffffffff16815260200160038201805480602002602001604051908101604052809291908181526020016000905b828210156117ca57838290600052602060002001805461173d906126f8565b80601f0160208091040260200160405190810160405280929190818152602001828054611769906126f8565b80156117b65780601f1061178b576101008083540402835291602001916117b6565b820191906000526020600020905b81548152906001019060200180831161179957829003601f168201915b50505050508152602001906001019061171e565b505050508152602001600482015481526020016005820160009054906101000a900460ff16600281111561180157611800611bbb565b5b600281111561181357611812611bbb565b5b81526020016005820160019054906101000a900460ff161515151581526020016005820160029054906101000a900460ff1615151515815250508282815181106118605761185f61269a565b5b60200260200101819052508080600101915050611602565b5080935050505090565b60405180610100016040528060008152602001600073ffffffffffffffffffffffffffffffffffffffff168152602001600073ffffffffffffffffffffffffffffffffffffffff1681526020016060815260200160008152602001600060028111156118f1576118f0611bbb565b5b81526020016000151581526020016000151581525090565b828054828255906000526020600020908101928215611951579160200282015b828111156119505782518290816119409190612d57565b5091602001919060010190611929565b5b50905061195e9190611962565b5090565b5b8082111561198257600081816119799190611986565b50600101611963565b5090565b508054611992906126f8565b6000825580601f106119a457506119c3565b601f0160209004906000526020600020908101906119c291906119c6565b5b50565b5b808211156119df5760008160009055506001016119c7565b5090565b600081519050919050565b600082825260208201905092915050565b6000819050602082019050919050565b6000819050919050565b611a2281611a0f565b82525050565b600073ffffffffffffffffffffffffffffffffffffffff82169050919050565b6000611a5382611a28565b9050919050565b611a6381611a48565b82525050565b600081519050919050565b600082825260208201905092915050565b6000819050602082019050919050565b600081519050919050565b600082825260208201905092915050565b60005b83811015611acf578082015181840152602081019050611ab4565b60008484015250505050565b6000601f19601f8301169050919050565b6000611af782611a95565b611b018185611aa0565b9350611b11818560208601611ab1565b611b1a81611adb565b840191505092915050565b6000611b318383611aec565b905092915050565b6000602082019050919050565b6000611b5182611a69565b611b5b8185611a74565b935083602082028501611b6d85611a85565b8060005b85811015611ba95784840389528151611b8a8582611b25565b9450611b9583611b39565b925060208a01995050600181019050611b71565b50829750879550505050505092915050565b7f4e487b7100000000000000000000000000000000000000000000000000000000600052602160045260246000fd5b60038110611bfb57611bfa611bbb565b5b50565b6000819050611c0c82611bea565b919050565b6000611c1c82611bfe565b9050919050565b611c2c81611c11565b82525050565b60008115159050919050565b611c4781611c32565b82525050565b600061010083016000830151611c666000860182611a19565b506020830151611c796020860182611a5a565b506040830151611c8c6040860182611a5a565b5060608301518482036060860152611ca48282611b46565b9150506080830151611cb96080860182611a19565b5060a0830151611ccc60a0860182611c23565b5060c0830151611cdf60c0860182611c3e565b5060e0830151611cf260e0860182611c3e565b508091505092915050565b6000611d098383611c4d565b905092915050565b6000602082019050919050565b6000611d29826119e3565b611d3381856119ee565b935083602082028501611d45856119ff565b8060005b85811015611d815784840389528151611d628582611cfd565b9450611d6d83611d11565b925060208a01995050600181019050611d49565b50829750879550505050505092915050565b60006020820190508181036000830152611dad8184611d1e565b905092915050565b6000604051905090565b600080fd5b600080fd5b611dd281611a0f565b8114611ddd57600080fd5b50565b600081359050611def81611dc9565b92915050565b600060208284031215611e0b57611e0a611dbf565b5b6000611e1984828501611de0565b91505092915050565b6000819050919050565b6000611e47611e42611e3d84611a28565b611e22565b611a28565b9050919050565b6000611e5982611e2c565b9050919050565b6000611e6b82611e4e565b9050919050565b611e7b81611e60565b82525050565b6000602082019050611e966000830184611e72565b92915050565b611ea581611a48565b8114611eb057600080fd5b50565b600081359050611ec281611e9c565b92915050565b600080fd5b7f4e487b7100000000000000000000000000000000000000000000000000000000600052604160045260246000fd5b611f0582611adb565b810181811067ffffffffffffffff82111715611f2457611f23611ecd565b5b80604052505050565b6000611f37611db5565b9050611f438282611efc565b919050565b600067ffffffffffffffff821115611f6357611f62611ecd565b5b602082029050602081019050919050565b600080fd5b600080fd5b600067ffffffffffffffff821115611f9957611f98611ecd565b5b611fa282611adb565b9050602081019050919050565b82818337600083830152505050565b6000611fd1611fcc84611f7e565b611f2d565b905082815260208101848484011115611fed57611fec611f79565b5b611ff8848285611faf565b509392505050565b600082601f83011261201557612014611ec8565b5b8135612025848260208601611fbe565b91505092915050565b600061204161203c84611f48565b611f2d565b9050808382526020820190506020840283018581111561206457612063611f74565b5b835b818110156120ab57803567ffffffffffffffff81111561208957612088611ec8565b5b8086016120968982612000565b85526020850194505050602081019050612066565b5050509392505050565b600082601f8301126120ca576120c9611ec8565b5b81356120da84826020860161202e565b91505092915050565b600381106120f057600080fd5b50565b600081359050612102816120e3565b92915050565b61211181611c32565b811461211c57600080fd5b50565b60008135905061212e81612108565b92915050565b600080600080600060a086880312156121505761214f611dbf565b5b600061215e88828901611eb3565b955050602086013567ffffffffffffffff81111561217f5761217e611dc4565b5b61218b888289016120b5565b945050604061219c88828901611de0565b93505060606121ad888289016120f3565b92505060806121be8882890161211f565b9150509295509295909350565b6121d481611a0f565b82525050565b60006020820190506121ef60008301846121cb565b92915050565b6121fe81611a48565b82525050565b61220d81611c11565b82525050565b61221c81611c32565b82525050565b600060e082019050612237600083018a6121cb565b61224460208301896121f5565b61225160408301886121f5565b61225e60608301876121cb565b61226b6080830186612204565b61227860a0830185612213565b61228560c0830184612213565b98975050505050505050565b6000610100830160008301516122aa6000860182611a19565b5060208301516122bd6020860182611a5a565b5060408301516122d06040860182611a5a565b50606083015184820360608601526122e88282611b46565b91505060808301516122fd6080860182611a19565b5060a083015161231060a0860182611c23565b5060c083015161232360c0860182611c3e565b5060e083015161233660e0860182611c3e565b508091505092915050565b6000602082019050818103600083015261235b8184612291565b905092915050565b600060208201905061237860008301846121f5565b92915050565b60008151905061238d81612108565b92915050565b6000602082840312156123a9576123a8611dbf565b5b60006123b78482850161237e565b91505092915050565b600082825260208201905092915050565b7f43616c6c6572206d75737420626520612072656769737465726564207061727460008201527f69636970616e7400000000000000000000000000000000000000000000000000602082015250565b600061242d6027836123c0565b9150612438826123d1565b604082019050919050565b6000602082019050818103600083015261245c81612420565b9050919050565b600061247661247184611f7e565b611f2d565b90508281526020810184848401111561249257612491611f79565b5b61249d848285611ab1565b509392505050565b600082601f8301126124ba576124b9611ec8565b5b81516124ca848260208601612463565b91505092915050565b6000806000606084860312156124ec576124eb611dbf565b5b600084015167ffffffffffffffff81111561250a57612509611dc4565b5b612516868287016124a5565b935050602084015167ffffffffffffffff81111561253757612536611dc4565b5b612543868287016124a5565b925050604084015167ffffffffffffffff81111561256457612563611dc4565b5b612570868287016124a5565b9150509250925092565b600081905092915050565b7f686f73706974616c000000000000000000000000000000000000000000000000600082015250565b60006125bb60088361257a565b91506125c682612585565b600882019050919050565b60006125dc826125ae565b9150819050919050565b60006125f182611a95565b6125fb818561257a565b935061260b818560208601611ab1565b80840191505092915050565b600061262382846125e6565b915081905092915050565b7f43616c6c6572206d757374206265206120686f73706974616c00000000000000600082015250565b60006126646019836123c0565b915061266f8261262e565b602082019050919050565b6000602082019050818103600083015261269381612657565b9050919050565b7f4e487b7100000000000000000000000000000000000000000000000000000000600052603260045260246000fd5b7f4e487b7100000000000000000000000000000000000000000000000000000000600052602260045260246000fd5b6000600282049050600182168061271057607f821691505b602082108103612723576127226126c9565b5b50919050565b7f496e76616c696420726571756573742049440000000000000000000000000000600082015250565b600061275f6012836123c0565b915061276a82612729565b602082019050919050565b6000602082019050818103600083015261278e81612752565b9050919050565b7f5265717565737420616c72656164792070726f63657373656400000000000000600082015250565b60006127cb6019836123c0565b91506127d682612795565b602082019050919050565b600060208201905081810360008301526127fa816127be565b9050919050565b7f50617469656e74206d757374206265206120726567697374657265642070617260008201527f7469636970616e74000000000000000000000000000000000000000000000000602082015250565b600061285d6028836123c0565b915061286882612801565b604082019050919050565b6000602082019050818103600083015261288c81612850565b9050919050565b7f70617469656e7400000000000000000000000000000000000000000000000000600082015250565b60006128c960078361257a565b91506128d482612893565b600782019050919050565b60006128ea826128bc565b9150819050919050565b7f546172676574206d75737420626520612070617469656e740000000000000000600082015250565b600061292a6018836123c0565b9150612935826128f4565b602082019050919050565b600060208201905081810360008301526129598161291d565b9050919050565b7f46696c65206c6973742063616e6e6f7420626520656d7074792069662069734160008201527f6c6c2069732066616c7365000000000000000000000000000000000000000000602082015250565b60006129bc602b836123c0565b91506129c782612960565b604082019050919050565b600060208201905081810360008301526129eb816129af565b9050919050565b7f4e487b7100000000000000000000000000000000000000000000000000000000600052601160045260246000fd5b6000612a2c82611a0f565b91507fffffffffffffffffffffffffffffffffffffffffffffffffffffffffffffffff8203612a5e57612a5d6129f2565b5b600182019050919050565b600082825260208201905092915050565b6000612a8582611a69565b612a8f8185612a69565b935083602082028501612aa185611a85565b8060005b85811015612add5784840389528151612abe8582611b25565b9450612ac983611b39565b925060208a01995050600181019050612aa5565b50829750879550505050505092915050565b600060a0820190508181036000830152612b098188612a7a565b9050612b1860208301876121cb565b612b256040830186612204565b612b326060830185612213565b612b3f6080830184612213565b9695505050505050565b7f43616c6c6572206d75737420626520612070617469656e740000000000000000600082015250565b6000612b7f6018836123c0565b9150612b8a82612b49565b602082019050919050565b60006020820190508181036000830152612bae81612b72565b9050919050565b60008190508160005260206000209050919050565b60006020601f8301049050919050565b600082821b905092915050565b600060088302612c177fffffffffffffffffffffffffffffffffffffffffffffffffffffffffffffffff82612bda565b612c218683612bda565b95508019841693508086168417925050509392505050565b6000612c54612c4f612c4a84611a0f565b611e22565b611a0f565b9050919050565b6000819050919050565b612c6e83612c39565b612c82612c7a82612c5b565b848454612be7565b825550505050565b600090565b612c97612c8a565b612ca2818484612c65565b505050565b5b81811015612cc657612cbb600082612c8f565b600181019050612ca8565b5050565b601f821115612d0b57612cdc81612bb5565b612ce584612bca565b81016020851015612cf4578190505b612d08612d0085612bca565b830182612ca7565b50505b505050565b600082821c905092915050565b6000612d2e60001984600802612d10565b1980831691505092915050565b6000612d478383612d1d565b9150826002028217905092915050565b612d6082611a95565b67ffffffffffffffff811115612d7957612d78611ecd565b5b612d8382546126f8565b612d8e828285612cca565b600060209050601f831160018114612dc15760008415612daf578287015190505b612db98582612d3b565b865550612e21565b601f198416612dcf86612bb5565b60005b82811015612df757848901518255600182019150602085019450602081019050612dd2565b86831015612e145784890151612e10601f891682612d1d565b8355505b6001600288020188555050505b50505050505056fea2646970667358221220dadb6dee252d887ca2bce1b22d2eddc89a807112876a966d7bfa18ac6f4b4d5b64736f6c634300081c0033",
  "linkReferences": {},
  "deployedLinkReferences": {}
}