{
  "_format": "hh-sol-artifact-1",
  "contractName": "RequestContract",
  "sourceName": "contracts/Request.sol",
  "abi": [
    {
      "inputs": [
        {
          "internalType": "address",
          "name": "_registration",
          "type": "address"
        }
      ],
      "stateMutability": "nonpayable",
      "type": "constructor"
    },
    {
      "anonymous": false,
      "inputs": [
        {
          "indexed": true,
          "internalType": "uint256",
          "name": "requestId",
          "type": "uint256"
        },
        {
          "indexed": true,
          "internalType": "address",
          "name": "patient",
          "type": "address"
        },
        {
          "indexed": true,
          "internalType": "address",
          "name": "hospital",
          "type": "address"
        },
        {
          "indexed": false,
          "internalType": "string[]",
          "name": "fileList",
          "type": "string[]"
        },
        {
          "indexed": false,
          "internalType": "uint256",
          "name": "deadline",
          "type": "uint256"
        },
        {
          "indexed": false,
          "internalType": "enum RequestContract.AccessType",
          "name": "accessType",
          "type": "uint8"
        },
        {
          "indexed": false,
          "internalType": "bool",
          "name": "isProcessed",
          "type": "bool"
        }
      ],
      "name": "RequestMade",
      "type": "event"
    },
    {
      "inputs": [],
      "name": "getHospitalRequests",
      "outputs": [
        {
          "components": [
            {
              "internalType": "uint256",
              "name": "requestId",
              "type": "uint256"
            },
            {
              "internalType": "address",
              "name": "hospital",
              "type": "address"
            },
            {
              "internalType": "address",
              "name": "patient",
              "type": "address"
            },
            {
              "internalType": "string[]",
              "name": "fileList",
              "type": "string[]"
            },
            {
              "internalType": "uint256",
              "name": "deadline",
              "type": "uint256"
            },
            {
              "internalType": "enum RequestContract.AccessType",
              "name": "accessType",
              "type": "uint8"
            },
            {
              "internalType": "bool",
              "name": "isProcessed",
              "type": "bool"
            }
          ],
          "internalType": "struct RequestContract.Request[]",
          "name": "",
          "type": "tuple[]"
        }
      ],
      "stateMutability": "view",
      "type": "function"
    },
    {
      "inputs": [],
      "name": "getPatientRequests",
      "outputs": [
        {
          "components": [
            {
              "internalType": "uint256",
              "name": "requestId",
              "type": "uint256"
            },
            {
              "internalType": "address",
              "name": "hospital",
              "type": "address"
            },
            {
              "internalType": "address",
              "name": "patient",
              "type": "address"
            },
            {
              "internalType": "string[]",
              "name": "fileList",
              "type": "string[]"
            },
            {
              "internalType": "uint256",
              "name": "deadline",
              "type": "uint256"
            },
            {
              "internalType": "enum RequestContract.AccessType",
              "name": "accessType",
              "type": "uint8"
            },
            {
              "internalType": "bool",
              "name": "isProcessed",
              "type": "bool"
            }
          ],
          "internalType": "struct RequestContract.Request[]",
          "name": "",
          "type": "tuple[]"
        }
      ],
      "stateMutability": "view",
      "type": "function"
    },
    {
      "inputs": [
        {
          "internalType": "uint256",
          "name": "requestId",
          "type": "uint256"
        }
      ],
      "name": "getRequest",
      "outputs": [
        {
          "components": [
            {
              "internalType": "uint256",
              "name": "requestId",
              "type": "uint256"
            },
            {
              "internalType": "address",
              "name": "hospital",
              "type": "address"
            },
            {
              "internalType": "address",
              "name": "patient",
              "type": "address"
            },
            {
              "internalType": "string[]",
              "name": "fileList",
              "type": "string[]"
            },
            {
              "internalType": "uint256",
              "name": "deadline",
              "type": "uint256"
            },
            {
              "internalType": "enum RequestContract.AccessType",
              "name": "accessType",
              "type": "uint8"
            },
            {
              "internalType": "bool",
              "name": "isProcessed",
              "type": "bool"
            }
          ],
          "internalType": "struct RequestContract.Request",
          "name": "",
          "type": "tuple"
        }
      ],
      "stateMutability": "view",
      "type": "function"
    },
    {
      "inputs": [
        {
          "internalType": "address",
          "name": "patient",
          "type": "address"
        },
        {
          "internalType": "string[]",
          "name": "fileList",
          "type": "string[]"
        },
        {
          "internalType": "uint256",
          "name": "deadline",
          "type": "uint256"
        },
        {
          "internalType": "enum RequestContract.AccessType",
          "name": "accessType",
          "type": "uint8"
        }
      ],
      "name": "makeRequest",
      "outputs": [
        {
          "internalType": "uint256",
          "name": "",
          "type": "uint256"
        }
      ],
      "stateMutability": "nonpayable",
      "type": "function"
    },
    {
      "inputs": [],
      "name": "registration",
      "outputs": [
        {
          "internalType": "contract IRegistration",
          "name": "",
          "type": "address"
        }
      ],
      "stateMutability": "view",
      "type": "function"
    },
    {
      "inputs": [],
      "name": "requestCounter",
      "outputs": [
        {
          "internalType": "uint256",
          "name": "",
          "type": "uint256"
        }
      ],
      "stateMutability": "view",
      "type": "function"
    },
    {
      "inputs": [
        {
          "internalType": "uint256",
          "name": "",
          "type": "uint256"
        }
      ],
      "name": "requests",
      "outputs": [
        {
          "internalType": "uint256",
          "name": "requestId",
          "type": "uint256"
        },
        {
          "internalType": "address",
          "name": "hospital",
          "type": "address"
        },
        {
          "internalType": "address",
          "name": "patient",
          "type": "address"
        },
        {
          "internalType": "uint256",
          "name": "deadline",
          "type": "uint256"
        },
        {
          "internalType": "enum RequestContract.AccessType",
          "name": "accessType",
          "type": "uint8"
        },
        {
          "internalType": "bool",
          "name": "isProcessed",
          "type": "bool"
        }
      ],
      "stateMutability": "view",
      "type": "function"
    },
    {
      "inputs": [
        {
          "internalType": "uint256",
          "name": "requestId",
          "type": "uint256"
        }
      ],
      "name": "setRequestProcessed",
      "outputs": [],
      "stateMutability": "nonpayable",
      "type": "function"
    }
  ],
  "bytecode": "0x608060405234801561001057600080fd5b50604051612d98380380612d98833981810160405281019061003291906100e4565b80600460006101000a81548173ffffffffffffffffffffffffffffffffffffffff021916908373ffffffffffffffffffffffffffffffffffffffff160217905550600060018190555050610111565b600080fd5b600073ffffffffffffffffffffffffffffffffffffffff82169050919050565b60006100b182610086565b9050919050565b6100c1816100a6565b81146100cc57600080fd5b50565b6000815190506100de816100b8565b92915050565b6000602082840312156100fa576100f9610081565b5b6000610108848285016100cf565b91505092915050565b612c78806101206000396000f3fe608060405234801561001057600080fd5b50600436106100885760003560e01c806381d12c581161005b57806381d12c5814610115578063973a814e1461014a578063c58343ef14610168578063e42315e81461019857610088565b80630423b2471461008d57806327b9c257146100ab578063359427f5146100c7578063443bd1d0146100f7575b600080fd5b6100956101b6565b6040516100a29190611c97565b60405180910390f35b6100c560048036038101906100c09190611cf9565b610718565b005b6100e160048036038101906100dc9190611f92565b6107f2565b6040516100ee9190612024565b60405180910390f35b6100ff610f14565b60405161010c919061209e565b60405180910390f35b61012f600480360381019061012a9190611cf9565b610f3a565b604051610141969594939291906120e6565b60405180910390f35b610152610fd0565b60405161015f9190612024565b60405180910390f35b610182600480360381019061017d9190611cf9565b610fd6565b60405161018f91906121e3565b60405180910390f35b6101a0611242565b6040516101ad9190611c97565b60405180910390f35b6060600460009054906101000a900473ffffffffffffffffffffffffffffffffffffffff1673ffffffffffffffffffffffffffffffffffffffff16634a34495f336040518263ffffffff1660e01b81526004016102139190612205565b602060405180830381865afa158015610230573d6000803e3d6000fd5b505050506040513d601f19601f82011682018060405250810190610254919061224c565b610293576040517f08c379a000000000000000000000000000000000000000000000000000000000815260040161028a906122fc565b60405180910390fd5b6000600460009054906101000a900473ffffffffffffffffffffffffffffffffffffffff1673ffffffffffffffffffffffffffffffffffffffff166344e0b8c1336040518263ffffffff1660e01b81526004016102f09190612205565b600060405180830381865afa15801561030d573d6000803e3d6000fd5b505050506040513d6000823e3d601f19601f82011682018060405250810190610336919061238c565b925050506040516020016103499061248a565b604051602081830303815290604052805190602001208160405160200161037091906124d0565b60405160208183030381529060405280519060200120146103c6576040517f08c379a00000000000000000000000000000000000000000000000000000000081526004016103bd90612533565b60405180910390fd5b6000600360003373ffffffffffffffffffffffffffffffffffffffff1673ffffffffffffffffffffffffffffffffffffffff16815260200190815260200160002080548060200260200160405190810160405280929190818152602001828054801561045157602002820191906000526020600020905b81548152602001906001019080831161043d575b505050505090506000815167ffffffffffffffff81111561047557610474611d57565b5b6040519080825280602002602001820160405280156104ae57816020015b61049b6117a4565b8152602001906001900390816104935790505b50905060005b825181101561070e576000808483815181106104d3576104d2612553565b5b602002602001015181526020019081526020016000206040518060e0016040529081600082015481526020016001820160009054906101000a900473ffffffffffffffffffffffffffffffffffffffff1673ffffffffffffffffffffffffffffffffffffffff1673ffffffffffffffffffffffffffffffffffffffff1681526020016002820160009054906101000a900473ffffffffffffffffffffffffffffffffffffffff1673ffffffffffffffffffffffffffffffffffffffff1673ffffffffffffffffffffffffffffffffffffffff16815260200160038201805480602002602001604051908101604052809291908181526020016000905b8282101561067b5783829060005260206000200180546105ee906125b1565b80601f016020809104026020016040519081016040528092919081815260200182805461061a906125b1565b80156106675780601f1061063c57610100808354040283529160200191610667565b820191906000526020600020905b81548152906001019060200180831161064a57829003601f168201915b5050505050815260200190600101906105cf565b505050508152602001600482015481526020016005820160009054906101000a900460ff1660028111156106b2576106b1611ad3565b5b60028111156106c4576106c3611ad3565b5b81526020016005820160019054906101000a900460ff1615151515815250508282815181106106f6576106f5612553565b5b602002602001018190525080806001019150506104b4565b5080935050505090565b60008111801561072a57506001548111155b610769576040517f08c379a00000000000000000000000000000000000000000000000000000000081526004016107609061262e565b60405180910390fd5b600080600083815260200190815260200160002090508060050160019054906101000a900460ff16156107d1576040517f08c379a00000000000000000000000000000000000000000000000000000000081526004016107c89061269a565b60405180910390fd5b60018160050160016101000a81548160ff0219169083151502179055505050565b6000600460009054906101000a900473ffffffffffffffffffffffffffffffffffffffff1673ffffffffffffffffffffffffffffffffffffffff16634a34495f336040518263ffffffff1660e01b815260040161084f9190612205565b602060405180830381865afa15801561086c573d6000803e3d6000fd5b505050506040513d601f19601f82011682018060405250810190610890919061224c565b6108cf576040517f08c379a00000000000000000000000000000000000000000000000000000000081526004016108c6906122fc565b60405180910390fd5b6000600460009054906101000a900473ffffffffffffffffffffffffffffffffffffffff1673ffffffffffffffffffffffffffffffffffffffff166344e0b8c1336040518263ffffffff1660e01b815260040161092c9190612205565b600060405180830381865afa158015610949573d6000803e3d6000fd5b505050506040513d6000823e3d601f19601f82011682018060405250810190610972919061238c565b925050506040516020016109859061248a565b60405160208183030381529060405280519060200120816040516020016109ac91906124d0565b6040516020818303038152906040528051906020012014610a02576040517f08c379a00000000000000000000000000000000000000000000000000000000081526004016109f990612533565b60405180910390fd5b600460009054906101000a900473ffffffffffffffffffffffffffffffffffffffff1673ffffffffffffffffffffffffffffffffffffffff16634a34495f876040518263ffffffff1660e01b8152600401610a5d9190612205565b602060405180830381865afa158015610a7a573d6000803e3d6000fd5b505050506040513d601f19601f82011682018060405250810190610a9e919061224c565b610add576040517f08c379a0000000000000000000000000000000000000000000000000000000008152600401610ad49061272c565b60405180910390fd5b6000600460009054906101000a900473ffffffffffffffffffffffffffffffffffffffff1673ffffffffffffffffffffffffffffffffffffffff166344e0b8c1886040518263ffffffff1660e01b8152600401610b3a9190612205565b600060405180830381865afa158015610b57573d6000803e3d6000fd5b505050506040513d6000823e3d601f19601f82011682018060405250810190610b80919061238c565b92505050604051602001610b9390612798565b6040516020818303038152906040528051906020012081604051602001610bba91906124d0565b6040516020818303038152906040528051906020012014610c10576040517f08c379a0000000000000000000000000000000000000000000000000000000008152600401610c07906127f9565b60405180910390fd5b60016000815480929190610c2390612848565b91905055506000600154905060006040518060e001604052808381526020013373ffffffffffffffffffffffffffffffffffffffff1681526020018a73ffffffffffffffffffffffffffffffffffffffff168152602001898152602001888152602001876002811115610c9957610c98611ad3565b5b8152602001600015158152509050806000808481526020019081526020016000206000820151816000015560208201518160010160006101000a81548173ffffffffffffffffffffffffffffffffffffffff021916908373ffffffffffffffffffffffffffffffffffffffff16021790555060408201518160020160006101000a81548173ffffffffffffffffffffffffffffffffffffffff021916908373ffffffffffffffffffffffffffffffffffffffff1602179055506060820151816003019080519060200190610d6e929190611821565b506080820151816004015560a08201518160050160006101000a81548160ff02191690836002811115610da457610da3611ad3565b5b021790555060c08201518160050160016101000a81548160ff021916908315150217905550905050600260008a73ffffffffffffffffffffffffffffffffffffffff1673ffffffffffffffffffffffffffffffffffffffff168152602001908152602001600020829080600181540180825580915050600190039060005260206000200160009091909190915055600360003373ffffffffffffffffffffffffffffffffffffffff1673ffffffffffffffffffffffffffffffffffffffff1681526020019081526020016000208290806001815401808255809150506001900390600052602060002001600090919091909150553373ffffffffffffffffffffffffffffffffffffffff168973ffffffffffffffffffffffffffffffffffffffff16837f220df1c102b594afa0f01c835ba24ff6c2c1a9ac0a87c50b529740caf751bdcb8b8b8b6000604051610efd9493929190612916565b60405180910390a481945050505050949350505050565b600460009054906101000a900473ffffffffffffffffffffffffffffffffffffffff1681565b60006020528060005260406000206000915090508060000154908060010160009054906101000a900473ffffffffffffffffffffffffffffffffffffffff16908060020160009054906101000a900473ffffffffffffffffffffffffffffffffffffffff16908060040154908060050160009054906101000a900460ff16908060050160019054906101000a900460ff16905086565b60015481565b610fde6117a4565b600082118015610ff057506001548211155b61102f576040517f08c379a00000000000000000000000000000000000000000000000000000000081526004016110269061262e565b60405180910390fd5b6000808381526020019081526020016000206040518060e0016040529081600082015481526020016001820160009054906101000a900473ffffffffffffffffffffffffffffffffffffffff1673ffffffffffffffffffffffffffffffffffffffff1673ffffffffffffffffffffffffffffffffffffffff1681526020016002820160009054906101000a900473ffffffffffffffffffffffffffffffffffffffff1673ffffffffffffffffffffffffffffffffffffffff1673ffffffffffffffffffffffffffffffffffffffff16815260200160038201805480602002602001604051908101604052809291908181526020016000905b828210156111d3578382906000526020600020018054611146906125b1565b80601f0160208091040260200160405190810160405280929190818152602001828054611172906125b1565b80156111bf5780601f10611194576101008083540402835291602001916111bf565b820191906000526020600020905b8154815290600101906020018083116111a257829003601f168201915b505050505081526020019060010190611127565b505050508152602001600482015481526020016005820160009054906101000a900460ff16600281111561120a57611209611ad3565b5b600281111561121c5761121b611ad3565b5b81526020016005820160019054906101000a900460ff1615151515815250509050919050565b6060600460009054906101000a900473ffffffffffffffffffffffffffffffffffffffff1673ffffffffffffffffffffffffffffffffffffffff16634a34495f336040518263ffffffff1660e01b815260040161129f9190612205565b602060405180830381865afa1580156112bc573d6000803e3d6000fd5b505050506040513d601f19601f820116820180604052508101906112e0919061224c565b61131f576040517f08c379a0000000000000000000000000000000000000000000000000000000008152600401611316906122fc565b60405180910390fd5b6000600460009054906101000a900473ffffffffffffffffffffffffffffffffffffffff1673ffffffffffffffffffffffffffffffffffffffff166344e0b8c1336040518263ffffffff1660e01b815260040161137c9190612205565b600060405180830381865afa158015611399573d6000803e3d6000fd5b505050506040513d6000823e3d601f19601f820116820180604052508101906113c2919061238c565b925050506040516020016113d590612798565b60405160208183030381529060405280519060200120816040516020016113fc91906124d0565b6040516020818303038152906040528051906020012014611452576040517f08c379a0000000000000000000000000000000000000000000000000000000008152600401611449906129ae565b60405180910390fd5b6000600260003373ffffffffffffffffffffffffffffffffffffffff1673ffffffffffffffffffffffffffffffffffffffff1681526020019081526020016000208054806020026020016040519081016040528092919081815260200182805480156114dd57602002820191906000526020600020905b8154815260200190600101908083116114c9575b505050505090506000815167ffffffffffffffff81111561150157611500611d57565b5b60405190808252806020026020018201604052801561153a57816020015b6115276117a4565b81526020019060019003908161151f5790505b50905060005b825181101561179a5760008084838151811061155f5761155e612553565b5b602002602001015181526020019081526020016000206040518060e0016040529081600082015481526020016001820160009054906101000a900473ffffffffffffffffffffffffffffffffffffffff1673ffffffffffffffffffffffffffffffffffffffff1673ffffffffffffffffffffffffffffffffffffffff1681526020016002820160009054906101000a900473ffffffffffffffffffffffffffffffffffffffff1673ffffffffffffffffffffffffffffffffffffffff1673ffffffffffffffffffffffffffffffffffffffff16815260200160038201805480602002602001604051908101604052809291908181526020016000905b8282101561170757838290600052602060002001805461167a906125b1565b80601f01602080910402602001604051908101604052809291908181526020018280546116a6906125b1565b80156116f35780601f106116c8576101008083540402835291602001916116f3565b820191906000526020600020905b8154815290600101906020018083116116d657829003601f168201915b50505050508152602001906001019061165b565b505050508152602001600482015481526020016005820160009054906101000a900460ff16600281111561173e5761173d611ad3565b5b60028111156117505761174f611ad3565b5b81526020016005820160019054906101000a900460ff16151515158152505082828151811061178257611781612553565b5b60200260200101819052508080600101915050611540565b5080935050505090565b6040518060e0016040528060008152602001600073ffffffffffffffffffffffffffffffffffffffff168152602001600073ffffffffffffffffffffffffffffffffffffffff16815260200160608152602001600081526020016000600281111561181257611811611ad3565b5b81526020016000151581525090565b828054828255906000526020600020908101928215611869579160200282015b828111156118685782518290816118589190612b70565b5091602001919060010190611841565b5b509050611876919061187a565b5090565b5b8082111561189a5760008181611891919061189e565b5060010161187b565b5090565b5080546118aa906125b1565b6000825580601f106118bc57506118db565b601f0160209004906000526020600020908101906118da91906118de565b5b50565b5b808211156118f75760008160009055506001016118df565b5090565b600081519050919050565b600082825260208201905092915050565b6000819050602082019050919050565b6000819050919050565b61193a81611927565b82525050565b600073ffffffffffffffffffffffffffffffffffffffff82169050919050565b600061196b82611940565b9050919050565b61197b81611960565b82525050565b600081519050919050565b600082825260208201905092915050565b6000819050602082019050919050565b600081519050919050565b600082825260208201905092915050565b60005b838110156119e75780820151818401526020810190506119cc565b60008484015250505050565b6000601f19601f8301169050919050565b6000611a0f826119ad565b611a1981856119b8565b9350611a298185602086016119c9565b611a32816119f3565b840191505092915050565b6000611a498383611a04565b905092915050565b6000602082019050919050565b6000611a6982611981565b611a73818561198c565b935083602082028501611a858561199d565b8060005b85811015611ac15784840389528151611aa28582611a3d565b9450611aad83611a51565b925060208a01995050600181019050611a89565b50829750879550505050505092915050565b7f4e487b7100000000000000000000000000000000000000000000000000000000600052602160045260246000fd5b60038110611b1357611b12611ad3565b5b50565b6000819050611b2482611b02565b919050565b6000611b3482611b16565b9050919050565b611b4481611b29565b82525050565b60008115159050919050565b611b5f81611b4a565b82525050565b600060e083016000830151611b7d6000860182611931565b506020830151611b906020860182611972565b506040830151611ba36040860182611972565b5060608301518482036060860152611bbb8282611a5e565b9150506080830151611bd06080860182611931565b5060a0830151611be360a0860182611b3b565b5060c0830151611bf660c0860182611b56565b508091505092915050565b6000611c0d8383611b65565b905092915050565b6000602082019050919050565b6000611c2d826118fb565b611c378185611906565b935083602082028501611c4985611917565b8060005b85811015611c855784840389528151611c668582611c01565b9450611c7183611c15565b925060208a01995050600181019050611c4d565b50829750879550505050505092915050565b60006020820190508181036000830152611cb18184611c22565b905092915050565b6000604051905090565b600080fd5b600080fd5b611cd681611927565b8114611ce157600080fd5b50565b600081359050611cf381611ccd565b92915050565b600060208284031215611d0f57611d0e611cc3565b5b6000611d1d84828501611ce4565b91505092915050565b611d2f81611960565b8114611d3a57600080fd5b50565b600081359050611d4c81611d26565b92915050565b600080fd5b7f4e487b7100000000000000000000000000000000000000000000000000000000600052604160045260246000fd5b611d8f826119f3565b810181811067ffffffffffffffff82111715611dae57611dad611d57565b5b80604052505050565b6000611dc1611cb9565b9050611dcd8282611d86565b919050565b600067ffffffffffffffff821115611ded57611dec611d57565b5b602082029050602081019050919050565b600080fd5b600080fd5b600067ffffffffffffffff821115611e2357611e22611d57565b5b611e2c826119f3565b9050602081019050919050565b82818337600083830152505050565b6000611e5b611e5684611e08565b611db7565b905082815260208101848484011115611e7757611e76611e03565b5b611e82848285611e39565b509392505050565b600082601f830112611e9f57611e9e611d52565b5b8135611eaf848260208601611e48565b91505092915050565b6000611ecb611ec684611dd2565b611db7565b90508083825260208201905060208402830185811115611eee57611eed611dfe565b5b835b81811015611f3557803567ffffffffffffffff811115611f1357611f12611d52565b5b808601611f208982611e8a565b85526020850194505050602081019050611ef0565b5050509392505050565b600082601f830112611f5457611f53611d52565b5b8135611f64848260208601611eb8565b91505092915050565b60038110611f7a57600080fd5b50565b600081359050611f8c81611f6d565b92915050565b60008060008060808587031215611fac57611fab611cc3565b5b6000611fba87828801611d3d565b945050602085013567ffffffffffffffff811115611fdb57611fda611cc8565b5b611fe787828801611f3f565b9350506040611ff887828801611ce4565b925050606061200987828801611f7d565b91505092959194509250565b61201e81611927565b82525050565b60006020820190506120396000830184612015565b92915050565b6000819050919050565b600061206461205f61205a84611940565b61203f565b611940565b9050919050565b600061207682612049565b9050919050565b60006120888261206b565b9050919050565b6120988161207d565b82525050565b60006020820190506120b3600083018461208f565b92915050565b6120c281611960565b82525050565b6120d181611b29565b82525050565b6120e081611b4a565b82525050565b600060c0820190506120fb6000830189612015565b61210860208301886120b9565b61211560408301876120b9565b6121226060830186612015565b61212f60808301856120c8565b61213c60a08301846120d7565b979650505050505050565b600060e08301600083015161215f6000860182611931565b5060208301516121726020860182611972565b5060408301516121856040860182611972565b506060830151848203606086015261219d8282611a5e565b91505060808301516121b26080860182611931565b5060a08301516121c560a0860182611b3b565b5060c08301516121d860c0860182611b56565b508091505092915050565b600060208201905081810360008301526121fd8184612147565b905092915050565b600060208201905061221a60008301846120b9565b92915050565b61222981611b4a565b811461223457600080fd5b50565b60008151905061224681612220565b92915050565b60006020828403121561226257612261611cc3565b5b600061227084828501612237565b91505092915050565b600082825260208201905092915050565b7f43616c6c6572206d75737420626520612072656769737465726564207061727460008201527f69636970616e7400000000000000000000000000000000000000000000000000602082015250565b60006122e6602783612279565b91506122f18261228a565b604082019050919050565b60006020820190508181036000830152612315816122d9565b9050919050565b600061232f61232a84611e08565b611db7565b90508281526020810184848401111561234b5761234a611e03565b5b6123568482856119c9565b509392505050565b600082601f83011261237357612372611d52565b5b815161238384826020860161231c565b91505092915050565b6000806000606084860312156123a5576123a4611cc3565b5b600084015167ffffffffffffffff8111156123c3576123c2611cc8565b5b6123cf8682870161235e565b935050602084015167ffffffffffffffff8111156123f0576123ef611cc8565b5b6123fc8682870161235e565b925050604084015167ffffffffffffffff81111561241d5761241c611cc8565b5b6124298682870161235e565b9150509250925092565b600081905092915050565b7f686f73706974616c000000000000000000000000000000000000000000000000600082015250565b6000612474600883612433565b915061247f8261243e565b600882019050919050565b600061249582612467565b9150819050919050565b60006124aa826119ad565b6124b48185612433565b93506124c48185602086016119c9565b80840191505092915050565b60006124dc828461249f565b915081905092915050565b7f43616c6c6572206d757374206265206120686f73706974616c00000000000000600082015250565b600061251d601983612279565b9150612528826124e7565b602082019050919050565b6000602082019050818103600083015261254c81612510565b9050919050565b7f4e487b7100000000000000000000000000000000000000000000000000000000600052603260045260246000fd5b7f4e487b7100000000000000000000000000000000000000000000000000000000600052602260045260246000fd5b600060028204905060018216806125c957607f821691505b6020821081036125dc576125db612582565b5b50919050565b7f496e76616c696420726571756573742049440000000000000000000000000000600082015250565b6000612618601283612279565b9150612623826125e2565b602082019050919050565b600060208201905081810360008301526126478161260b565b9050919050565b7f5265717565737420616c72656164792070726f63657373656400000000000000600082015250565b6000612684601983612279565b915061268f8261264e565b602082019050919050565b600060208201905081810360008301526126b381612677565b9050919050565b7f50617469656e74206d757374206265206120726567697374657265642070617260008201527f7469636970616e74000000000000000000000000000000000000000000000000602082015250565b6000612716602883612279565b9150612721826126ba565b604082019050919050565b6000602082019050818103600083015261274581612709565b9050919050565b7f70617469656e7400000000000000000000000000000000000000000000000000600082015250565b6000612782600783612433565b915061278d8261274c565b600782019050919050565b60006127a382612775565b9150819050919050565b7f546172676574206d75737420626520612070617469656e740000000000000000600082015250565b60006127e3601883612279565b91506127ee826127ad565b602082019050919050565b60006020820190508181036000830152612812816127d6565b9050919050565b7f4e487b7100000000000000000000000000000000000000000000000000000000600052601160045260246000fd5b600061285382611927565b91507fffffffffffffffffffffffffffffffffffffffffffffffffffffffffffffffff820361288557612884612819565b5b600182019050919050565b600082825260208201905092915050565b60006128ac82611981565b6128b68185612890565b9350836020820285016128c88561199d565b8060005b8581101561290457848403895281516128e58582611a3d565b94506128f083611a51565b925060208a019950506001810190506128cc565b50829750879550505050505092915050565b6000608082019050818103600083015261293081876128a1565b905061293f6020830186612015565b61294c60408301856120c8565b61295960608301846120d7565b95945050505050565b7f43616c6c6572206d75737420626520612070617469656e740000000000000000600082015250565b6000612998601883612279565b91506129a382612962565b602082019050919050565b600060208201905081810360008301526129c78161298b565b9050919050565b60008190508160005260206000209050919050565b60006020601f8301049050919050565b600082821b905092915050565b600060088302612a307fffffffffffffffffffffffffffffffffffffffffffffffffffffffffffffffff826129f3565b612a3a86836129f3565b95508019841693508086168417925050509392505050565b6000612a6d612a68612a6384611927565b61203f565b611927565b9050919050565b6000819050919050565b612a8783612a52565b612a9b612a9382612a74565b848454612a00565b825550505050565b600090565b612ab0612aa3565b612abb818484612a7e565b505050565b5b81811015612adf57612ad4600082612aa8565b600181019050612ac1565b5050565b601f821115612b2457612af5816129ce565b612afe846129e3565b81016020851015612b0d578190505b612b21612b19856129e3565b830182612ac0565b50505b505050565b600082821c905092915050565b6000612b4760001984600802612b29565b1980831691505092915050565b6000612b608383612b36565b9150826002028217905092915050565b612b79826119ad565b67ffffffffffffffff811115612b9257612b91611d57565b5b612b9c82546125b1565b612ba7828285612ae3565b600060209050601f831160018114612bda5760008415612bc8578287015190505b612bd28582612b54565b865550612c3a565b601f198416612be8866129ce565b60005b82811015612c1057848901518255600182019150602085019450602081019050612beb565b86831015612c2d5784890151612c29601f891682612b36565b8355505b6001600288020188555050505b50505050505056fea26469706673582212209c5f3e3b40f6e3c41a1d99aa1db6a2ab583f928d22fe1a44a4352c42d311118864736f6c634300081c0033",
  "linkReferences": {},
  "deployedLinkReferences": {}
}