{
  "_format": "hh-sol-artifact-1",
  "contractName": "ValidationContract",
  "sourceName": "contracts/Validation.sol",
  "abi": [
    {
      "inputs": [
        {
          "internalType": "address",
          "name": "_registration",
          "type": "address"
        },
        {
          "internalType": "address",
          "name": "_accessControl",
          "type": "address"
        },
        {
          "internalType": "address",
          "name": "_fileRegistry",
          "type": "address"
        }
      ],
      "stateMutability": "nonpayable",
      "type": "constructor"
    },
    {
      "anonymous": false,
      "inputs": [
        {
          "indexed": true,
          "internalType": "bytes32",
          "name": "tokenHash",
          "type": "bytes32"
        },
        {
          "indexed": true,
          "internalType": "address",
          "name": "hospital",
          "type": "address"
        },
        {
          "indexed": true,
          "internalType": "address",
          "name": "patient",
          "type": "address"
        },
        {
          "indexed": false,
          "internalType": "string[]",
          "name": "fileHashes",
          "type": "string[]"
        },
        {
          "indexed": false,
          "internalType": "uint256",
          "name": "expiry",
          "type": "uint256"
        }
      ],
      "name": "ReadAccessTokenGenerated",
      "type": "event"
    },
    {
      "anonymous": false,
      "inputs": [
        {
          "indexed": true,
          "internalType": "bytes32",
          "name": "tokenHash",
          "type": "bytes32"
        },
        {
          "indexed": true,
          "internalType": "address",
          "name": "hospital",
          "type": "address"
        }
      ],
      "name": "TokenValidated",
      "type": "event"
    },
    {
      "anonymous": false,
      "inputs": [
        {
          "indexed": true,
          "internalType": "bytes32",
          "name": "tokenHash",
          "type": "bytes32"
        },
        {
          "indexed": true,
          "internalType": "address",
          "name": "hospital",
          "type": "address"
        },
        {
          "indexed": true,
          "internalType": "address",
          "name": "patient",
          "type": "address"
        },
        {
          "indexed": false,
          "internalType": "uint256",
          "name": "expiry",
          "type": "uint256"
        }
      ],
      "name": "WriteAccessTokenGenerated",
      "type": "event"
    },
    {
      "inputs": [],
      "name": "accessControl",
      "outputs": [
        {
          "internalType": "contract IAccessControl",
          "name": "",
          "type": "address"
        }
      ],
      "stateMutability": "view",
      "type": "function"
    },
    {
      "inputs": [
        {
          "internalType": "bytes32[]",
          "name": "tokenHashes",
          "type": "bytes32[]"
        }
      ],
      "name": "cleanupExpiredTokens",
      "outputs": [],
      "stateMutability": "nonpayable",
      "type": "function"
    },
    {
      "inputs": [],
      "name": "fileRegistry",
      "outputs": [
        {
          "internalType": "contract IFileRegistry",
          "name": "",
          "type": "address"
        }
      ],
      "stateMutability": "view",
      "type": "function"
    },
    {
      "inputs": [],
      "name": "registration",
      "outputs": [
        {
          "internalType": "contract IRegistration",
          "name": "",
          "type": "address"
        }
      ],
      "stateMutability": "view",
      "type": "function"
    },
    {
      "inputs": [
        {
          "internalType": "address",
          "name": "patient",
          "type": "address"
        },
        {
          "internalType": "string[]",
          "name": "fileHashes",
          "type": "string[]"
        }
      ],
      "name": "requestFileAccess",
      "outputs": [
        {
          "internalType": "bytes32",
          "name": "",
          "type": "bytes32"
        }
      ],
      "stateMutability": "nonpayable",
      "type": "function"
    },
    {
      "inputs": [
        {
          "internalType": "address",
          "name": "patient",
          "type": "address"
        }
      ],
      "name": "requestFileWriteAccess",
      "outputs": [
        {
          "internalType": "bytes32",
          "name": "",
          "type": "bytes32"
        }
      ],
      "stateMutability": "nonpayable",
      "type": "function"
    },
    {
      "inputs": [
        {
          "internalType": "bytes32",
          "name": "tokenHash",
          "type": "bytes32"
        },
        {
          "internalType": "bytes",
          "name": "signature",
          "type": "bytes"
        },
        {
          "internalType": "bool",
          "name": "isWrite",
          "type": "bool"
        },
        {
          "internalType": "string[]",
          "name": "fileHashes",
          "type": "string[]"
        },
        {
          "internalType": "string[]",
          "name": "keyList",
          "type": "string[]"
        }
      ],
      "name": "validateToken",
      "outputs": [
        {
          "internalType": "bool",
          "name": "",
          "type": "bool"
        }
      ],
      "stateMutability": "nonpayable",
      "type": "function"
    }
  ],
  "bytecode": "0x608060405234801561001057600080fd5b50604051612dfd380380612dfd83398181016040528101906100329190610160565b82600260006101000a81548173ffffffffffffffffffffffffffffffffffffffff021916908373ffffffffffffffffffffffffffffffffffffffff16021790555081600360006101000a81548173ffffffffffffffffffffffffffffffffffffffff021916908373ffffffffffffffffffffffffffffffffffffffff16021790555080600460006101000a81548173ffffffffffffffffffffffffffffffffffffffff021916908373ffffffffffffffffffffffffffffffffffffffff1602179055505050506101b3565b600080fd5b600073ffffffffffffffffffffffffffffffffffffffff82169050919050565b600061012d82610102565b9050919050565b61013d81610122565b811461014857600080fd5b50565b60008151905061015a81610134565b92915050565b600080600060608486031215610179576101786100fd565b5b60006101878682870161014b565b93505060206101988682870161014b565b92505060406101a98682870161014b565b9150509250925092565b612c3b806101c26000396000f3fe608060405234801561001057600080fd5b506004361061007d5760003560e01c80635276b2631161005b5780635276b263146100ee5780635f780f851461010c578063a689e01b1461013c578063aeed44b6146101585761007d565b806313007d55146100825780631dd2639c146100a0578063443bd1d0146100d0575b600080fd5b61008a610188565b604051610097919061164f565b60405180910390f35b6100ba60048036038101906100b591906116bc565b6101ae565b6040516100c79190611702565b60405180910390f35b6100d86108eb565b6040516100e5919061173e565b60405180910390f35b6100f6610911565b604051610103919061177a565b60405180910390f35b610126600480360381019061012191906119c1565b610937565b6040516101339190611702565b60405180910390f35b61015660048036038101906101519190611b0c565b610fa5565b005b610172600480360381019061016d9190611c2e565b6110b5565b60405161017f9190611d0c565b60405180910390f35b600360009054906101000a900473ffffffffffffffffffffffffffffffffffffffff1681565b600080339050600260009054906101000a900473ffffffffffffffffffffffffffffffffffffffff1673ffffffffffffffffffffffffffffffffffffffff16634a34495f826040518263ffffffff1660e01b815260040161020f9190611d36565b602060405180830381865afa15801561022c573d6000803e3d6000fd5b505050506040513d601f19601f820116820180604052508101906102509190611d66565b61028f576040517f08c379a000000000000000000000000000000000000000000000000000000000815260040161028690611df0565b60405180910390fd5b6000600260009054906101000a900473ffffffffffffffffffffffffffffffffffffffff1673ffffffffffffffffffffffffffffffffffffffff166344e0b8c1836040518263ffffffff1660e01b81526004016102ec9190611d36565b600060405180830381865afa158015610309573d6000803e3d6000fd5b505050506040513d6000823e3d601f19601f820116820180604052508101906103329190611eaa565b509250505060405160200161034690611fd8565b604051602081830303815290604052805190602001208160405160200161036d9190612029565b60405160208183030381529060405280519060200120146103c3576040517f08c379a00000000000000000000000000000000000000000000000000000000081526004016103ba9061208c565b60405180910390fd5b600260009054906101000a900473ffffffffffffffffffffffffffffffffffffffff1673ffffffffffffffffffffffffffffffffffffffff16634a34495f856040518263ffffffff1660e01b815260040161041e9190611d36565b602060405180830381865afa15801561043b573d6000803e3d6000fd5b505050506040513d601f19601f8201168201806040525081019061045f9190611d66565b61049e576040517f08c379a0000000000000000000000000000000000000000000000000000000008152600401610495906120f8565b60405180910390fd5b6000600260009054906101000a900473ffffffffffffffffffffffffffffffffffffffff1673ffffffffffffffffffffffffffffffffffffffff166344e0b8c1866040518263ffffffff1660e01b81526004016104fb9190611d36565b600060405180830381865afa158015610518573d6000803e3d6000fd5b505050506040513d6000823e3d601f19601f820116820180604052508101906105419190611eaa565b509250505060405160200161055590612164565b604051602081830303815290604052805190602001208160405160200161057c9190612029565b60405160208183030381529060405280519060200120146105d2576040517f08c379a00000000000000000000000000000000000000000000000000000000081526004016105c9906121eb565b60405180910390fd5b600360009054906101000a900473ffffffffffffffffffffffffffffffffffffffff1673ffffffffffffffffffffffffffffffffffffffff16630da583f686856040518363ffffffff1660e01b815260040161062f92919061220b565b602060405180830381865afa15801561064c573d6000803e3d6000fd5b505050506040513d601f19601f820116820180604052508101906106709190611d66565b6106af576040517f08c379a00000000000000000000000000000000000000000000000000000000081526004016106a690612280565b60405180910390fd5b6000600160008573ffffffffffffffffffffffffffffffffffffffff1673ffffffffffffffffffffffffffffffffffffffff1681526020019081526020016000206000815480929190610701906122d9565b91905055905060008487428460405160200161072094939291906123d6565b6040516020818303038152906040528051906020012090506000610e1042610748919061242f565b90506040518060a001604052808381526020018773ffffffffffffffffffffffffffffffffffffffff1681526020018973ffffffffffffffffffffffffffffffffffffffff168152602001828152602001600015158152506000808481526020019081526020016000206000820151816000015560208201518160010160006101000a81548173ffffffffffffffffffffffffffffffffffffffff021916908373ffffffffffffffffffffffffffffffffffffffff16021790555060408201518160020160006101000a81548173ffffffffffffffffffffffffffffffffffffffff021916908373ffffffffffffffffffffffffffffffffffffffff1602179055506060820151816003015560808201518160040160006101000a81548160ff0219169083151502179055509050508773ffffffffffffffffffffffffffffffffffffffff168673ffffffffffffffffffffffffffffffffffffffff16837f85609ee8d69be43ee2577eca97aca975f890f7cbf58fb1d15b0f356f766e2a95846040516108d59190612472565b60405180910390a4819650505050505050919050565b600260009054906101000a900473ffffffffffffffffffffffffffffffffffffffff1681565b600460009054906101000a900473ffffffffffffffffffffffffffffffffffffffff1681565b600080339050600260009054906101000a900473ffffffffffffffffffffffffffffffffffffffff1673ffffffffffffffffffffffffffffffffffffffff16634a34495f826040518263ffffffff1660e01b81526004016109989190611d36565b602060405180830381865afa1580156109b5573d6000803e3d6000fd5b505050506040513d601f19601f820116820180604052508101906109d99190611d66565b610a18576040517f08c379a0000000000000000000000000000000000000000000000000000000008152600401610a0f90611df0565b60405180910390fd5b6000600260009054906101000a900473ffffffffffffffffffffffffffffffffffffffff1673ffffffffffffffffffffffffffffffffffffffff166344e0b8c1836040518263ffffffff1660e01b8152600401610a759190611d36565b600060405180830381865afa158015610a92573d6000803e3d6000fd5b505050506040513d6000823e3d601f19601f82011682018060405250810190610abb9190611eaa565b5092505050604051602001610acf90611fd8565b6040516020818303038152906040528051906020012081604051602001610af69190612029565b6040516020818303038152906040528051906020012014610b4c576040517f08c379a0000000000000000000000000000000000000000000000000000000008152600401610b439061208c565b60405180910390fd5b600260009054906101000a900473ffffffffffffffffffffffffffffffffffffffff1673ffffffffffffffffffffffffffffffffffffffff16634a34495f866040518263ffffffff1660e01b8152600401610ba79190611d36565b602060405180830381865afa158015610bc4573d6000803e3d6000fd5b505050506040513d601f19601f82011682018060405250810190610be89190611d66565b610c27576040517f08c379a0000000000000000000000000000000000000000000000000000000008152600401610c1e906120f8565b60405180910390fd5b6000845111610c6b576040517f08c379a0000000000000000000000000000000000000000000000000000000008152600401610c62906124d9565b60405180910390fd5b600360009054906101000a900473ffffffffffffffffffffffffffffffffffffffff1673ffffffffffffffffffffffffffffffffffffffff1663354f83168684876040518463ffffffff1660e01b8152600401610cca93929190612605565b602060405180830381865afa158015610ce7573d6000803e3d6000fd5b505050506040513d601f19601f82011682018060405250810190610d0b9190611d66565b610d4a576040517f08c379a0000000000000000000000000000000000000000000000000000000008152600401610d419061268f565b60405180910390fd5b6000600160008473ffffffffffffffffffffffffffffffffffffffff1673ffffffffffffffffffffffffffffffffffffffff1681526020019081526020016000206000815480929190610d9c906122d9565b9190505590506000838787600081518110610dba57610db96126af565b5b60200260200101514285604051602001610dd89594939291906126de565b6040516020818303038152906040528051906020012090506000610e1042610e00919061242f565b90506040518060a001604052808381526020018673ffffffffffffffffffffffffffffffffffffffff1681526020018973ffffffffffffffffffffffffffffffffffffffff168152602001828152602001600015158152506000808481526020019081526020016000206000820151816000015560208201518160010160006101000a81548173ffffffffffffffffffffffffffffffffffffffff021916908373ffffffffffffffffffffffffffffffffffffffff16021790555060408201518160020160006101000a81548173ffffffffffffffffffffffffffffffffffffffff021916908373ffffffffffffffffffffffffffffffffffffffff1602179055506060820151816003015560808201518160040160006101000a81548160ff0219169083151502179055509050508773ffffffffffffffffffffffffffffffffffffffff168573ffffffffffffffffffffffffffffffffffffffff16837f681d941288ce6956f7fe4b48f57047771ff8f7bfc39f783f92d3c96cb1ed1ff08a85604051610f8f929190612739565b60405180910390a4819550505050505092915050565b60005b81518110156110b1576000806000848481518110610fc957610fc86126af565b5b60200260200101518152602001908152602001600020905042816003015411158015610ffc57506000801b816000015414155b156110a357600080848481518110611017576110166126af565b5b602002602001015181526020019081526020016000206000808201600090556001820160006101000a81549073ffffffffffffffffffffffffffffffffffffffff02191690556002820160006101000a81549073ffffffffffffffffffffffffffffffffffffffff021916905560038201600090556004820160006101000a81549060ff021916905550505b508080600101915050610fa8565b5050565b60008060008088815260200190815260200160002090506000801b816000015403611115576040517f08c379a000000000000000000000000000000000000000000000000000000000815260040161110c906127b5565b60405180910390fd5b8060040160009054906101000a900460ff1615611167576040517f08c379a000000000000000000000000000000000000000000000000000000000815260040161115e90612821565b60405180910390fd5b428160030154116111ad576040517f08c379a00000000000000000000000000000000000000000000000000000000081526004016111a49061288d565b60405180910390fd5b6000600260009054906101000a900473ffffffffffffffffffffffffffffffffffffffff1673ffffffffffffffffffffffffffffffffffffffff1663857cdbb88360010160009054906101000a900473ffffffffffffffffffffffffffffffffffffffff166040518263ffffffff1660e01b815260040161122e9190611d36565b600060405180830381865afa15801561124b573d6000803e3d6000fd5b505050506040513d6000823e3d601f19601f8201168201806040525081019061127491906128ad565b905060008151116112ba576040517f08c379a00000000000000000000000000000000000000000000000000000000081526004016112b190612942565b60405180910390fd5b6000886040516020016112cd91906129cf565b604051602081830303815290604052805190602001209050600080600060418b511461132e576040517f08c379a000000000000000000000000000000000000000000000000000000000815260040161132590612a41565b60405180910390fd5b60208b0151925060408b0151915060418b015160001a905060006001858386866040516000815260200160405260405161136b9493929190612a7d565b6020604051602081039080840390855afa15801561138d573d6000803e3d6000fd5b5050506020604051035190508660010160009054906101000a900473ffffffffffffffffffffffffffffffffffffffff1673ffffffffffffffffffffffffffffffffffffffff168173ffffffffffffffffffffffffffffffffffffffff161461142b576040517f08c379a000000000000000000000000000000000000000000000000000000000815260040161142290612b0e565b60405180910390fd5b60018760040160006101000a81548160ff0219169083151502179055508660010160009054906101000a900473ffffffffffffffffffffffffffffffffffffffff1673ffffffffffffffffffffffffffffffffffffffff168d7f0b5920eeaf7129084f5cc97a616f5efb3f7c8a31f0e642b473bcd2679142254c60405160405180910390a38a156115bc57600460009054906101000a900473ffffffffffffffffffffffffffffffffffffffff1673ffffffffffffffffffffffffffffffffffffffff16636f0152c18860020160009054906101000a900473ffffffffffffffffffffffffffffffffffffffff168c8c6040518463ffffffff1660e01b815260040161153993929190612b2e565b6020604051808303816000875af1158015611558573d6000803e3d6000fd5b505050506040513d601f19601f8201168201806040525081019061157c9190611d66565b6115bb576040517f08c379a00000000000000000000000000000000000000000000000000000000081526004016115b290612be5565b60405180910390fd5b5b600197505050505050505095945050505050565b600073ffffffffffffffffffffffffffffffffffffffff82169050919050565b6000819050919050565b600061161561161061160b846115d0565b6115f0565b6115d0565b9050919050565b6000611627826115fa565b9050919050565b60006116398261161c565b9050919050565b6116498161162e565b82525050565b60006020820190506116646000830184611640565b92915050565b6000604051905090565b600080fd5b600080fd5b6000611689826115d0565b9050919050565b6116998161167e565b81146116a457600080fd5b50565b6000813590506116b681611690565b92915050565b6000602082840312156116d2576116d1611674565b5b60006116e0848285016116a7565b91505092915050565b6000819050919050565b6116fc816116e9565b82525050565b600060208201905061171760008301846116f3565b92915050565b60006117288261161c565b9050919050565b6117388161171d565b82525050565b6000602082019050611753600083018461172f565b92915050565b60006117648261161c565b9050919050565b61177481611759565b82525050565b600060208201905061178f600083018461176b565b92915050565b600080fd5b6000601f19601f8301169050919050565b7f4e487b7100000000000000000000000000000000000000000000000000000000600052604160045260246000fd5b6117e38261179a565b810181811067ffffffffffffffff82111715611802576118016117ab565b5b80604052505050565b600061181561166a565b905061182182826117da565b919050565b600067ffffffffffffffff821115611841576118406117ab565b5b602082029050602081019050919050565b600080fd5b600080fd5b600067ffffffffffffffff821115611877576118766117ab565b5b6118808261179a565b9050602081019050919050565b82818337600083830152505050565b60006118af6118aa8461185c565b61180b565b9050828152602081018484840111156118cb576118ca611857565b5b6118d684828561188d565b509392505050565b600082601f8301126118f3576118f2611795565b5b813561190384826020860161189c565b91505092915050565b600061191f61191a84611826565b61180b565b9050808382526020820190506020840283018581111561194257611941611852565b5b835b8181101561198957803567ffffffffffffffff81111561196757611966611795565b5b80860161197489826118de565b85526020850194505050602081019050611944565b5050509392505050565b600082601f8301126119a8576119a7611795565b5b81356119b884826020860161190c565b91505092915050565b600080604083850312156119d8576119d7611674565b5b60006119e6858286016116a7565b925050602083013567ffffffffffffffff811115611a0757611a06611679565b5b611a1385828601611993565b9150509250929050565b600067ffffffffffffffff821115611a3857611a376117ab565b5b602082029050602081019050919050565b611a52816116e9565b8114611a5d57600080fd5b50565b600081359050611a6f81611a49565b92915050565b6000611a88611a8384611a1d565b61180b565b90508083825260208201905060208402830185811115611aab57611aaa611852565b5b835b81811015611ad45780611ac08882611a60565b845260208401935050602081019050611aad565b5050509392505050565b600082601f830112611af357611af2611795565b5b8135611b03848260208601611a75565b91505092915050565b600060208284031215611b2257611b21611674565b5b600082013567ffffffffffffffff811115611b4057611b3f611679565b5b611b4c84828501611ade565b91505092915050565b600067ffffffffffffffff821115611b7057611b6f6117ab565b5b611b798261179a565b9050602081019050919050565b6000611b99611b9484611b55565b61180b565b905082815260208101848484011115611bb557611bb4611857565b5b611bc084828561188d565b509392505050565b600082601f830112611bdd57611bdc611795565b5b8135611bed848260208601611b86565b91505092915050565b60008115159050919050565b611c0b81611bf6565b8114611c1657600080fd5b50565b600081359050611c2881611c02565b92915050565b600080600080600060a08688031215611c4a57611c49611674565b5b6000611c5888828901611a60565b955050602086013567ffffffffffffffff811115611c7957611c78611679565b5b611c8588828901611bc8565b9450506040611c9688828901611c19565b935050606086013567ffffffffffffffff811115611cb757611cb6611679565b5b611cc388828901611993565b925050608086013567ffffffffffffffff811115611ce457611ce3611679565b5b611cf088828901611993565b9150509295509295909350565b611d0681611bf6565b82525050565b6000602082019050611d216000830184611cfd565b92915050565b611d308161167e565b82525050565b6000602082019050611d4b6000830184611d27565b92915050565b600081519050611d6081611c02565b92915050565b600060208284031215611d7c57611d7b611674565b5b6000611d8a84828501611d51565b91505092915050565b600082825260208201905092915050565b7f486f73706974616c206e6f742072656769737465726564000000000000000000600082015250565b6000611dda601783611d93565b9150611de582611da4565b602082019050919050565b60006020820190508181036000830152611e0981611dcd565b9050919050565b60005b83811015611e2e578082015181840152602081019050611e13565b60008484015250505050565b6000611e4d611e488461185c565b61180b565b905082815260208101848484011115611e6957611e68611857565b5b611e74848285611e10565b509392505050565b600082601f830112611e9157611e90611795565b5b8151611ea1848260208601611e3a565b91505092915050565b60008060008060808587031215611ec457611ec3611674565b5b600085015167ffffffffffffffff811115611ee257611ee1611679565b5b611eee87828801611e7c565b945050602085015167ffffffffffffffff811115611f0f57611f0e611679565b5b611f1b87828801611e7c565b935050604085015167ffffffffffffffff811115611f3c57611f3b611679565b5b611f4887828801611e7c565b925050606085015167ffffffffffffffff811115611f6957611f68611679565b5b611f7587828801611e7c565b91505092959194509250565b600081905092915050565b7f686f73706974616c000000000000000000000000000000000000000000000000600082015250565b6000611fc2600883611f81565b9150611fcd82611f8c565b600882019050919050565b6000611fe382611fb5565b9150819050919050565b600081519050919050565b600061200382611fed565b61200d8185611f81565b935061201d818560208601611e10565b80840191505092915050565b60006120358284611ff8565b915081905092915050565b7f43616c6c6572206d757374206265206120686f73706974616c00000000000000600082015250565b6000612076601983611d93565b915061208182612040565b602082019050919050565b600060208201905081810360008301526120a581612069565b9050919050565b7f50617469656e74206e6f74207265676973746572656400000000000000000000600082015250565b60006120e2601683611d93565b91506120ed826120ac565b602082019050919050565b60006020820190508181036000830152612111816120d5565b9050919050565b7f70617469656e7400000000000000000000000000000000000000000000000000600082015250565b600061214e600783611f81565b915061215982612118565b600782019050919050565b600061216f82612141565b9150819050919050565b7f70617469656e74206164647265737320646f65736e7420636f7272657373706f60008201527f6e6420746f2070617469656e7420726f6c650000000000000000000000000000602082015250565b60006121d5603283611d93565b91506121e082612179565b604082019050919050565b60006020820190508181036000830152612204816121c8565b9050919050565b60006040820190506122206000830185611d27565b61222d6020830184611d27565b9392505050565b7f4e6f207772697465206163636573730000000000000000000000000000000000600082015250565b600061226a600f83611d93565b915061227582612234565b602082019050919050565b600060208201905081810360008301526122998161225d565b9050919050565b7f4e487b7100000000000000000000000000000000000000000000000000000000600052601160045260246000fd5b6000819050919050565b60006122e4826122cf565b91507fffffffffffffffffffffffffffffffffffffffffffffffffffffffffffffffff8203612316576123156122a0565b5b600182019050919050565b60008160601b9050919050565b600061233982612321565b9050919050565b600061234b8261232e565b9050919050565b61236361235e8261167e565b612340565b82525050565b7f7772697465000000000000000000000000000000000000000000000000000000600082015250565b600061239f600583611f81565b91506123aa82612369565b600582019050919050565b6000819050919050565b6123d06123cb826122cf565b6123b5565b82525050565b60006123e28287612352565b6014820191506123f28286612352565b60148201915061240182612392565b915061240d82856123bf565b60208201915061241d82846123bf565b60208201915081905095945050505050565b600061243a826122cf565b9150612445836122cf565b925082820190508082111561245d5761245c6122a0565b5b92915050565b61246c816122cf565b82525050565b60006020820190506124876000830184612463565b92915050565b7f46696c652068617368206c6973742063616e6e6f7420626520656d7074790000600082015250565b60006124c3601e83611d93565b91506124ce8261248d565b602082019050919050565b600060208201905081810360008301526124f2816124b6565b9050919050565b600081519050919050565b600082825260208201905092915050565b6000819050602082019050919050565b600082825260208201905092915050565b600061254182611fed565b61254b8185612525565b935061255b818560208601611e10565b6125648161179a565b840191505092915050565b600061257b8383612536565b905092915050565b6000602082019050919050565b600061259b826124f9565b6125a58185612504565b9350836020820285016125b785612515565b8060005b858110156125f357848403895281516125d4858261256f565b94506125df83612583565b925060208a019950506001810190506125bb565b50829750879550505050505092915050565b600060608201905061261a6000830186611d27565b6126276020830185611d27565b81810360408301526126398184612590565b9050949350505050565b7f4e6f2061636365737320746f207265717565737465642066696c657300000000600082015250565b6000612679601c83611d93565b915061268482612643565b602082019050919050565b600060208201905081810360008301526126a88161266c565b9050919050565b7f4e487b7100000000000000000000000000000000000000000000000000000000600052603260045260246000fd5b60006126ea8288612352565b6014820191506126fa8287612352565b60148201915061270a8286611ff8565b915061271682856123bf565b60208201915061272682846123bf565b6020820191508190509695505050505050565b600060408201905081810360008301526127538185612590565b90506127626020830184612463565b9392505050565b7f496e76616c696420746f6b656e00000000000000000000000000000000000000600082015250565b600061279f600d83611d93565b91506127aa82612769565b602082019050919050565b600060208201905081810360008301526127ce81612792565b9050919050565b7f546f6b656e20616c726561647920757365640000000000000000000000000000600082015250565b600061280b601283611d93565b9150612816826127d5565b602082019050919050565b6000602082019050818103600083015261283a816127fe565b9050919050565b7f546f6b656e206578706972656400000000000000000000000000000000000000600082015250565b6000612877600d83611d93565b915061288282612841565b602082019050919050565b600060208201905081810360008301526128a68161286a565b9050919050565b6000602082840312156128c3576128c2611674565b5b600082015167ffffffffffffffff8111156128e1576128e0611679565b5b6128ed84828501611e7c565b91505092915050565b7f5075626c6963206b6579206e6f7420666f756e64000000000000000000000000600082015250565b600061292c601483611d93565b9150612937826128f6565b602082019050919050565b6000602082019050818103600083015261295b8161291f565b9050919050565b7f19457468657265756d205369676e6564204d6573736167653a0a333200000000600082015250565b6000612998601c83611f81565b91506129a382612962565b601c82019050919050565b6000819050919050565b6129c96129c4826116e9565b6129ae565b82525050565b60006129da8261298b565b91506129e682846129b8565b60208201915081905092915050565b7f496e76616c6964207369676e6174757265206c656e6774680000000000000000600082015250565b6000612a2b601883611d93565b9150612a36826129f5565b602082019050919050565b60006020820190508181036000830152612a5a81612a1e565b9050919050565b600060ff82169050919050565b612a7781612a61565b82525050565b6000608082019050612a9260008301876116f3565b612a9f6020830186612a6e565b612aac60408301856116f3565b612ab960608301846116f3565b95945050505050565b7f496e76616c6964207369676e6174757265000000000000000000000000000000600082015250565b6000612af8601183611d93565b9150612b0382612ac2565b602082019050919050565b60006020820190508181036000830152612b2781612aeb565b9050919050565b6000606082019050612b436000830186611d27565b8181036020830152612b558185612590565b90508181036040830152612b698184612590565b9050949350505050565b7f66696c654c697374206c656e67746820616e64204b65794c697374206c656e6760008201527f746820646f6573206e6f74206d61746368000000000000000000000000000000602082015250565b6000612bcf603183611d93565b9150612bda82612b73565b604082019050919050565b60006020820190508181036000830152612bfe81612bc2565b905091905056fea26469706673582212209494cfe9a89ae5206a4dc3adf808addd0e6894e91618813b7e6757951997cbf564736f6c634300081c0033",
  "linkReferences": {},
  "deployedLinkReferences": {}
}