{
  "_format": "hh-sol-artifact-1",
  "contractName": "ValidationContract",
  "sourceName": "contracts/Validation.sol",
  "abi": [
    {
      "inputs": [
        {
          "internalType": "address",
          "name": "_registration",
          "type": "address"
        },
        {
          "internalType": "address",
          "name": "_accessControl",
          "type": "address"
        },
        {
          "internalType": "address",
          "name": "_fileRegistry",
          "type": "address"
        }
      ],
      "stateMutability": "nonpayable",
      "type": "constructor"
    },
    {
      "anonymous": false,
      "inputs": [
        {
          "indexed": true,
          "internalType": "bytes32",
          "name": "tokenHash",
          "type": "bytes32"
        },
        {
          "indexed": true,
          "internalType": "address",
          "name": "hospital",
          "type": "address"
        },
        {
          "indexed": true,
          "internalType": "address",
          "name": "patient",
          "type": "address"
        },
        {
          "indexed": false,
          "internalType": "string[]",
          "name": "fileHashes",
          "type": "string[]"
        },
        {
          "indexed": false,
          "internalType": "uint256",
          "name": "expiry",
          "type": "uint256"
        }
      ],
      "name": "ReadAccessTokenGenerated",
      "type": "event"
    },
    {
      "anonymous": false,
      "inputs": [
        {
          "indexed": true,
          "internalType": "bytes32",
          "name": "tokenHash",
          "type": "bytes32"
        },
        {
          "indexed": true,
          "internalType": "address",
          "name": "hospital",
          "type": "address"
        }
      ],
      "name": "TokenValidated",
      "type": "event"
    },
    {
      "anonymous": false,
      "inputs": [
        {
          "indexed": true,
          "internalType": "bytes32",
          "name": "tokenHash",
          "type": "bytes32"
        },
        {
          "indexed": true,
          "internalType": "address",
          "name": "hospital",
          "type": "address"
        },
        {
          "indexed": true,
          "internalType": "address",
          "name": "patient",
          "type": "address"
        },
        {
          "indexed": false,
          "internalType": "uint256",
          "name": "expiry",
          "type": "uint256"
        }
      ],
      "name": "WriteAccessTokenGenerated",
      "type": "event"
    },
    {
      "inputs": [],
      "name": "accessControl",
      "outputs": [
        {
          "internalType": "contract IAccessControl",
          "name": "",
          "type": "address"
        }
      ],
      "stateMutability": "view",
      "type": "function"
    },
    {
      "inputs": [
        {
          "internalType": "bytes32[]",
          "name": "tokenHashes",
          "type": "bytes32[]"
        }
      ],
      "name": "cleanupExpiredTokens",
      "outputs": [],
      "stateMutability": "nonpayable",
      "type": "function"
    },
    {
      "inputs": [],
      "name": "fileRegistry",
      "outputs": [
        {
          "internalType": "contract IFileRegistry",
          "name": "",
          "type": "address"
        }
      ],
      "stateMutability": "view",
      "type": "function"
    },
    {
      "inputs": [],
      "name": "registration",
      "outputs": [
        {
          "internalType": "contract IRegistration",
          "name": "",
          "type": "address"
        }
      ],
      "stateMutability": "view",
      "type": "function"
    },
    {
      "inputs": [
        {
          "internalType": "address",
          "name": "patient",
          "type": "address"
        },
        {
          "internalType": "string[]",
          "name": "fileHashes",
          "type": "string[]"
        }
      ],
      "name": "requestFileReadAccessToken",
      "outputs": [
        {
          "internalType": "bytes32",
          "name": "",
          "type": "bytes32"
        }
      ],
      "stateMutability": "nonpayable",
      "type": "function"
    },
    {
      "inputs": [
        {
          "internalType": "address",
          "name": "patient",
          "type": "address"
        }
      ],
      "name": "requestFileWriteAccessToken",
      "outputs": [
        {
          "internalType": "bytes32",
          "name": "",
          "type": "bytes32"
        }
      ],
      "stateMutability": "nonpayable",
      "type": "function"
    },
    {
      "inputs": [
        {
          "internalType": "string[]",
          "name": "fileHashes",
          "type": "string[]"
        }
      ],
      "name": "requestOwnFilesReadToken",
      "outputs": [
        {
          "internalType": "bytes32",
          "name": "",
          "type": "bytes32"
        }
      ],
      "stateMutability": "nonpayable",
      "type": "function"
    },
    {
      "inputs": [],
      "name": "requestOwnFilesWriteToken",
      "outputs": [
        {
          "internalType": "bytes32",
          "name": "",
          "type": "bytes32"
        }
      ],
      "stateMutability": "nonpayable",
      "type": "function"
    },
    {
      "inputs": [
        {
          "internalType": "bytes32",
          "name": "tokenHash",
          "type": "bytes32"
        },
        {
          "internalType": "bytes",
          "name": "signature",
          "type": "bytes"
        },
        {
          "internalType": "bool",
          "name": "isWrite",
          "type": "bool"
        },
        {
          "internalType": "string[]",
          "name": "fileHashes",
          "type": "string[]"
        },
        {
          "internalType": "string[]",
          "name": "keyList",
          "type": "string[]"
        }
      ],
      "name": "validateToken",
      "outputs": [
        {
          "internalType": "bool",
          "name": "",
          "type": "bool"
        }
      ],
      "stateMutability": "nonpayable",
      "type": "function"
    }
  ],
  "bytecode": "0x608060405234801561001057600080fd5b506040516136d63803806136d683398181016040528101906100329190610160565b82600260006101000a81548173ffffffffffffffffffffffffffffffffffffffff021916908373ffffffffffffffffffffffffffffffffffffffff16021790555081600360006101000a81548173ffffffffffffffffffffffffffffffffffffffff021916908373ffffffffffffffffffffffffffffffffffffffff16021790555080600460006101000a81548173ffffffffffffffffffffffffffffffffffffffff021916908373ffffffffffffffffffffffffffffffffffffffff1602179055505050506101b3565b600080fd5b600073ffffffffffffffffffffffffffffffffffffffff82169050919050565b600061012d82610102565b9050919050565b61013d81610122565b811461014857600080fd5b50565b60008151905061015a81610134565b92915050565b600080600060608486031215610179576101786100fd565b5b60006101878682870161014b565b93505060206101988682870161014b565b92505060406101a98682870161014b565b9150509250925092565b613514806101c26000396000f3fe608060405234801561001057600080fd5b50600436106100935760003560e01c80636d19905d116100665780636d19905d1461012257806372b61c7f146101525780639372501414610182578063a689e01b146101a0578063aeed44b6146101bc57610093565b806311a4f2451461009857806313007d55146100c8578063443bd1d0146100e65780635276b26314610104575b600080fd5b6100b260048036038101906100ad9190611e10565b6101ec565b6040516100bf9190611e56565b60405180910390f35b6100d0610929565b6040516100dd9190611ed0565b60405180910390f35b6100ee61094f565b6040516100fb9190611f0c565b60405180910390f35b61010c610975565b6040516101199190611f48565b60405180910390f35b61013c6004803603810190610137919061218f565b61099b565b6040516101499190611e56565b60405180910390f35b61016c600480360381019061016791906121d8565b610df1565b6040516101799190611e56565b60405180910390f35b61018a61145f565b6040516101979190611e56565b60405180910390f35b6101ba60048036038101906101b59190612323565b611773565b005b6101d660048036038101906101d19190612445565b611883565b6040516101e39190612523565b60405180910390f35b600080339050600260009054906101000a900473ffffffffffffffffffffffffffffffffffffffff1673ffffffffffffffffffffffffffffffffffffffff16634a34495f826040518263ffffffff1660e01b815260040161024d919061254d565b602060405180830381865afa15801561026a573d6000803e3d6000fd5b505050506040513d601f19601f8201168201806040525081019061028e919061257d565b6102cd576040517f08c379a00000000000000000000000000000000000000000000000000000000081526004016102c490612607565b60405180910390fd5b6000600260009054906101000a900473ffffffffffffffffffffffffffffffffffffffff1673ffffffffffffffffffffffffffffffffffffffff166344e0b8c1836040518263ffffffff1660e01b815260040161032a919061254d565b600060405180830381865afa158015610347573d6000803e3d6000fd5b505050506040513d6000823e3d601f19601f8201168201806040525081019061037091906126c1565b5092505050604051602001610384906127ef565b60405160208183030381529060405280519060200120816040516020016103ab9190612840565b6040516020818303038152906040528051906020012014610401576040517f08c379a00000000000000000000000000000000000000000000000000000000081526004016103f8906128a3565b60405180910390fd5b600260009054906101000a900473ffffffffffffffffffffffffffffffffffffffff1673ffffffffffffffffffffffffffffffffffffffff16634a34495f856040518263ffffffff1660e01b815260040161045c919061254d565b602060405180830381865afa158015610479573d6000803e3d6000fd5b505050506040513d601f19601f8201168201806040525081019061049d919061257d565b6104dc576040517f08c379a00000000000000000000000000000000000000000000000000000000081526004016104d39061290f565b60405180910390fd5b6000600260009054906101000a900473ffffffffffffffffffffffffffffffffffffffff1673ffffffffffffffffffffffffffffffffffffffff166344e0b8c1866040518263ffffffff1660e01b8152600401610539919061254d565b600060405180830381865afa158015610556573d6000803e3d6000fd5b505050506040513d6000823e3d601f19601f8201168201806040525081019061057f91906126c1565b50925050506040516020016105939061297b565b60405160208183030381529060405280519060200120816040516020016105ba9190612840565b6040516020818303038152906040528051906020012014610610576040517f08c379a000000000000000000000000000000000000000000000000000000000815260040161060790612a02565b60405180910390fd5b600360009054906101000a900473ffffffffffffffffffffffffffffffffffffffff1673ffffffffffffffffffffffffffffffffffffffff16630da583f686856040518363ffffffff1660e01b815260040161066d929190612a22565b602060405180830381865afa15801561068a573d6000803e3d6000fd5b505050506040513d601f19601f820116820180604052508101906106ae919061257d565b6106ed576040517f08c379a00000000000000000000000000000000000000000000000000000000081526004016106e490612a97565b60405180910390fd5b6000600160008573ffffffffffffffffffffffffffffffffffffffff1673ffffffffffffffffffffffffffffffffffffffff168152602001908152602001600020600081548092919061073f90612af0565b91905055905060008487428460405160200161075e9493929190612bed565b6040516020818303038152906040528051906020012090506000610e10426107869190612c46565b90506040518060a001604052808381526020018773ffffffffffffffffffffffffffffffffffffffff1681526020018973ffffffffffffffffffffffffffffffffffffffff168152602001828152602001600015158152506000808481526020019081526020016000206000820151816000015560208201518160010160006101000a81548173ffffffffffffffffffffffffffffffffffffffff021916908373ffffffffffffffffffffffffffffffffffffffff16021790555060408201518160020160006101000a81548173ffffffffffffffffffffffffffffffffffffffff021916908373ffffffffffffffffffffffffffffffffffffffff1602179055506060820151816003015560808201518160040160006101000a81548160ff0219169083151502179055509050508773ffffffffffffffffffffffffffffffffffffffff168673ffffffffffffffffffffffffffffffffffffffff16837f85609ee8d69be43ee2577eca97aca975f890f7cbf58fb1d15b0f356f766e2a95846040516109139190612c89565b60405180910390a4819650505050505050919050565b600360009054906101000a900473ffffffffffffffffffffffffffffffffffffffff1681565b600260009054906101000a900473ffffffffffffffffffffffffffffffffffffffff1681565b600460009054906101000a900473ffffffffffffffffffffffffffffffffffffffff1681565b6000600260009054906101000a900473ffffffffffffffffffffffffffffffffffffffff1673ffffffffffffffffffffffffffffffffffffffff16634a34495f336040518263ffffffff1660e01b81526004016109f8919061254d565b602060405180830381865afa158015610a15573d6000803e3d6000fd5b505050506040513d601f19601f82011682018060405250810190610a39919061257d565b610a78576040517f08c379a0000000000000000000000000000000000000000000000000000000008152600401610a6f9061290f565b60405180910390fd5b6000825111610abc576040517f08c379a0000000000000000000000000000000000000000000000000000000008152600401610ab390612cf0565b60405180910390fd5b600460009054906101000a900473ffffffffffffffffffffffffffffffffffffffff1673ffffffffffffffffffffffffffffffffffffffff166359a1ffcb33846040518363ffffffff1660e01b8152600401610b19929190612e1c565b602060405180830381865afa158015610b36573d6000803e3d6000fd5b505050506040513d601f19601f82011682018060405250810190610b5a919061257d565b610b99576040517f08c379a0000000000000000000000000000000000000000000000000000000008152600401610b9090612ebe565b60405180910390fd5b6000600160003373ffffffffffffffffffffffffffffffffffffffff1673ffffffffffffffffffffffffffffffffffffffff1681526020019081526020016000206000815480929190610beb90612af0565b9190505590506000333385600081518110610c0957610c08612ede565b5b60200260200101514285604051602001610c27959493929190612f0d565b6040516020818303038152906040528051906020012090506000610e1042610c4f9190612c46565b90506040518060a001604052808381526020013373ffffffffffffffffffffffffffffffffffffffff1681526020013373ffffffffffffffffffffffffffffffffffffffff168152602001828152602001600015158152506000808481526020019081526020016000206000820151816000015560208201518160010160006101000a81548173ffffffffffffffffffffffffffffffffffffffff021916908373ffffffffffffffffffffffffffffffffffffffff16021790555060408201518160020160006101000a81548173ffffffffffffffffffffffffffffffffffffffff021916908373ffffffffffffffffffffffffffffffffffffffff1602179055506060820151816003015560808201518160040160006101000a81548160ff0219169083151502179055509050503373ffffffffffffffffffffffffffffffffffffffff163373ffffffffffffffffffffffffffffffffffffffff16837f681d941288ce6956f7fe4b48f57047771ff8f7bfc39f783f92d3c96cb1ed1ff08885604051610dde929190612f68565b60405180910390a4819350505050919050565b600080339050600260009054906101000a900473ffffffffffffffffffffffffffffffffffffffff1673ffffffffffffffffffffffffffffffffffffffff16634a34495f826040518263ffffffff1660e01b8152600401610e52919061254d565b602060405180830381865afa158015610e6f573d6000803e3d6000fd5b505050506040513d601f19601f82011682018060405250810190610e93919061257d565b610ed2576040517f08c379a0000000000000000000000000000000000000000000000000000000008152600401610ec990612607565b60405180910390fd5b6000600260009054906101000a900473ffffffffffffffffffffffffffffffffffffffff1673ffffffffffffffffffffffffffffffffffffffff166344e0b8c1836040518263ffffffff1660e01b8152600401610f2f919061254d565b600060405180830381865afa158015610f4c573d6000803e3d6000fd5b505050506040513d6000823e3d601f19601f82011682018060405250810190610f7591906126c1565b5092505050604051602001610f89906127ef565b6040516020818303038152906040528051906020012081604051602001610fb09190612840565b6040516020818303038152906040528051906020012014611006576040517f08c379a0000000000000000000000000000000000000000000000000000000008152600401610ffd906128a3565b60405180910390fd5b600260009054906101000a900473ffffffffffffffffffffffffffffffffffffffff1673ffffffffffffffffffffffffffffffffffffffff16634a34495f866040518263ffffffff1660e01b8152600401611061919061254d565b602060405180830381865afa15801561107e573d6000803e3d6000fd5b505050506040513d601f19601f820116820180604052508101906110a2919061257d565b6110e1576040517f08c379a00000000000000000000000000000000000000000000000000000000081526004016110d89061290f565b60405180910390fd5b6000845111611125576040517f08c379a000000000000000000000000000000000000000000000000000000000815260040161111c90612cf0565b60405180910390fd5b600360009054906101000a900473ffffffffffffffffffffffffffffffffffffffff1673ffffffffffffffffffffffffffffffffffffffff1663354f83168684876040518463ffffffff1660e01b815260040161118493929190612f98565b602060405180830381865afa1580156111a1573d6000803e3d6000fd5b505050506040513d601f19601f820116820180604052508101906111c5919061257d565b611204576040517f08c379a00000000000000000000000000000000000000000000000000000000081526004016111fb90613022565b60405180910390fd5b6000600160008473ffffffffffffffffffffffffffffffffffffffff1673ffffffffffffffffffffffffffffffffffffffff168152602001908152602001600020600081548092919061125690612af0565b919050559050600083878760008151811061127457611273612ede565b5b60200260200101514285604051602001611292959493929190612f0d565b6040516020818303038152906040528051906020012090506000610e10426112ba9190612c46565b90506040518060a001604052808381526020018673ffffffffffffffffffffffffffffffffffffffff1681526020018973ffffffffffffffffffffffffffffffffffffffff168152602001828152602001600015158152506000808481526020019081526020016000206000820151816000015560208201518160010160006101000a81548173ffffffffffffffffffffffffffffffffffffffff021916908373ffffffffffffffffffffffffffffffffffffffff16021790555060408201518160020160006101000a81548173ffffffffffffffffffffffffffffffffffffffff021916908373ffffffffffffffffffffffffffffffffffffffff1602179055506060820151816003015560808201518160040160006101000a81548160ff0219169083151502179055509050508773ffffffffffffffffffffffffffffffffffffffff168573ffffffffffffffffffffffffffffffffffffffff16837f681d941288ce6956f7fe4b48f57047771ff8f7bfc39f783f92d3c96cb1ed1ff08a85604051611449929190612f68565b60405180910390a4819550505050505092915050565b6000600260009054906101000a900473ffffffffffffffffffffffffffffffffffffffff1673ffffffffffffffffffffffffffffffffffffffff16634a34495f336040518263ffffffff1660e01b81526004016114bc919061254d565b602060405180830381865afa1580156114d9573d6000803e3d6000fd5b505050506040513d601f19601f820116820180604052508101906114fd919061257d565b61153c576040517f08c379a00000000000000000000000000000000000000000000000000000000081526004016115339061290f565b60405180910390fd5b6000600160003373ffffffffffffffffffffffffffffffffffffffff1673ffffffffffffffffffffffffffffffffffffffff168152602001908152602001600020600081548092919061158e90612af0565b9190505590506000333342846040516020016115ad9493929190612bed565b6040516020818303038152906040528051906020012090506000610e10426115d59190612c46565b90506040518060a001604052808381526020013373ffffffffffffffffffffffffffffffffffffffff1681526020013373ffffffffffffffffffffffffffffffffffffffff168152602001828152602001600015158152506000808481526020019081526020016000206000820151816000015560208201518160010160006101000a81548173ffffffffffffffffffffffffffffffffffffffff021916908373ffffffffffffffffffffffffffffffffffffffff16021790555060408201518160020160006101000a81548173ffffffffffffffffffffffffffffffffffffffff021916908373ffffffffffffffffffffffffffffffffffffffff1602179055506060820151816003015560808201518160040160006101000a81548160ff0219169083151502179055509050503373ffffffffffffffffffffffffffffffffffffffff163373ffffffffffffffffffffffffffffffffffffffff16837f85609ee8d69be43ee2577eca97aca975f890f7cbf58fb1d15b0f356f766e2a95846040516117629190612c89565b60405180910390a481935050505090565b60005b815181101561187f57600080600084848151811061179757611796612ede565b5b602002602001015181526020019081526020016000209050428160030154111580156117ca57506000801b816000015414155b15611871576000808484815181106117e5576117e4612ede565b5b602002602001015181526020019081526020016000206000808201600090556001820160006101000a81549073ffffffffffffffffffffffffffffffffffffffff02191690556002820160006101000a81549073ffffffffffffffffffffffffffffffffffffffff021916905560038201600090556004820160006101000a81549060ff021916905550505b508080600101915050611776565b5050565b60008060008088815260200190815260200160002090506000801b8160000154036118e3576040517f08c379a00000000000000000000000000000000000000000000000000000000081526004016118da9061308e565b60405180910390fd5b8060040160009054906101000a900460ff1615611935576040517f08c379a000000000000000000000000000000000000000000000000000000000815260040161192c906130fa565b60405180910390fd5b4281600301541161197b576040517f08c379a000000000000000000000000000000000000000000000000000000000815260040161197290613166565b60405180910390fd5b6000600260009054906101000a900473ffffffffffffffffffffffffffffffffffffffff1673ffffffffffffffffffffffffffffffffffffffff1663857cdbb88360010160009054906101000a900473ffffffffffffffffffffffffffffffffffffffff166040518263ffffffff1660e01b81526004016119fc919061254d565b600060405180830381865afa158015611a19573d6000803e3d6000fd5b505050506040513d6000823e3d601f19601f82011682018060405250810190611a429190613186565b90506000815111611a88576040517f08c379a0000000000000000000000000000000000000000000000000000000008152600401611a7f9061321b565b60405180910390fd5b600088604051602001611a9b91906132a8565b604051602081830303815290604052805190602001209050600080600060418b5114611afc576040517f08c379a0000000000000000000000000000000000000000000000000000000008152600401611af39061331a565b60405180910390fd5b60208b0151925060408b0151915060608b015160001a9050600060018583868660405160008152602001604052604051611b399493929190613356565b6020604051602081039080840390855afa158015611b5b573d6000803e3d6000fd5b5050506020604051035190508660010160009054906101000a900473ffffffffffffffffffffffffffffffffffffffff1673ffffffffffffffffffffffffffffffffffffffff168173ffffffffffffffffffffffffffffffffffffffff1614611bf9576040517f08c379a0000000000000000000000000000000000000000000000000000000008152600401611bf0906133e7565b60405180910390fd5b60018760040160006101000a81548160ff0219169083151502179055508660010160009054906101000a900473ffffffffffffffffffffffffffffffffffffffff1673ffffffffffffffffffffffffffffffffffffffff168d7f0b5920eeaf7129084f5cc97a616f5efb3f7c8a31f0e642b473bcd2679142254c60405160405180910390a38a15611d8a57600460009054906101000a900473ffffffffffffffffffffffffffffffffffffffff1673ffffffffffffffffffffffffffffffffffffffff16636f0152c18860020160009054906101000a900473ffffffffffffffffffffffffffffffffffffffff168c8c6040518463ffffffff1660e01b8152600401611d0793929190613407565b6020604051808303816000875af1158015611d26573d6000803e3d6000fd5b505050506040513d601f19601f82011682018060405250810190611d4a919061257d565b611d89576040517f08c379a0000000000000000000000000000000000000000000000000000000008152600401611d80906134be565b60405180910390fd5b5b600197505050505050505095945050505050565b6000604051905090565b600080fd5b600080fd5b600073ffffffffffffffffffffffffffffffffffffffff82169050919050565b6000611ddd82611db2565b9050919050565b611ded81611dd2565b8114611df857600080fd5b50565b600081359050611e0a81611de4565b92915050565b600060208284031215611e2657611e25611da8565b5b6000611e3484828501611dfb565b91505092915050565b6000819050919050565b611e5081611e3d565b82525050565b6000602082019050611e6b6000830184611e47565b92915050565b6000819050919050565b6000611e96611e91611e8c84611db2565b611e71565b611db2565b9050919050565b6000611ea882611e7b565b9050919050565b6000611eba82611e9d565b9050919050565b611eca81611eaf565b82525050565b6000602082019050611ee56000830184611ec1565b92915050565b6000611ef682611e9d565b9050919050565b611f0681611eeb565b82525050565b6000602082019050611f216000830184611efd565b92915050565b6000611f3282611e9d565b9050919050565b611f4281611f27565b82525050565b6000602082019050611f5d6000830184611f39565b92915050565b600080fd5b6000601f19601f8301169050919050565b7f4e487b7100000000000000000000000000000000000000000000000000000000600052604160045260246000fd5b611fb182611f68565b810181811067ffffffffffffffff82111715611fd057611fcf611f79565b5b80604052505050565b6000611fe3611d9e565b9050611fef8282611fa8565b919050565b600067ffffffffffffffff82111561200f5761200e611f79565b5b602082029050602081019050919050565b600080fd5b600080fd5b600067ffffffffffffffff82111561204557612044611f79565b5b61204e82611f68565b9050602081019050919050565b82818337600083830152505050565b600061207d6120788461202a565b611fd9565b90508281526020810184848401111561209957612098612025565b5b6120a484828561205b565b509392505050565b600082601f8301126120c1576120c0611f63565b5b81356120d184826020860161206a565b91505092915050565b60006120ed6120e884611ff4565b611fd9565b905080838252602082019050602084028301858111156121105761210f612020565b5b835b8181101561215757803567ffffffffffffffff81111561213557612134611f63565b5b80860161214289826120ac565b85526020850194505050602081019050612112565b5050509392505050565b600082601f83011261217657612175611f63565b5b81356121868482602086016120da565b91505092915050565b6000602082840312156121a5576121a4611da8565b5b600082013567ffffffffffffffff8111156121c3576121c2611dad565b5b6121cf84828501612161565b91505092915050565b600080604083850312156121ef576121ee611da8565b5b60006121fd85828601611dfb565b925050602083013567ffffffffffffffff81111561221e5761221d611dad565b5b61222a85828601612161565b9150509250929050565b600067ffffffffffffffff82111561224f5761224e611f79565b5b602082029050602081019050919050565b61226981611e3d565b811461227457600080fd5b50565b60008135905061228681612260565b92915050565b600061229f61229a84612234565b611fd9565b905080838252602082019050602084028301858111156122c2576122c1612020565b5b835b818110156122eb57806122d78882612277565b8452602084019350506020810190506122c4565b5050509392505050565b600082601f83011261230a57612309611f63565b5b813561231a84826020860161228c565b91505092915050565b60006020828403121561233957612338611da8565b5b600082013567ffffffffffffffff81111561235757612356611dad565b5b612363848285016122f5565b91505092915050565b600067ffffffffffffffff82111561238757612386611f79565b5b61239082611f68565b9050602081019050919050565b60006123b06123ab8461236c565b611fd9565b9050828152602081018484840111156123cc576123cb612025565b5b6123d784828561205b565b509392505050565b600082601f8301126123f4576123f3611f63565b5b813561240484826020860161239d565b91505092915050565b60008115159050919050565b6124228161240d565b811461242d57600080fd5b50565b60008135905061243f81612419565b92915050565b600080600080600060a0868803121561246157612460611da8565b5b600061246f88828901612277565b955050602086013567ffffffffffffffff8111156124905761248f611dad565b5b61249c888289016123df565b94505060406124ad88828901612430565b935050606086013567ffffffffffffffff8111156124ce576124cd611dad565b5b6124da88828901612161565b925050608086013567ffffffffffffffff8111156124fb576124fa611dad565b5b61250788828901612161565b9150509295509295909350565b61251d8161240d565b82525050565b60006020820190506125386000830184612514565b92915050565b61254781611dd2565b82525050565b6000602082019050612562600083018461253e565b92915050565b60008151905061257781612419565b92915050565b60006020828403121561259357612592611da8565b5b60006125a184828501612568565b91505092915050565b600082825260208201905092915050565b7f486f73706974616c206e6f742072656769737465726564000000000000000000600082015250565b60006125f16017836125aa565b91506125fc826125bb565b602082019050919050565b60006020820190508181036000830152612620816125e4565b9050919050565b60005b8381101561264557808201518184015260208101905061262a565b60008484015250505050565b600061266461265f8461202a565b611fd9565b9050828152602081018484840111156126805761267f612025565b5b61268b848285612627565b509392505050565b600082601f8301126126a8576126a7611f63565b5b81516126b8848260208601612651565b91505092915050565b600080600080608085870312156126db576126da611da8565b5b600085015167ffffffffffffffff8111156126f9576126f8611dad565b5b61270587828801612693565b945050602085015167ffffffffffffffff81111561272657612725611dad565b5b61273287828801612693565b935050604085015167ffffffffffffffff81111561275357612752611dad565b5b61275f87828801612693565b925050606085015167ffffffffffffffff8111156127805761277f611dad565b5b61278c87828801612693565b91505092959194509250565b600081905092915050565b7f686f73706974616c000000000000000000000000000000000000000000000000600082015250565b60006127d9600883612798565b91506127e4826127a3565b600882019050919050565b60006127fa826127cc565b9150819050919050565b600081519050919050565b600061281a82612804565b6128248185612798565b9350612834818560208601612627565b80840191505092915050565b600061284c828461280f565b915081905092915050565b7f43616c6c6572206d757374206265206120686f73706974616c00000000000000600082015250565b600061288d6019836125aa565b915061289882612857565b602082019050919050565b600060208201905081810360008301526128bc81612880565b9050919050565b7f50617469656e74206e6f74207265676973746572656400000000000000000000600082015250565b60006128f96016836125aa565b9150612904826128c3565b602082019050919050565b60006020820190508181036000830152612928816128ec565b9050919050565b7f70617469656e7400000000000000000000000000000000000000000000000000600082015250565b6000612965600783612798565b91506129708261292f565b600782019050919050565b600061298682612958565b9150819050919050565b7f70617469656e74206164647265737320646f65736e7420636f7272657373706f60008201527f6e6420746f2070617469656e7420726f6c650000000000000000000000000000602082015250565b60006129ec6032836125aa565b91506129f782612990565b604082019050919050565b60006020820190508181036000830152612a1b816129df565b9050919050565b6000604082019050612a37600083018561253e565b612a44602083018461253e565b9392505050565b7f4e6f207772697465206163636573730000000000000000000000000000000000600082015250565b6000612a81600f836125aa565b9150612a8c82612a4b565b602082019050919050565b60006020820190508181036000830152612ab081612a74565b9050919050565b7f4e487b7100000000000000000000000000000000000000000000000000000000600052601160045260246000fd5b6000819050919050565b6000612afb82612ae6565b91507fffffffffffffffffffffffffffffffffffffffffffffffffffffffffffffffff8203612b2d57612b2c612ab7565b5b600182019050919050565b60008160601b9050919050565b6000612b5082612b38565b9050919050565b6000612b6282612b45565b9050919050565b612b7a612b7582611dd2565b612b57565b82525050565b7f7772697465000000000000000000000000000000000000000000000000000000600082015250565b6000612bb6600583612798565b9150612bc182612b80565b600582019050919050565b6000819050919050565b612be7612be282612ae6565b612bcc565b82525050565b6000612bf98287612b69565b601482019150612c098286612b69565b601482019150612c1882612ba9565b9150612c248285612bd6565b602082019150612c348284612bd6565b60208201915081905095945050505050565b6000612c5182612ae6565b9150612c5c83612ae6565b9250828201905080821115612c7457612c73612ab7565b5b92915050565b612c8381612ae6565b82525050565b6000602082019050612c9e6000830184612c7a565b92915050565b7f46696c652068617368206c6973742063616e6e6f7420626520656d7074790000600082015250565b6000612cda601e836125aa565b9150612ce582612ca4565b602082019050919050565b60006020820190508181036000830152612d0981612ccd565b9050919050565b600081519050919050565b600082825260208201905092915050565b6000819050602082019050919050565b600082825260208201905092915050565b6000612d5882612804565b612d628185612d3c565b9350612d72818560208601612627565b612d7b81611f68565b840191505092915050565b6000612d928383612d4d565b905092915050565b6000602082019050919050565b6000612db282612d10565b612dbc8185612d1b565b935083602082028501612dce85612d2c565b8060005b85811015612e0a5784840389528151612deb8582612d86565b9450612df683612d9a565b925060208a01995050600181019050612dd2565b50829750879550505050505092915050565b6000604082019050612e31600083018561253e565b8181036020830152612e438184612da7565b90509392505050565b7f5265717565737465642066696c652f66696c657320646f65736e74206578697360008201527f7400000000000000000000000000000000000000000000000000000000000000602082015250565b6000612ea86021836125aa565b9150612eb382612e4c565b604082019050919050565b60006020820190508181036000830152612ed781612e9b565b9050919050565b7f4e487b7100000000000000000000000000000000000000000000000000000000600052603260045260246000fd5b6000612f198288612b69565b601482019150612f298287612b69565b601482019150612f39828661280f565b9150612f458285612bd6565b602082019150612f558284612bd6565b6020820191508190509695505050505050565b60006040820190508181036000830152612f828185612da7565b9050612f916020830184612c7a565b9392505050565b6000606082019050612fad600083018661253e565b612fba602083018561253e565b8181036040830152612fcc8184612da7565b9050949350505050565b7f4e6f2061636365737320746f207265717565737465642066696c657300000000600082015250565b600061300c601c836125aa565b915061301782612fd6565b602082019050919050565b6000602082019050818103600083015261303b81612fff565b9050919050565b7f496e76616c696420746f6b656e00000000000000000000000000000000000000600082015250565b6000613078600d836125aa565b915061308382613042565b602082019050919050565b600060208201905081810360008301526130a78161306b565b9050919050565b7f546f6b656e20616c726561647920757365640000000000000000000000000000600082015250565b60006130e46012836125aa565b91506130ef826130ae565b602082019050919050565b60006020820190508181036000830152613113816130d7565b9050919050565b7f546f6b656e206578706972656400000000000000000000000000000000000000600082015250565b6000613150600d836125aa565b915061315b8261311a565b602082019050919050565b6000602082019050818103600083015261317f81613143565b9050919050565b60006020828403121561319c5761319b611da8565b5b600082015167ffffffffffffffff8111156131ba576131b9611dad565b5b6131c684828501612693565b91505092915050565b7f5075626c6963206b6579206e6f7420666f756e64000000000000000000000000600082015250565b60006132056014836125aa565b9150613210826131cf565b602082019050919050565b60006020820190508181036000830152613234816131f8565b9050919050565b7f19457468657265756d205369676e6564204d6573736167653a0a333200000000600082015250565b6000613271601c83612798565b915061327c8261323b565b601c82019050919050565b6000819050919050565b6132a261329d82611e3d565b613287565b82525050565b60006132b382613264565b91506132bf8284613291565b60208201915081905092915050565b7f496e76616c6964207369676e6174757265206c656e6774680000000000000000600082015250565b60006133046018836125aa565b915061330f826132ce565b602082019050919050565b60006020820190508181036000830152613333816132f7565b9050919050565b600060ff82169050919050565b6133508161333a565b82525050565b600060808201905061336b6000830187611e47565b6133786020830186613347565b6133856040830185611e47565b6133926060830184611e47565b95945050505050565b7f496e76616c6964207369676e6174757265000000000000000000000000000000600082015250565b60006133d16011836125aa565b91506133dc8261339b565b602082019050919050565b60006020820190508181036000830152613400816133c4565b9050919050565b600060608201905061341c600083018661253e565b818103602083015261342e8185612da7565b905081810360408301526134428184612da7565b9050949350505050565b7f66696c654c697374206c656e67746820616e64204b65794c697374206c656e6760008201527f746820646f6573206e6f74206d61746368000000000000000000000000000000602082015250565b60006134a86031836125aa565b91506134b38261344c565b604082019050919050565b600060208201905081810360008301526134d78161349b565b905091905056fea26469706673582212202e0b688cd274f81ff7f504c87324fbbeac5acd621cc5cb6bceca59826e27439764736f6c634300081c0033",
  "linkReferences": {},
  "deployedLinkReferences": {}
}